{
	"TimeCapsule.sol": {
		"TimeCapsule": {
			"abi": [
				{
					"inputs": [],
					"name": "capsuleCount",
					"outputs": [
						{
							"internalType": "uint256",
							"name": "",
							"type": "uint256"
						}
					],
					"stateMutability": "view",
					"type": "function"
				},
				{
					"inputs": [
						{
							"internalType": "uint256",
							"name": "",
							"type": "uint256"
						}
					],
					"name": "capsules",
					"outputs": [
						{
							"internalType": "address",
							"name": "owner",
							"type": "address"
						},
						{
							"internalType": "uint256",
							"name": "unlockTime",
							"type": "uint256"
						},
						{
							"internalType": "uint256",
							"name": "amount",
							"type": "uint256"
						}
					],
					"stateMutability": "view",
					"type": "function"
				},
				{
					"inputs": [
						{
							"internalType": "uint256",
							"name": "_unlockTime",
							"type": "uint256"
						}
					],
					"name": "createCapsule",
					"outputs": [],
					"stateMutability": "payable",
					"type": "function"
				},
				{
					"inputs": [
						{
							"internalType": "uint256",
							"name": "_id",
							"type": "uint256"
						}
					],
					"name": "withdrawCapsule",
					"outputs": [],
					"stateMutability": "nonpayable",
					"type": "function"
				}
			],
			"devdoc": {
				"kind": "dev",
				"methods": {},
				"version": 1
			},
			"evm": {
				"assembly": "    /* \"TimeCapsule.sol\":61:922  contract TimeCapsule {... */\n  mstore(0x40, 0x80)\n  callvalue\n  dup1\n  iszero\n  tag_1\n  jumpi\n  0x00\n  dup1\n  revert\ntag_1:\n  pop\n  dataSize(sub_0)\n  dup1\n  dataOffset(sub_0)\n  0x00\n  codecopy\n  0x00\n  return\nstop\n\nsub_0: assembly {\n        /* \"TimeCapsule.sol\":61:922  contract TimeCapsule {... */\n      mstore(0x40, 0x80)\n      jumpi(tag_1, lt(calldatasize, 0x04))\n      shr(0xe0, calldataload(0x00))\n      dup1\n      0x05dc0394\n      eq\n      tag_2\n      jumpi\n      dup1\n      0x19abdada\n      eq\n      tag_3\n      jumpi\n      dup1\n      0x517bbf46\n      eq\n      tag_4\n      jumpi\n      dup1\n      0xfec01afe\n      eq\n      tag_5\n      jumpi\n    tag_1:\n      0x00\n      dup1\n      revert\n        /* \"TimeCapsule.sol\":248:275  uint256 public capsuleCount */\n    tag_2:\n      callvalue\n      dup1\n      iszero\n      tag_6\n      jumpi\n      0x00\n      dup1\n      revert\n    tag_6:\n      pop\n      tag_7\n      sload(0x01)\n      dup2\n      jump\n    tag_7:\n      mload(0x40)\n        /* \"#utility.yul\":160:185   */\n      swap1\n      dup2\n      mstore\n        /* \"#utility.yul\":148:150   */\n      0x20\n        /* \"#utility.yul\":133:151   */\n      add\n        /* \"TimeCapsule.sol\":248:275  uint256 public capsuleCount */\n    tag_9:\n      mload(0x40)\n      dup1\n      swap2\n      sub\n      swap1\n      return\n        /* \"TimeCapsule.sol\":584:919  function withdrawCapsule(uint256 _id) external {... */\n    tag_3:\n      callvalue\n      dup1\n      iszero\n      tag_11\n      jumpi\n      0x00\n      dup1\n      revert\n    tag_11:\n      pop\n      tag_12\n      tag_13\n      calldatasize\n      0x04\n      tag_14\n      jump\t// in\n    tag_13:\n      tag_15\n      jump\t// in\n    tag_12:\n      stop\n        /* \"TimeCapsule.sol\":198:241  mapping(uint256 => Capsule) public capsules */\n    tag_4:\n      callvalue\n      dup1\n      iszero\n      tag_16\n      jumpi\n      0x00\n      dup1\n      revert\n    tag_16:\n      pop\n      tag_17\n      tag_18\n      calldatasize\n      0x04\n      tag_14\n      jump\t// in\n    tag_18:\n      0x00\n      0x20\n      dup2\n      swap1\n      mstore\n      swap1\n      dup2\n      mstore\n      0x40\n      swap1\n      keccak256\n      dup1\n      sload\n      0x01\n      dup3\n      add\n      sload\n      0x02\n      swap1\n      swap3\n      add\n      sload\n      sub(shl(0xa0, 0x01), 0x01)\n      swap1\n      swap2\n      and\n      swap2\n      swap1\n      dup4\n      jump\n    tag_17:\n      0x40\n      dup1\n      mload\n      sub(shl(0xa0, 0x01), 0x01)\n        /* \"#utility.yul\":601:633   */\n      swap1\n      swap5\n      and\n        /* \"#utility.yul\":583:634   */\n      dup5\n      mstore\n        /* \"#utility.yul\":665:667   */\n      0x20\n        /* \"#utility.yul\":650:668   */\n      dup5\n      add\n        /* \"#utility.yul\":643:677   */\n      swap3\n      swap1\n      swap3\n      mstore\n        /* \"#utility.yul\":693:711   */\n      swap1\n      dup3\n      add\n        /* \"#utility.yul\":686:720   */\n      mstore\n        /* \"#utility.yul\":571:573   */\n      0x60\n        /* \"#utility.yul\":556:574   */\n      add\n        /* \"TimeCapsule.sol\":198:241  mapping(uint256 => Capsule) public capsules */\n      tag_9\n        /* \"#utility.yul\":381:726   */\n      jump\n        /* \"TimeCapsule.sol\":284:576  function createCapsule(uint256 _unlockTime) external payable {... */\n    tag_5:\n      tag_12\n      tag_23\n      calldatasize\n      0x04\n      tag_14\n      jump\t// in\n    tag_23:\n      tag_24\n      jump\t// in\n        /* \"TimeCapsule.sol\":584:919  function withdrawCapsule(uint256 _id) external {... */\n    tag_15:\n        /* \"TimeCapsule.sol\":642:661  Capsule storage cap */\n      0x00\n        /* \"TimeCapsule.sol\":664:677  capsules[_id] */\n      dup2\n      dup2\n      mstore\n      0x20\n      dup2\n      swap1\n      mstore\n      0x40\n      swap1\n      keccak256\n        /* \"TimeCapsule.sol\":710:719  cap.owner */\n      dup1\n      sload\n      sub(shl(0xa0, 0x01), 0x01)\n      and\n        /* \"TimeCapsule.sol\":696:706  msg.sender */\n      caller\n        /* \"TimeCapsule.sol\":696:719  msg.sender == cap.owner */\n      eq\n        /* \"TimeCapsule.sol\":688:733  require(msg.sender == cap.owner, \"Not owner\") */\n      tag_26\n      jumpi\n      mload(0x40)\n      shl(0xe5, 0x461bcd)\n      dup2\n      mstore\n        /* \"#utility.yul\":933:935   */\n      0x20\n        /* \"TimeCapsule.sol\":688:733  require(msg.sender == cap.owner, \"Not owner\") */\n      0x04\n      dup3\n      add\n        /* \"#utility.yul\":915:936   */\n      mstore\n        /* \"#utility.yul\":972:973   */\n      0x09\n        /* \"#utility.yul\":952:970   */\n      0x24\n      dup3\n      add\n        /* \"#utility.yul\":945:974   */\n      mstore\n      shl(0xb9, 0x2737ba1037bbb732b9)\n        /* \"#utility.yul\":990:1008   */\n      0x44\n      dup3\n      add\n        /* \"#utility.yul\":983:1022   */\n      mstore\n        /* \"#utility.yul\":1039:1057   */\n      0x64\n      add\n        /* \"TimeCapsule.sol\":688:733  require(msg.sender == cap.owner, \"Not owner\") */\n    tag_27:\n      mload(0x40)\n      dup1\n      swap2\n      sub\n      swap1\n      revert\n    tag_26:\n        /* \"TimeCapsule.sol\":771:774  cap */\n      dup1\n        /* \"TimeCapsule.sol\":771:785  cap.unlockTime */\n      0x01\n      add\n      sload\n        /* \"TimeCapsule.sol\":752:767  block.timestamp */\n      timestamp\n        /* \"TimeCapsule.sol\":752:785  block.timestamp >= cap.unlockTime */\n      lt\n      iszero\n        /* \"TimeCapsule.sol\":744:799  require(block.timestamp >= cap.unlockTime, \"Too early\") */\n      tag_29\n      jumpi\n      mload(0x40)\n      shl(0xe5, 0x461bcd)\n      dup2\n      mstore\n        /* \"#utility.yul\":1270:1272   */\n      0x20\n        /* \"TimeCapsule.sol\":744:799  require(block.timestamp >= cap.unlockTime, \"Too early\") */\n      0x04\n      dup3\n      add\n        /* \"#utility.yul\":1252:1273   */\n      mstore\n        /* \"#utility.yul\":1309:1310   */\n      0x09\n        /* \"#utility.yul\":1289:1307   */\n      0x24\n      dup3\n      add\n        /* \"#utility.yul\":1282:1311   */\n      mstore\n      shl(0xb8, 0x546f6f206561726c79)\n        /* \"#utility.yul\":1327:1345   */\n      0x44\n      dup3\n      add\n        /* \"#utility.yul\":1320:1359   */\n      mstore\n        /* \"#utility.yul\":1376:1394   */\n      0x64\n      add\n        /* \"TimeCapsule.sol\":744:799  require(block.timestamp >= cap.unlockTime, \"Too early\") */\n      tag_27\n        /* \"#utility.yul\":1068:1400   */\n      jump\n        /* \"TimeCapsule.sol\":744:799  require(block.timestamp >= cap.unlockTime, \"Too early\") */\n    tag_29:\n        /* \"TimeCapsule.sol\":829:839  cap.amount */\n      0x02\n      dup2\n      add\n      dup1\n      sload\n        /* \"TimeCapsule.sol\":812:826  uint256 amount */\n      0x00\n        /* \"TimeCapsule.sol\":850:864  cap.amount = 0 */\n      swap2\n      dup3\n      swap1\n      sstore\n        /* \"TimeCapsule.sol\":875:911  payable(msg.sender).transfer(amount) */\n      mload(0x40)\n        /* \"TimeCapsule.sol\":829:839  cap.amount */\n      swap1\n      swap2\n        /* \"TimeCapsule.sol\":883:893  msg.sender */\n      caller\n      swap2\n        /* \"TimeCapsule.sol\":875:911  payable(msg.sender).transfer(amount) */\n      dup4\n      iszero\n      0x08fc\n      mul\n      swap2\n        /* \"TimeCapsule.sol\":829:839  cap.amount */\n      dup5\n      swap2\n        /* \"TimeCapsule.sol\":875:911  payable(msg.sender).transfer(amount) */\n      swap1\n      dup2\n        /* \"TimeCapsule.sol\":812:826  uint256 amount */\n      dup2\n        /* \"TimeCapsule.sol\":875:911  payable(msg.sender).transfer(amount) */\n      dup2\n        /* \"TimeCapsule.sol\":829:839  cap.amount */\n      dup6\n        /* \"TimeCapsule.sol\":883:893  msg.sender */\n      dup9\n        /* \"TimeCapsule.sol\":875:911  payable(msg.sender).transfer(amount) */\n      dup9\n      call\n      swap4\n      pop\n      pop\n      pop\n      pop\n      iszero\n      dup1\n      iszero\n      tag_33\n      jumpi\n      returndatasize\n      0x00\n      dup1\n      returndatacopy\n      revert(0x00, returndatasize)\n    tag_33:\n      pop\n        /* \"TimeCapsule.sol\":631:919  {... */\n      pop\n      pop\n        /* \"TimeCapsule.sol\":584:919  function withdrawCapsule(uint256 _id) external {... */\n      pop\n      jump\t// out\n        /* \"TimeCapsule.sol\":284:576  function createCapsule(uint256 _unlockTime) external payable {... */\n    tag_24:\n        /* \"TimeCapsule.sol\":376:377  0 */\n      0x00\n        /* \"TimeCapsule.sol\":364:373  msg.value */\n      callvalue\n        /* \"TimeCapsule.sol\":364:377  msg.value > 0 */\n      gt\n        /* \"TimeCapsule.sol\":356:390  require(msg.value > 0, \"Send ETH\") */\n      tag_35\n      jumpi\n      mload(0x40)\n      shl(0xe5, 0x461bcd)\n      dup2\n      mstore\n        /* \"#utility.yul\":1607:1609   */\n      0x20\n        /* \"TimeCapsule.sol\":356:390  require(msg.value > 0, \"Send ETH\") */\n      0x04\n      dup3\n      add\n        /* \"#utility.yul\":1589:1610   */\n      mstore\n        /* \"#utility.yul\":1646:1647   */\n      0x08\n        /* \"#utility.yul\":1626:1644   */\n      0x24\n      dup3\n      add\n        /* \"#utility.yul\":1619:1648   */\n      mstore\n      shl(0xc3, 0x0a6cadcc8408aa89)\n        /* \"#utility.yul\":1664:1682   */\n      0x44\n      dup3\n      add\n        /* \"#utility.yul\":1657:1695   */\n      mstore\n        /* \"#utility.yul\":1712:1730   */\n      0x64\n      add\n        /* \"TimeCapsule.sol\":356:390  require(msg.value > 0, \"Send ETH\") */\n      tag_27\n        /* \"#utility.yul\":1405:1736   */\n      jump\n        /* \"TimeCapsule.sol\":356:390  require(msg.value > 0, \"Send ETH\") */\n    tag_35:\n        /* \"TimeCapsule.sol\":423:438  block.timestamp */\n      timestamp\n        /* \"TimeCapsule.sol\":409:420  _unlockTime */\n      dup2\n        /* \"TimeCapsule.sol\":409:438  _unlockTime > block.timestamp */\n      gt\n        /* \"TimeCapsule.sol\":401:462  require(_unlockTime > block.timestamp, \"Time must be future\") */\n      tag_38\n      jumpi\n      mload(0x40)\n      shl(0xe5, 0x461bcd)\n      dup2\n      mstore\n        /* \"#utility.yul\":1943:1945   */\n      0x20\n        /* \"TimeCapsule.sol\":401:462  require(_unlockTime > block.timestamp, \"Time must be future\") */\n      0x04\n      dup3\n      add\n        /* \"#utility.yul\":1925:1946   */\n      mstore\n        /* \"#utility.yul\":1982:1984   */\n      0x13\n        /* \"#utility.yul\":1962:1980   */\n      0x24\n      dup3\n      add\n        /* \"#utility.yul\":1955:1985   */\n      mstore\n      shl(0x68, 0x54696d65206d75737420626520667574757265)\n        /* \"#utility.yul\":2001:2019   */\n      0x44\n      dup3\n      add\n        /* \"#utility.yul\":1994:2043   */\n      mstore\n        /* \"#utility.yul\":2060:2078   */\n      0x64\n      add\n        /* \"TimeCapsule.sol\":401:462  require(_unlockTime > block.timestamp, \"Time must be future\") */\n      tag_27\n        /* \"#utility.yul\":1741:2084   */\n      jump\n        /* \"TimeCapsule.sol\":401:462  require(_unlockTime > block.timestamp, \"Time must be future\") */\n    tag_38:\n        /* \"TimeCapsule.sol\":500:543  Capsule(msg.sender, _unlockTime, msg.value) */\n      0x40\n      dup1\n      mload\n      0x60\n      dup2\n      add\n      dup3\n      mstore\n        /* \"TimeCapsule.sol\":508:518  msg.sender */\n      caller\n        /* \"TimeCapsule.sol\":500:543  Capsule(msg.sender, _unlockTime, msg.value) */\n      dup2\n      mstore\n      0x20\n      dup1\n      dup3\n      add\n      dup5\n      dup2\n      mstore\n        /* \"TimeCapsule.sol\":533:542  msg.value */\n      callvalue\n        /* \"TimeCapsule.sol\":500:543  Capsule(msg.sender, _unlockTime, msg.value) */\n      dup4\n      dup6\n      add\n      swap1\n      dup2\n      mstore\n        /* \"TimeCapsule.sol\":484:496  capsuleCount */\n      0x01\n      dup1\n      sload\n      0x00\n        /* \"TimeCapsule.sol\":475:497  capsules[capsuleCount] */\n      swap1\n      dup2\n      mstore\n      swap4\n      dup5\n      swap1\n      mstore\n      swap5\n      dup4\n      keccak256\n        /* \"TimeCapsule.sol\":475:543  capsules[capsuleCount] = Capsule(msg.sender, _unlockTime, msg.value) */\n      swap4\n      mload\n      dup5\n      sload\n      not(sub(shl(0xa0, 0x01), 0x01))\n      and\n      sub(shl(0xa0, 0x01), 0x01)\n      swap1\n      swap2\n      and\n      or\n      dup5\n      sstore\n      swap1\n      mload\n      dup4\n      dup6\n      add\n      sstore\n      mload\n      0x02\n      swap1\n      swap3\n      add\n      swap2\n      swap1\n      swap2\n      sstore\n        /* \"TimeCapsule.sol\":554:568  capsuleCount++ */\n      dup2\n      sload\n      swap2\n        /* \"TimeCapsule.sol\":484:496  capsuleCount */\n      swap1\n        /* \"TimeCapsule.sol\":554:568  capsuleCount++ */\n      tag_41\n      dup4\n      tag_42\n      jump\t// in\n    tag_41:\n      swap2\n      swap1\n      pop\n      sstore\n      pop\n        /* \"TimeCapsule.sol\":284:576  function createCapsule(uint256 _unlockTime) external payable {... */\n      pop\n      jump\t// out\n        /* \"#utility.yul\":196:376   */\n    tag_14:\n        /* \"#utility.yul\":255:261   */\n      0x00\n        /* \"#utility.yul\":308:310   */\n      0x20\n        /* \"#utility.yul\":296:305   */\n      dup3\n        /* \"#utility.yul\":287:294   */\n      dup5\n        /* \"#utility.yul\":283:306   */\n      sub\n        /* \"#utility.yul\":279:311   */\n      slt\n        /* \"#utility.yul\":276:328   */\n      iszero\n      tag_46\n      jumpi\n        /* \"#utility.yul\":324:325   */\n      0x00\n        /* \"#utility.yul\":321:322   */\n      dup1\n        /* \"#utility.yul\":314:326   */\n      revert\n        /* \"#utility.yul\":276:328   */\n    tag_46:\n      pop\n        /* \"#utility.yul\":347:370   */\n      calldataload\n      swap2\n        /* \"#utility.yul\":196:376   */\n      swap1\n      pop\n      jump\t// out\n        /* \"#utility.yul\":2089:2321   */\n    tag_42:\n        /* \"#utility.yul\":2128:2131   */\n      0x00\n        /* \"#utility.yul\":2149:2166   */\n      0x01\n      dup3\n      add\n        /* \"#utility.yul\":2146:2286   */\n      tag_53\n      jumpi\n        /* \"#utility.yul\":2208:2218   */\n      0x4e487b71\n        /* \"#utility.yul\":2203:2206   */\n      0xe0\n        /* \"#utility.yul\":2199:2219   */\n      shl\n        /* \"#utility.yul\":2196:2197   */\n      0x00\n        /* \"#utility.yul\":2189:2220   */\n      mstore\n        /* \"#utility.yul\":2243:2247   */\n      0x11\n        /* \"#utility.yul\":2240:2241   */\n      0x04\n        /* \"#utility.yul\":2233:2248   */\n      mstore\n        /* \"#utility.yul\":2271:2275   */\n      0x24\n        /* \"#utility.yul\":2268:2269   */\n      0x00\n        /* \"#utility.yul\":2261:2276   */\n      revert\n        /* \"#utility.yul\":2146:2286   */\n    tag_53:\n      pop\n        /* \"#utility.yul\":2313:2314   */\n      0x01\n        /* \"#utility.yul\":2302:2315   */\n      add\n      swap1\n        /* \"#utility.yul\":2089:2321   */\n      jump\t// out\n\n    auxdata: 0xa26469706673582212201cffb3ce40875dd8bbcbaade66c1af294ef70c7033579e57e4c5a3c1634a15af64736f6c63430008140033\n}\n",
				"bytecode": {
					"linkReferences": {},
					"object": "608060405234801561000f575f80fd5b506103378061001d5f395ff3fe60806040526004361061003e575f3560e01c806305dc03941461004257806319abdada1461006a578063517bbf461461008b578063fec01afe146100f4575b5f80fd5b34801561004d575f80fd5b5061005760015481565b6040519081526020015b60405180910390f35b348015610075575f80fd5b506100896100843660046102c6565b610107565b005b348015610096575f80fd5b506100cf6100a53660046102c6565b5f602081905290815260409020805460018201546002909201546001600160a01b03909116919083565b604080516001600160a01b039094168452602084019290925290820152606001610061565b6100896101023660046102c6565b6101db565b5f81815260208190526040902080546001600160a01b0316331461015e5760405162461bcd60e51b81526020600482015260096024820152682737ba1037bbb732b960b91b60448201526064015b60405180910390fd5b806001015442101561019e5760405162461bcd60e51b8152602060048201526009602482015268546f6f206561726c7960b81b6044820152606401610155565b6002810180545f918290556040519091339183156108fc0291849190818181858888f193505050501580156101d5573d5f803e3d5ffd5b50505050565b5f34116102155760405162461bcd60e51b81526020600482015260086024820152670a6cadcc8408aa8960c31b6044820152606401610155565b42811161025a5760405162461bcd60e51b815260206004820152601360248201527254696d65206d7573742062652066757475726560681b6044820152606401610155565b60408051606081018252338152602080820184815234838501908152600180545f90815293849052948320935184546001600160a01b0319166001600160a01b0390911617845590518385015551600290920191909155815491906102be836102dd565b919050555050565b5f602082840312156102d6575f80fd5b5035919050565b5f600182016102fa57634e487b7160e01b5f52601160045260245ffd5b506001019056fea26469706673582212201cffb3ce40875dd8bbcbaade66c1af294ef70c7033579e57e4c5a3c1634a15af64736f6c63430008140033",
					"opcodes": "PUSH1 0x80 PUSH1 0x40 MSTORE CALLVALUE DUP1 ISZERO PUSH2 0xF JUMPI PUSH0 DUP1 REVERT JUMPDEST POP PUSH2 0x337 DUP1 PUSH2 0x1D PUSH0 CODECOPY PUSH0 RETURN INVALID PUSH1 0x80 PUSH1 0x40 MSTORE PUSH1 0x4 CALLDATASIZE LT PUSH2 0x3E JUMPI PUSH0 CALLDATALOAD PUSH1 0xE0 SHR DUP1 PUSH4 0x5DC0394 EQ PUSH2 0x42 JUMPI DUP1 PUSH4 0x19ABDADA EQ PUSH2 0x6A JUMPI DUP1 PUSH4 0x517BBF46 EQ PUSH2 0x8B JUMPI DUP1 PUSH4 0xFEC01AFE EQ PUSH2 0xF4 JUMPI JUMPDEST PUSH0 DUP1 REVERT JUMPDEST CALLVALUE DUP1 ISZERO PUSH2 0x4D JUMPI PUSH0 DUP1 REVERT JUMPDEST POP PUSH2 0x57 PUSH1 0x1 SLOAD DUP2 JUMP JUMPDEST PUSH1 0x40 MLOAD SWAP1 DUP2 MSTORE PUSH1 0x20 ADD JUMPDEST PUSH1 0x40 MLOAD DUP1 SWAP2 SUB SWAP1 RETURN JUMPDEST CALLVALUE DUP1 ISZERO PUSH2 0x75 JUMPI PUSH0 DUP1 REVERT JUMPDEST POP PUSH2 0x89 PUSH2 0x84 CALLDATASIZE PUSH1 0x4 PUSH2 0x2C6 JUMP JUMPDEST PUSH2 0x107 JUMP JUMPDEST STOP JUMPDEST CALLVALUE DUP1 ISZERO PUSH2 0x96 JUMPI PUSH0 DUP1 REVERT JUMPDEST POP PUSH2 0xCF PUSH2 0xA5 CALLDATASIZE PUSH1 0x4 PUSH2 0x2C6 JUMP JUMPDEST PUSH0 PUSH1 0x20 DUP2 SWAP1 MSTORE SWAP1 DUP2 MSTORE PUSH1 0x40 SWAP1 KECCAK256 DUP1 SLOAD PUSH1 0x1 DUP3 ADD SLOAD PUSH1 0x2 SWAP1 SWAP3 ADD SLOAD PUSH1 0x1 PUSH1 0x1 PUSH1 0xA0 SHL SUB SWAP1 SWAP2 AND SWAP2 SWAP1 DUP4 JUMP JUMPDEST PUSH1 0x40 DUP1 MLOAD PUSH1 0x1 PUSH1 0x1 PUSH1 0xA0 SHL SUB SWAP1 SWAP5 AND DUP5 MSTORE PUSH1 0x20 DUP5 ADD SWAP3 SWAP1 SWAP3 MSTORE SWAP1 DUP3 ADD MSTORE PUSH1 0x60 ADD PUSH2 0x61 JUMP JUMPDEST PUSH2 0x89 PUSH2 0x102 CALLDATASIZE PUSH1 0x4 PUSH2 0x2C6 JUMP JUMPDEST PUSH2 0x1DB JUMP JUMPDEST PUSH0 DUP2 DUP2 MSTORE PUSH1 0x20 DUP2 SWAP1 MSTORE PUSH1 0x40 SWAP1 KECCAK256 DUP1 SLOAD PUSH1 0x1 PUSH1 0x1 PUSH1 0xA0 SHL SUB AND CALLER EQ PUSH2 0x15E JUMPI PUSH1 0x40 MLOAD PUSH3 0x461BCD PUSH1 0xE5 SHL DUP2 MSTORE PUSH1 0x20 PUSH1 0x4 DUP3 ADD MSTORE PUSH1 0x9 PUSH1 0x24 DUP3 ADD MSTORE PUSH9 0x2737BA1037BBB732B9 PUSH1 0xB9 SHL PUSH1 0x44 DUP3 ADD MSTORE PUSH1 0x64 ADD JUMPDEST PUSH1 0x40 MLOAD DUP1 SWAP2 SUB SWAP1 REVERT JUMPDEST DUP1 PUSH1 0x1 ADD SLOAD TIMESTAMP LT ISZERO PUSH2 0x19E JUMPI PUSH1 0x40 MLOAD PUSH3 0x461BCD PUSH1 0xE5 SHL DUP2 MSTORE PUSH1 0x20 PUSH1 0x4 DUP3 ADD MSTORE PUSH1 0x9 PUSH1 0x24 DUP3 ADD MSTORE PUSH9 0x546F6F206561726C79 PUSH1 0xB8 SHL PUSH1 0x44 DUP3 ADD MSTORE PUSH1 0x64 ADD PUSH2 0x155 JUMP JUMPDEST PUSH1 0x2 DUP2 ADD DUP1 SLOAD PUSH0 SWAP2 DUP3 SWAP1 SSTORE PUSH1 0x40 MLOAD SWAP1 SWAP2 CALLER SWAP2 DUP4 ISZERO PUSH2 0x8FC MUL SWAP2 DUP5 SWAP2 SWAP1 DUP2 DUP2 DUP2 DUP6 DUP9 DUP9 CALL SWAP4 POP POP POP POP ISZERO DUP1 ISZERO PUSH2 0x1D5 JUMPI RETURNDATASIZE PUSH0 DUP1 RETURNDATACOPY RETURNDATASIZE PUSH0 REVERT JUMPDEST POP POP POP POP JUMP JUMPDEST PUSH0 CALLVALUE GT PUSH2 0x215 JUMPI PUSH1 0x40 MLOAD PUSH3 0x461BCD PUSH1 0xE5 SHL DUP2 MSTORE PUSH1 0x20 PUSH1 0x4 DUP3 ADD MSTORE PUSH1 0x8 PUSH1 0x24 DUP3 ADD MSTORE PUSH8 0xA6CADCC8408AA89 PUSH1 0xC3 SHL PUSH1 0x44 DUP3 ADD MSTORE PUSH1 0x64 ADD PUSH2 0x155 JUMP JUMPDEST TIMESTAMP DUP2 GT PUSH2 0x25A JUMPI PUSH1 0x40 MLOAD PUSH3 0x461BCD PUSH1 0xE5 SHL DUP2 MSTORE PUSH1 0x20 PUSH1 0x4 DUP3 ADD MSTORE PUSH1 0x13 PUSH1 0x24 DUP3 ADD MSTORE PUSH19 0x54696D65206D75737420626520667574757265 PUSH1 0x68 SHL PUSH1 0x44 DUP3 ADD MSTORE PUSH1 0x64 ADD PUSH2 0x155 JUMP JUMPDEST PUSH1 0x40 DUP1 MLOAD PUSH1 0x60 DUP2 ADD DUP3 MSTORE CALLER DUP2 MSTORE PUSH1 0x20 DUP1 DUP3 ADD DUP5 DUP2 MSTORE CALLVALUE DUP4 DUP6 ADD SWAP1 DUP2 MSTORE PUSH1 0x1 DUP1 SLOAD PUSH0 SWAP1 DUP2 MSTORE SWAP4 DUP5 SWAP1 MSTORE SWAP5 DUP4 KECCAK256 SWAP4 MLOAD DUP5 SLOAD PUSH1 0x1 PUSH1 0x1 PUSH1 0xA0 SHL SUB NOT AND PUSH1 0x1 PUSH1 0x1 PUSH1 0xA0 SHL SUB SWAP1 SWAP2 AND OR DUP5 SSTORE SWAP1 MLOAD DUP4 DUP6 ADD SSTORE MLOAD PUSH1 0x2 SWAP1 SWAP3 ADD SWAP2 SWAP1 SWAP2 SSTORE DUP2 SLOAD SWAP2 SWAP1 PUSH2 0x2BE DUP4 PUSH2 0x2DD JUMP JUMPDEST SWAP2 SWAP1 POP SSTORE POP POP JUMP JUMPDEST PUSH0 PUSH1 0x20 DUP3 DUP5 SUB SLT ISZERO PUSH2 0x2D6 JUMPI PUSH0 DUP1 REVERT JUMPDEST POP CALLDATALOAD SWAP2 SWAP1 POP JUMP JUMPDEST PUSH0 PUSH1 0x1 DUP3 ADD PUSH2 0x2FA JUMPI PUSH4 0x4E487B71 PUSH1 0xE0 SHL PUSH0 MSTORE PUSH1 0x11 PUSH1 0x4 MSTORE PUSH1 0x24 PUSH0 REVERT JUMPDEST POP PUSH1 0x1 ADD SWAP1 JUMP INVALID LOG2 PUSH5 0x6970667358 0x22 SLT KECCAK256 SHR SELFDESTRUCT 0xB3 0xCE BLOCKHASH DUP8 0x5D 0xD8 0xBB 0xCB 0xAA 0xDE PUSH7 0xC1AF294EF70C70 CALLER JUMPI SWAP15 JUMPI 0xE4 0xC5 LOG3 0xC1 PUSH4 0x4A15AF64 PUSH20 0x6F6C634300081400330000000000000000000000 "
				},
				"gasEstimates": {
					"creation": {
						"codeDepositCost": "164600",
						"executionCost": "206",
						"totalCost": "164806"
					},
					"external": {
						"capsuleCount()": "2261",
						"capsules(uint256)": "6777",
						"createCapsule(uint256)": "95327",
						"withdrawCapsule(uint256)": "infinite"
					}
				},
				"methodIdentifiers": {
					"capsuleCount()": "05dc0394",
					"capsules(uint256)": "517bbf46",
					"createCapsule(uint256)": "fec01afe",
					"withdrawCapsule(uint256)": "19abdada"
				}
			},
			"storageLayout": {
				"storage": [
					{
						"astId": 13,
						"contract": "TimeCapsule.sol:TimeCapsule",
						"label": "capsules",
						"offset": 0,
						"slot": "0",
						"type": "t_mapping(t_uint256,t_struct(Capsule)8_storage)"
					},
					{
						"astId": 15,
						"contract": "TimeCapsule.sol:TimeCapsule",
						"label": "capsuleCount",
						"offset": 0,
						"slot": "1",
						"type": "t_uint256"
					}
				],
				"types": {
					"t_address": {
						"encoding": "inplace",
						"label": "address",
						"numberOfBytes": "20"
					},
					"t_mapping(t_uint256,t_struct(Capsule)8_storage)": {
						"encoding": "mapping",
						"key": "t_uint256",
						"label": "mapping(uint256 => struct TimeCapsule.Capsule)",
						"numberOfBytes": "32",
						"value": "t_struct(Capsule)8_storage"
					},
					"t_struct(Capsule)8_storage": {
						"encoding": "inplace",
						"label": "struct TimeCapsule.Capsule",
						"members": [
							{
								"astId": 3,
								"contract": "TimeCapsule.sol:TimeCapsule",
								"label": "owner",
								"offset": 0,
								"slot": "0",
								"type": "t_address"
							},
							{
								"astId": 5,
								"contract": "TimeCapsule.sol:TimeCapsule",
								"label": "unlockTime",
								"offset": 0,
								"slot": "1",
								"type": "t_uint256"
							},
							{
								"astId": 7,
								"contract": "TimeCapsule.sol:TimeCapsule",
								"label": "amount",
								"offset": 0,
								"slot": "2",
								"type": "t_uint256"
							}
						],
						"numberOfBytes": "96"
					},
					"t_uint256": {
						"encoding": "inplace",
						"label": "uint256",
						"numberOfBytes": "32"
					}
				}
			},
			"userdoc": {
				"kind": "user",
				"methods": {},
				"version": 1
			}
		}
	}
}