{
	"DonationTracker.sol": {
		"DonationTracker": {
			"abi": [
				{
					"anonymous": false,
					"inputs": [
						{
							"indexed": true,
							"internalType": "uint256",
							"name": "causeId",
							"type": "uint256"
						},
						{
							"indexed": false,
							"internalType": "string",
							"name": "name",
							"type": "string"
						},
						{
							"indexed": true,
							"internalType": "address",
							"name": "beneficiary",
							"type": "address"
						}
					],
					"name": "CauseRegistered",
					"type": "event"
				},
				{
					"anonymous": false,
					"inputs": [
						{
							"indexed": true,
							"internalType": "uint256",
							"name": "causeId",
							"type": "uint256"
						},
						{
							"indexed": true,
							"internalType": "address",
							"name": "from",
							"type": "address"
						},
						{
							"indexed": false,
							"internalType": "uint256",
							"name": "amount",
							"type": "uint256"
						}
					],
					"name": "Donated",
					"type": "event"
				},
				{
					"inputs": [],
					"name": "causeCount",
					"outputs": [
						{
							"internalType": "uint256",
							"name": "",
							"type": "uint256"
						}
					],
					"stateMutability": "view",
					"type": "function"
				},
				{
					"inputs": [
						{
							"internalType": "uint256",
							"name": "",
							"type": "uint256"
						}
					],
					"name": "causes",
					"outputs": [
						{
							"internalType": "string",
							"name": "name",
							"type": "string"
						},
						{
							"internalType": "address payable",
							"name": "beneficiary",
							"type": "address"
						},
						{
							"internalType": "uint256",
							"name": "totalReceived",
							"type": "uint256"
						},
						{
							"internalType": "bool",
							"name": "exists",
							"type": "bool"
						}
					],
					"stateMutability": "view",
					"type": "function"
				},
				{
					"inputs": [
						{
							"internalType": "uint256",
							"name": "causeId",
							"type": "uint256"
						}
					],
					"name": "donate",
					"outputs": [],
					"stateMutability": "payable",
					"type": "function"
				},
				{
					"inputs": [
						{
							"internalType": "string",
							"name": "name",
							"type": "string"
						},
						{
							"internalType": "address payable",
							"name": "beneficiary",
							"type": "address"
						}
					],
					"name": "registerCause",
					"outputs": [
						{
							"internalType": "uint256",
							"name": "id",
							"type": "uint256"
						}
					],
					"stateMutability": "nonpayable",
					"type": "function"
				}
			],
			"devdoc": {
				"kind": "dev",
				"methods": {},
				"version": 1
			},
			"evm": {
				"assembly": "    /* \"DonationTracker.sol\":61:1250  contract DonationTracker {... */\n  mstore(0x40, 0x80)\n  callvalue\n  dup1\n  iszero\n  tag_1\n  jumpi\n  0x00\n  dup1\n  revert\ntag_1:\n  pop\n  dataSize(sub_0)\n  dup1\n  dataOffset(sub_0)\n  0x00\n  codecopy\n  0x00\n  return\nstop\n\nsub_0: assembly {\n        /* \"DonationTracker.sol\":61:1250  contract DonationTracker {... */\n      mstore(0x40, 0x80)\n      jumpi(tag_1, lt(calldatasize, 0x04))\n      shr(0xe0, calldataload(0x00))\n      dup1\n      0x538a942a\n      eq\n      tag_2\n      jumpi\n      dup1\n      0x9a79edec\n      eq\n      tag_3\n      jumpi\n      dup1\n      0xe18341fa\n      eq\n      tag_4\n      jumpi\n      dup1\n      0xf14faf6f\n      eq\n      tag_5\n      jumpi\n    tag_1:\n      0x00\n      dup1\n      revert\n        /* \"DonationTracker.sol\":375:414  mapping(uint256 => Cause) public causes */\n    tag_2:\n      callvalue\n      dup1\n      iszero\n      tag_6\n      jumpi\n      0x00\n      dup1\n      revert\n    tag_6:\n      pop\n      tag_7\n      tag_8\n      calldatasize\n      0x04\n      tag_9\n      jump\t// in\n    tag_8:\n      tag_10\n      jump\t// in\n    tag_7:\n      mload(0x40)\n      tag_11\n      swap5\n      swap4\n      swap3\n      swap2\n      swap1\n      tag_12\n      jump\t// in\n    tag_11:\n      mload(0x40)\n      dup1\n      swap2\n      sub\n      swap1\n      return\n        /* \"DonationTracker.sol\":421:446  uint256 public causeCount */\n    tag_3:\n      callvalue\n      dup1\n      iszero\n      tag_13\n      jumpi\n      0x00\n      dup1\n      revert\n    tag_13:\n      pop\n      tag_14\n      sload(0x01)\n      dup2\n      jump\n    tag_14:\n      mload(0x40)\n        /* \"#utility.yul\":1242:1267   */\n      swap1\n      dup2\n      mstore\n        /* \"#utility.yul\":1230:1232   */\n      0x20\n        /* \"#utility.yul\":1215:1233   */\n      add\n        /* \"DonationTracker.sol\":421:446  uint256 public causeCount */\n      tag_11\n        /* \"#utility.yul\":1096:1273   */\n      jump\n        /* \"DonationTracker.sol\":455:770  function registerCause(string calldata name, address payable beneficiary) external returns (uint256 id) {... */\n    tag_4:\n      callvalue\n      dup1\n      iszero\n      tag_18\n      jumpi\n      0x00\n      dup1\n      revert\n    tag_18:\n      pop\n      tag_14\n      tag_20\n      calldatasize\n      0x04\n      tag_21\n      jump\t// in\n    tag_20:\n      tag_22\n      jump\t// in\n        /* \"DonationTracker.sol\":861:1247  function donate(uint256 causeId) external payable {... */\n    tag_5:\n      tag_24\n      tag_25\n      calldatasize\n      0x04\n      tag_9\n      jump\t// in\n    tag_25:\n      tag_26\n      jump\t// in\n    tag_24:\n      stop\n        /* \"DonationTracker.sol\":375:414  mapping(uint256 => Cause) public causes */\n    tag_10:\n      0x00\n      0x20\n      dup2\n      swap1\n      mstore\n      swap1\n      dup2\n      mstore\n      0x40\n      swap1\n      keccak256\n      dup1\n      sload\n      dup2\n      swap1\n      tag_27\n      swap1\n      tag_28\n      jump\t// in\n    tag_27:\n      dup1\n      0x1f\n      add\n      0x20\n      dup1\n      swap2\n      div\n      mul\n      0x20\n      add\n      mload(0x40)\n      swap1\n      dup2\n      add\n      0x40\n      mstore\n      dup1\n      swap3\n      swap2\n      swap1\n      dup2\n      dup2\n      mstore\n      0x20\n      add\n      dup3\n      dup1\n      sload\n      tag_29\n      swap1\n      tag_28\n      jump\t// in\n    tag_29:\n      dup1\n      iszero\n      tag_30\n      jumpi\n      dup1\n      0x1f\n      lt\n      tag_31\n      jumpi\n      0x0100\n      dup1\n      dup4\n      sload\n      div\n      mul\n      dup4\n      mstore\n      swap2\n      0x20\n      add\n      swap2\n      jump(tag_30)\n    tag_31:\n      dup3\n      add\n      swap2\n      swap1\n      0x00\n      mstore\n      keccak256(0x00, 0x20)\n      swap1\n    tag_32:\n      dup2\n      sload\n      dup2\n      mstore\n      swap1\n      0x01\n      add\n      swap1\n      0x20\n      add\n      dup1\n      dup4\n      gt\n      tag_32\n      jumpi\n      dup3\n      swap1\n      sub\n      0x1f\n      and\n      dup3\n      add\n      swap2\n    tag_30:\n      pop\n      pop\n      pop\n      pop\n      0x01\n      dup4\n      add\n      sload\n      0x02\n      dup5\n      add\n      sload\n      0x03\n      swap1\n      swap5\n      add\n      sload\n      swap3\n      swap4\n      sub(shl(0xa0, 0x01), 0x01)\n      swap1\n      swap2\n      and\n      swap3\n      swap1\n      swap2\n      pop\n      0xff\n      and\n      dup5\n      jump\t// out\n        /* \"DonationTracker.sol\":455:770  function registerCause(string calldata name, address payable beneficiary) external returns (uint256 id) {... */\n    tag_22:\n        /* \"DonationTracker.sol\":547:557  uint256 id */\n      0x00\n      sub(shl(0xa0, 0x01), 0x01)\n        /* \"DonationTracker.sol\":578:603  beneficiary != address(0) */\n      dup3\n      and\n        /* \"DonationTracker.sol\":570:623  require(beneficiary != address(0), \"bad beneficiary\") */\n      tag_34\n      jumpi\n      mload(0x40)\n      shl(0xe5, 0x461bcd)\n      dup2\n      mstore\n        /* \"#utility.yul\":2650:2652   */\n      0x20\n        /* \"DonationTracker.sol\":570:623  require(beneficiary != address(0), \"bad beneficiary\") */\n      0x04\n      dup3\n      add\n        /* \"#utility.yul\":2632:2653   */\n      mstore\n        /* \"#utility.yul\":2689:2691   */\n      0x0f\n        /* \"#utility.yul\":2669:2687   */\n      0x24\n      dup3\n      add\n        /* \"#utility.yul\":2662:2692   */\n      mstore\n      shl(0x88, 0x6261642062656e6566696369617279)\n        /* \"#utility.yul\":2708:2726   */\n      0x44\n      dup3\n      add\n        /* \"#utility.yul\":2701:2746   */\n      mstore\n        /* \"#utility.yul\":2763:2781   */\n      0x64\n      add\n        /* \"DonationTracker.sol\":570:623  require(beneficiary != address(0), \"bad beneficiary\") */\n    tag_35:\n      mload(0x40)\n      dup1\n      swap2\n      sub\n      swap1\n      revert\n    tag_34:\n        /* \"DonationTracker.sol\":639:649  causeCount */\n      0x01\n        /* \"DonationTracker.sol\":639:651  causeCount++ */\n      dup1\n      sload\n      swap1\n        /* \"DonationTracker.sol\":639:649  causeCount */\n      0x00\n        /* \"DonationTracker.sol\":639:651  causeCount++ */\n      tag_37\n      dup4\n      tag_38\n      jump\t// in\n    tag_37:\n      swap1\n      swap2\n      sstore\n      pop\n        /* \"DonationTracker.sol\":675:708  Cause(name, beneficiary, 0, true) */\n      0x40\n      dup1\n      mload\n      0xa0\n      0x20\n      0x1f\n      dup9\n      add\n      dup2\n      swap1\n      div\n      mul\n      dup3\n      add\n      dup2\n      add\n      swap1\n      swap3\n      mstore\n      0x80\n      dup2\n      add\n      dup7\n      dup2\n      mstore\n        /* \"DonationTracker.sol\":634:651  id = causeCount++ */\n      swap3\n      swap4\n      pop\n        /* \"DonationTracker.sol\":675:708  Cause(name, beneficiary, 0, true) */\n      swap2\n      dup3\n      swap2\n        /* \"DonationTracker.sol\":681:685  name */\n      dup8\n      swap1\n      dup8\n      swap1\n      dup2\n      swap1\n        /* \"DonationTracker.sol\":675:708  Cause(name, beneficiary, 0, true) */\n      dup6\n      add\n        /* \"DonationTracker.sol\":681:685  name */\n      dup4\n      dup3\n      dup1\n      dup3\n        /* \"DonationTracker.sol\":675:708  Cause(name, beneficiary, 0, true) */\n      dup5\n      calldatacopy\n      0x00\n      swap3\n      add\n      dup3\n      swap1\n      mstore\n      pop\n      swap4\n      dup6\n      mstore\n      pop\n      pop\n      pop\n      sub(shl(0xa0, 0x01), 0x01)\n      dup6\n      and\n      0x20\n      dup1\n      dup5\n      add\n      swap2\n      swap1\n      swap2\n      mstore\n      0x40\n      dup1\n      dup5\n      add\n      dup4\n      swap1\n      mstore\n        /* \"DonationTracker.sol\":703:707  true */\n      0x01\n        /* \"DonationTracker.sol\":675:708  Cause(name, beneficiary, 0, true) */\n      0x60\n      swap1\n      swap5\n      add\n      swap4\n      swap1\n      swap4\n      mstore\n        /* \"DonationTracker.sol\":662:672  causes[id] */\n      dup5\n      dup3\n      mstore\n      dup2\n      swap1\n      mstore\n      keccak256\n        /* \"DonationTracker.sol\":662:708  causes[id] = Cause(name, beneficiary, 0, true) */\n      dup2\n      mload\n        /* \"DonationTracker.sol\":662:672  causes[id] */\n      dup2\n      swap1\n        /* \"DonationTracker.sol\":662:708  causes[id] = Cause(name, beneficiary, 0, true) */\n      tag_39\n      swap1\n        /* \"DonationTracker.sol\":662:672  causes[id] */\n      dup3\n        /* \"DonationTracker.sol\":662:708  causes[id] = Cause(name, beneficiary, 0, true) */\n      tag_40\n      jump\t// in\n    tag_39:\n      pop\n      0x20\n      dup3\n      add\n      mload\n      0x01\n      dup3\n      add\n      dup1\n      sload\n      not(sub(shl(0xa0, 0x01), 0x01))\n      and\n      sub(shl(0xa0, 0x01), 0x01)\n      swap3\n      dup4\n      and\n      or\n      swap1\n      sstore\n      0x40\n      dup1\n      dup5\n      add\n      mload\n      0x02\n      dup5\n      add\n      sstore\n      0x60\n      swap1\n      swap4\n      add\n      mload\n      0x03\n      swap1\n      swap3\n      add\n      dup1\n      sload\n      not(0xff)\n      and\n      swap3\n      iszero\n      iszero\n      swap3\n      swap1\n      swap3\n      or\n      swap1\n      swap2\n      sstore\n        /* \"DonationTracker.sol\":724:762  CauseRegistered(id, name, beneficiary) */\n      swap1\n      mload\n      swap1\n      dup4\n      and\n      swap1\n        /* \"DonationTracker.sol\":740:742  id */\n      dup3\n      swap1\n        /* \"DonationTracker.sol\":724:762  CauseRegistered(id, name, beneficiary) */\n      0x5330bd6baa641d1d44ad80ff2641f1be3e281b434bf703d5042b55ffc1bc9f98\n      swap1\n      tag_41\n      swap1\n        /* \"DonationTracker.sol\":744:748  name */\n      dup9\n      swap1\n      dup9\n      swap1\n        /* \"DonationTracker.sol\":724:762  CauseRegistered(id, name, beneficiary) */\n      tag_42\n      jump\t// in\n    tag_41:\n      mload(0x40)\n      dup1\n      swap2\n      sub\n      swap1\n      log3\n        /* \"DonationTracker.sol\":455:770  function registerCause(string calldata name, address payable beneficiary) external returns (uint256 id) {... */\n      swap4\n      swap3\n      pop\n      pop\n      pop\n      jump\t// out\n        /* \"DonationTracker.sol\":861:1247  function donate(uint256 causeId) external payable {... */\n    tag_26:\n        /* \"DonationTracker.sol\":922:937  Cause storage c */\n      0x00\n        /* \"DonationTracker.sol\":940:955  causes[causeId] */\n      dup2\n      dup2\n      mstore\n      0x20\n      dup2\n      swap1\n      mstore\n      0x40\n      swap1\n      keccak256\n        /* \"DonationTracker.sol\":974:982  c.exists */\n      0x03\n      dup2\n      add\n      sload\n      0xff\n      and\n        /* \"DonationTracker.sol\":966:995  require(c.exists, \"no cause\") */\n      tag_44\n      jumpi\n      mload(0x40)\n      shl(0xe5, 0x461bcd)\n      dup2\n      mstore\n        /* \"#utility.yul\":5997:5999   */\n      0x20\n        /* \"DonationTracker.sol\":966:995  require(c.exists, \"no cause\") */\n      0x04\n      dup3\n      add\n        /* \"#utility.yul\":5979:6000   */\n      mstore\n        /* \"#utility.yul\":6036:6037   */\n      0x08\n        /* \"#utility.yul\":6016:6034   */\n      0x24\n      dup3\n      add\n        /* \"#utility.yul\":6009:6038   */\n      mstore\n      shl(0xc0, 0x6e6f206361757365)\n        /* \"#utility.yul\":6054:6072   */\n      0x44\n      dup3\n      add\n        /* \"#utility.yul\":6047:6085   */\n      mstore\n        /* \"#utility.yul\":6102:6120   */\n      0x64\n      add\n        /* \"DonationTracker.sol\":966:995  require(c.exists, \"no cause\") */\n      tag_35\n        /* \"#utility.yul\":5795:6126   */\n      jump\n        /* \"DonationTracker.sol\":966:995  require(c.exists, \"no cause\") */\n    tag_44:\n        /* \"DonationTracker.sol\":1026:1027  0 */\n      0x00\n        /* \"DonationTracker.sol\":1014:1023  msg.value */\n      callvalue\n        /* \"DonationTracker.sol\":1014:1027  msg.value > 0 */\n      gt\n        /* \"DonationTracker.sol\":1006:1040  require(msg.value > 0, \"no value\") */\n      tag_47\n      jumpi\n      mload(0x40)\n      shl(0xe5, 0x461bcd)\n      dup2\n      mstore\n        /* \"#utility.yul\":6333:6335   */\n      0x20\n        /* \"DonationTracker.sol\":1006:1040  require(msg.value > 0, \"no value\") */\n      0x04\n      dup3\n      add\n        /* \"#utility.yul\":6315:6336   */\n      mstore\n        /* \"#utility.yul\":6372:6373   */\n      0x08\n        /* \"#utility.yul\":6352:6370   */\n      0x24\n      dup3\n      add\n        /* \"#utility.yul\":6345:6374   */\n      mstore\n      shl(0xc0, 0x6e6f2076616c7565)\n        /* \"#utility.yul\":6390:6408   */\n      0x44\n      dup3\n      add\n        /* \"#utility.yul\":6383:6421   */\n      mstore\n        /* \"#utility.yul\":6438:6456   */\n      0x64\n      add\n        /* \"DonationTracker.sol\":1006:1040  require(msg.value > 0, \"no value\") */\n      tag_35\n        /* \"#utility.yul\":6131:6462   */\n      jump\n        /* \"DonationTracker.sol\":1006:1040  require(msg.value > 0, \"no value\") */\n    tag_47:\n        /* \"DonationTracker.sol\":1070:1079  msg.value */\n      callvalue\n        /* \"DonationTracker.sol\":1051:1052  c */\n      dup2\n        /* \"DonationTracker.sol\":1051:1066  c.totalReceived */\n      0x02\n      add\n      0x00\n        /* \"DonationTracker.sol\":1051:1079  c.totalReceived += msg.value */\n      dup3\n      dup3\n      sload\n      tag_50\n      swap2\n      swap1\n      tag_51\n      jump\t// in\n    tag_50:\n      swap1\n      swap2\n      sstore\n      pop\n      pop\n        /* \"DonationTracker.sol\":1104:1117  c.beneficiary */\n      0x01\n      dup2\n      add\n      sload\n        /* \"DonationTracker.sol\":1104:1144  c.beneficiary.call{value: msg.value}(\"\") */\n      mload(0x40)\n        /* \"DonationTracker.sol\":1091:1098  bool ok */\n      0x00\n      swap2\n      sub(shl(0xa0, 0x01), 0x01)\n        /* \"DonationTracker.sol\":1104:1117  c.beneficiary */\n      and\n      swap1\n        /* \"DonationTracker.sol\":1130:1139  msg.value */\n      callvalue\n      swap1\n        /* \"DonationTracker.sol\":1091:1098  bool ok */\n      dup4\n        /* \"DonationTracker.sol\":1104:1144  c.beneficiary.call{value: msg.value}(\"\") */\n      dup2\n        /* \"DonationTracker.sol\":1091:1098  bool ok */\n      dup2\n        /* \"DonationTracker.sol\":1104:1144  c.beneficiary.call{value: msg.value}(\"\") */\n      dup2\n        /* \"DonationTracker.sol\":1130:1139  msg.value */\n      dup6\n        /* \"DonationTracker.sol\":1104:1117  c.beneficiary */\n      dup8\n        /* \"DonationTracker.sol\":1104:1144  c.beneficiary.call{value: msg.value}(\"\") */\n      gas\n      call\n      swap3\n      pop\n      pop\n      pop\n      returndatasize\n      dup1\n      0x00\n      dup2\n      eq\n      tag_56\n      jumpi\n      mload(0x40)\n      swap2\n      pop\n      and(add(returndatasize, 0x3f), not(0x1f))\n      dup3\n      add\n      0x40\n      mstore\n      returndatasize\n      dup3\n      mstore\n      returndatasize\n      0x00\n      0x20\n      dup5\n      add\n      returndatacopy\n      jump(tag_55)\n    tag_56:\n      0x60\n      swap2\n      pop\n    tag_55:\n      pop\n        /* \"DonationTracker.sol\":1090:1144  (bool ok, ) = c.beneficiary.call{value: msg.value}(\"\") */\n      pop\n      swap1\n      pop\n        /* \"DonationTracker.sol\":1163:1165  ok */\n      dup1\n        /* \"DonationTracker.sol\":1155:1184  require(ok, \"forward failed\") */\n      tag_57\n      jumpi\n      mload(0x40)\n      shl(0xe5, 0x461bcd)\n      dup2\n      mstore\n        /* \"#utility.yul\":7009:7011   */\n      0x20\n        /* \"DonationTracker.sol\":1155:1184  require(ok, \"forward failed\") */\n      0x04\n      dup3\n      add\n        /* \"#utility.yul\":6991:7012   */\n      mstore\n        /* \"#utility.yul\":7048:7050   */\n      0x0e\n        /* \"#utility.yul\":7028:7046   */\n      0x24\n      dup3\n      add\n        /* \"#utility.yul\":7021:7051   */\n      mstore\n      shl(0x92, 0x199bdc9dd85c990819985a5b1959)\n        /* \"#utility.yul\":7067:7085   */\n      0x44\n      dup3\n      add\n        /* \"#utility.yul\":7060:7104   */\n      mstore\n        /* \"#utility.yul\":7121:7139   */\n      0x64\n      add\n        /* \"DonationTracker.sol\":1155:1184  require(ok, \"forward failed\") */\n      tag_35\n        /* \"#utility.yul\":6807:7145   */\n      jump\n        /* \"DonationTracker.sol\":1155:1184  require(ok, \"forward failed\") */\n    tag_57:\n        /* \"DonationTracker.sol\":1200:1239  Donated(causeId, msg.sender, msg.value) */\n      mload(0x40)\n        /* \"DonationTracker.sol\":1229:1238  msg.value */\n      callvalue\n        /* \"#utility.yul\":1242:1267   */\n      dup2\n      mstore\n        /* \"DonationTracker.sol\":1217:1227  msg.sender */\n      caller\n      swap1\n        /* \"DonationTracker.sol\":1208:1215  causeId */\n      dup5\n      swap1\n        /* \"DonationTracker.sol\":1200:1239  Donated(causeId, msg.sender, msg.value) */\n      0x1b606d34afacd55873aba0fd274841a10c63e18455f2dffebad2fc60a36b2c83\n      swap1\n        /* \"#utility.yul\":1230:1232   */\n      0x20\n        /* \"#utility.yul\":1215:1233   */\n      add\n        /* \"DonationTracker.sol\":1200:1239  Donated(causeId, msg.sender, msg.value) */\n      mload(0x40)\n      dup1\n      swap2\n      sub\n      swap1\n      log3\n        /* \"DonationTracker.sol\":911:1247  {... */\n      pop\n      pop\n        /* \"DonationTracker.sol\":861:1247  function donate(uint256 causeId) external payable {... */\n      pop\n      jump\t// out\n        /* \"#utility.yul\":14:194   */\n    tag_9:\n        /* \"#utility.yul\":73:79   */\n      0x00\n        /* \"#utility.yul\":126:128   */\n      0x20\n        /* \"#utility.yul\":114:123   */\n      dup3\n        /* \"#utility.yul\":105:112   */\n      dup5\n        /* \"#utility.yul\":101:124   */\n      sub\n        /* \"#utility.yul\":97:129   */\n      slt\n        /* \"#utility.yul\":94:146   */\n      iszero\n      tag_69\n      jumpi\n        /* \"#utility.yul\":142:143   */\n      0x00\n        /* \"#utility.yul\":139:140   */\n      dup1\n        /* \"#utility.yul\":132:144   */\n      revert\n        /* \"#utility.yul\":94:146   */\n    tag_69:\n      pop\n        /* \"#utility.yul\":165:188   */\n      calldataload\n      swap2\n        /* \"#utility.yul\":14:194   */\n      swap1\n      pop\n      jump\t// out\n        /* \"#utility.yul\":295:1091   */\n    tag_12:\n        /* \"#utility.yul\":538:541   */\n      0x80\n        /* \"#utility.yul\":527:536   */\n      dup2\n        /* \"#utility.yul\":520:542   */\n      mstore\n        /* \"#utility.yul\":501:505   */\n      0x00\n        /* \"#utility.yul\":571:577   */\n      dup6\n        /* \"#utility.yul\":565:578   */\n      mload\n        /* \"#utility.yul\":615:621   */\n      dup1\n        /* \"#utility.yul\":609:612   */\n      0x80\n        /* \"#utility.yul\":598:607   */\n      dup5\n        /* \"#utility.yul\":594:613   */\n      add\n        /* \"#utility.yul\":587:622   */\n      mstore\n        /* \"#utility.yul\":640:641   */\n      0x00\n        /* \"#utility.yul\":650:795   */\n    tag_72:\n        /* \"#utility.yul\":664:670   */\n      dup2\n        /* \"#utility.yul\":661:662   */\n      dup2\n        /* \"#utility.yul\":658:671   */\n      lt\n        /* \"#utility.yul\":650:795   */\n      iszero\n      tag_74\n      jumpi\n        /* \"#utility.yul\":778:782   */\n      0x20\n        /* \"#utility.yul\":762:776   */\n      dup2\n      dup10\n      add\n        /* \"#utility.yul\":758:783   */\n      dup2\n      add\n        /* \"#utility.yul\":752:784   */\n      mload\n        /* \"#utility.yul\":746:749   */\n      0xa0\n        /* \"#utility.yul\":727:744   */\n      dup7\n      dup5\n      add\n        /* \"#utility.yul\":723:750   */\n      add\n        /* \"#utility.yul\":716:785   */\n      mstore\n        /* \"#utility.yul\":679:691   */\n      add\n        /* \"#utility.yul\":650:795   */\n      jump(tag_72)\n    tag_74:\n      pop\n        /* \"#utility.yul\":845:846   */\n      0x00\n        /* \"#utility.yul\":839:842   */\n      0xa0\n        /* \"#utility.yul\":815:837   */\n      dup3\n      dup6\n      add\n        /* \"#utility.yul\":811:843   */\n      dup2\n      add\n        /* \"#utility.yul\":804:847   */\n      swap2\n      swap1\n      swap2\n      mstore\n      sub(shl(0xa0, 0x01), 0x01)\n        /* \"#utility.yul\":957:989   */\n      swap7\n      swap1\n      swap7\n      and\n        /* \"#utility.yul\":950:954   */\n      0x20\n        /* \"#utility.yul\":935:955   */\n      dup5\n      add\n        /* \"#utility.yul\":928:990   */\n      mstore\n        /* \"#utility.yul\":1021:1023   */\n      0x40\n        /* \"#utility.yul\":1006:1024   */\n      dup4\n      add\n        /* \"#utility.yul\":999:1033   */\n      swap5\n      swap1\n      swap5\n      mstore\n      pop\n        /* \"#utility.yul\":269:282   */\n      swap1\n      iszero\n        /* \"#utility.yul\":262:283   */\n      iszero\n        /* \"#utility.yul\":1081:1083   */\n      0x60\n        /* \"#utility.yul\":1066:1084   */\n      dup3\n      add\n        /* \"#utility.yul\":250:284   */\n      mstore\n        /* \"#utility.yul\":908:910   */\n      0x1f\n        /* \"#utility.yul\":887:902   */\n      swap1\n      swap2\n      add\n      not(0x1f)\n        /* \"#utility.yul\":883:912   */\n      and\n        /* \"#utility.yul\":868:913   */\n      add\n        /* \"#utility.yul\":864:919   */\n      add\n      swap2\n      swap1\n      pop\n        /* \"#utility.yul\":295:1091   */\n      jump\t// out\n        /* \"#utility.yul\":1278:2058   */\n    tag_21:\n        /* \"#utility.yul\":1366:1372   */\n      0x00\n        /* \"#utility.yul\":1374:1380   */\n      dup1\n        /* \"#utility.yul\":1382:1388   */\n      0x00\n        /* \"#utility.yul\":1435:1437   */\n      0x40\n        /* \"#utility.yul\":1423:1432   */\n      dup5\n        /* \"#utility.yul\":1414:1421   */\n      dup7\n        /* \"#utility.yul\":1410:1433   */\n      sub\n        /* \"#utility.yul\":1406:1438   */\n      slt\n        /* \"#utility.yul\":1403:1455   */\n      iszero\n      tag_78\n      jumpi\n        /* \"#utility.yul\":1451:1452   */\n      0x00\n        /* \"#utility.yul\":1448:1449   */\n      dup1\n        /* \"#utility.yul\":1441:1453   */\n      revert\n        /* \"#utility.yul\":1403:1455   */\n    tag_78:\n        /* \"#utility.yul\":1491:1500   */\n      dup4\n        /* \"#utility.yul\":1478:1501   */\n      calldataload\n        /* \"#utility.yul\":1520:1538   */\n      0xffffffffffffffff\n        /* \"#utility.yul\":1561:1563   */\n      dup1\n        /* \"#utility.yul\":1553:1559   */\n      dup3\n        /* \"#utility.yul\":1550:1564   */\n      gt\n        /* \"#utility.yul\":1547:1581   */\n      iszero\n      tag_79\n      jumpi\n        /* \"#utility.yul\":1577:1578   */\n      0x00\n        /* \"#utility.yul\":1574:1575   */\n      dup1\n        /* \"#utility.yul\":1567:1579   */\n      revert\n        /* \"#utility.yul\":1547:1581   */\n    tag_79:\n        /* \"#utility.yul\":1615:1621   */\n      dup2\n        /* \"#utility.yul\":1604:1613   */\n      dup7\n        /* \"#utility.yul\":1600:1622   */\n      add\n        /* \"#utility.yul\":1590:1622   */\n      swap2\n      pop\n        /* \"#utility.yul\":1660:1667   */\n      dup7\n        /* \"#utility.yul\":1653:1657   */\n      0x1f\n        /* \"#utility.yul\":1649:1651   */\n      dup4\n        /* \"#utility.yul\":1645:1658   */\n      add\n        /* \"#utility.yul\":1641:1668   */\n      slt\n        /* \"#utility.yul\":1631:1686   */\n      tag_80\n      jumpi\n        /* \"#utility.yul\":1682:1683   */\n      0x00\n        /* \"#utility.yul\":1679:1680   */\n      dup1\n        /* \"#utility.yul\":1672:1684   */\n      revert\n        /* \"#utility.yul\":1631:1686   */\n    tag_80:\n        /* \"#utility.yul\":1722:1724   */\n      dup2\n        /* \"#utility.yul\":1709:1725   */\n      calldataload\n        /* \"#utility.yul\":1748:1750   */\n      dup2\n        /* \"#utility.yul\":1740:1746   */\n      dup2\n        /* \"#utility.yul\":1737:1751   */\n      gt\n        /* \"#utility.yul\":1734:1768   */\n      iszero\n      tag_81\n      jumpi\n        /* \"#utility.yul\":1764:1765   */\n      0x00\n        /* \"#utility.yul\":1761:1762   */\n      dup1\n        /* \"#utility.yul\":1754:1766   */\n      revert\n        /* \"#utility.yul\":1734:1768   */\n    tag_81:\n        /* \"#utility.yul\":1811:1818   */\n      dup8\n        /* \"#utility.yul\":1804:1808   */\n      0x20\n        /* \"#utility.yul\":1795:1801   */\n      dup3\n        /* \"#utility.yul\":1791:1793   */\n      dup6\n        /* \"#utility.yul\":1787:1802   */\n      add\n        /* \"#utility.yul\":1783:1809   */\n      add\n        /* \"#utility.yul\":1780:1819   */\n      gt\n        /* \"#utility.yul\":1777:1836   */\n      iszero\n      tag_82\n      jumpi\n        /* \"#utility.yul\":1832:1833   */\n      0x00\n        /* \"#utility.yul\":1829:1830   */\n      dup1\n        /* \"#utility.yul\":1822:1834   */\n      revert\n        /* \"#utility.yul\":1777:1836   */\n    tag_82:\n        /* \"#utility.yul\":1863:1867   */\n      0x20\n        /* \"#utility.yul\":1855:1868   */\n      swap3\n      dup4\n      add\n      swap6\n      pop\n        /* \"#utility.yul\":1887:1893   */\n      swap4\n      pop\n      pop\n        /* \"#utility.yul\":1928:1948   */\n      dup5\n      add\n        /* \"#utility.yul\":1915:1949   */\n      calldataload\n      sub(shl(0xa0, 0x01), 0x01)\n        /* \"#utility.yul\":1978:2009   */\n      dup2\n      and\n        /* \"#utility.yul\":1968:2010   */\n      dup2\n      eq\n        /* \"#utility.yul\":1958:2028   */\n      tag_83\n      jumpi\n        /* \"#utility.yul\":2024:2025   */\n      0x00\n        /* \"#utility.yul\":2021:2022   */\n      dup1\n        /* \"#utility.yul\":2014:2026   */\n      revert\n        /* \"#utility.yul\":1958:2028   */\n    tag_83:\n        /* \"#utility.yul\":2047:2052   */\n      dup1\n        /* \"#utility.yul\":2037:2052   */\n      swap2\n      pop\n      pop\n        /* \"#utility.yul\":1278:2058   */\n      swap3\n      pop\n      swap3\n      pop\n      swap3\n      jump\t// out\n        /* \"#utility.yul\":2063:2443   */\n    tag_28:\n        /* \"#utility.yul\":2142:2143   */\n      0x01\n        /* \"#utility.yul\":2138:2150   */\n      dup2\n      dup2\n      shr\n      swap1\n        /* \"#utility.yul\":2185:2197   */\n      dup3\n      and\n      dup1\n        /* \"#utility.yul\":2206:2267   */\n      tag_85\n      jumpi\n        /* \"#utility.yul\":2260:2264   */\n      0x7f\n        /* \"#utility.yul\":2252:2258   */\n      dup3\n        /* \"#utility.yul\":2248:2265   */\n      and\n        /* \"#utility.yul\":2238:2265   */\n      swap2\n      pop\n        /* \"#utility.yul\":2206:2267   */\n    tag_85:\n        /* \"#utility.yul\":2313:2315   */\n      0x20\n        /* \"#utility.yul\":2305:2311   */\n      dup3\n        /* \"#utility.yul\":2302:2316   */\n      lt\n        /* \"#utility.yul\":2282:2300   */\n      dup2\n        /* \"#utility.yul\":2279:2317   */\n      sub\n        /* \"#utility.yul\":2276:2437   */\n      tag_86\n      jumpi\n        /* \"#utility.yul\":2359:2369   */\n      0x4e487b71\n        /* \"#utility.yul\":2354:2357   */\n      0xe0\n        /* \"#utility.yul\":2350:2370   */\n      shl\n        /* \"#utility.yul\":2347:2348   */\n      0x00\n        /* \"#utility.yul\":2340:2371   */\n      mstore\n        /* \"#utility.yul\":2394:2398   */\n      0x22\n        /* \"#utility.yul\":2391:2392   */\n      0x04\n        /* \"#utility.yul\":2384:2399   */\n      mstore\n        /* \"#utility.yul\":2422:2426   */\n      0x24\n        /* \"#utility.yul\":2419:2420   */\n      0x00\n        /* \"#utility.yul\":2412:2427   */\n      revert\n        /* \"#utility.yul\":2276:2437   */\n    tag_86:\n      pop\n        /* \"#utility.yul\":2063:2443   */\n      swap2\n      swap1\n      pop\n      jump\t// out\n        /* \"#utility.yul\":2792:2919   */\n    tag_62:\n        /* \"#utility.yul\":2853:2863   */\n      0x4e487b71\n        /* \"#utility.yul\":2848:2851   */\n      0xe0\n        /* \"#utility.yul\":2844:2864   */\n      shl\n        /* \"#utility.yul\":2841:2842   */\n      0x00\n        /* \"#utility.yul\":2834:2865   */\n      mstore\n        /* \"#utility.yul\":2884:2888   */\n      0x11\n        /* \"#utility.yul\":2881:2882   */\n      0x04\n        /* \"#utility.yul\":2874:2889   */\n      mstore\n        /* \"#utility.yul\":2908:2912   */\n      0x24\n        /* \"#utility.yul\":2905:2906   */\n      0x00\n        /* \"#utility.yul\":2898:2913   */\n      revert\n        /* \"#utility.yul\":2924:3059   */\n    tag_38:\n        /* \"#utility.yul\":2963:2966   */\n      0x00\n        /* \"#utility.yul\":2984:3001   */\n      0x01\n      dup3\n      add\n        /* \"#utility.yul\":2981:3024   */\n      tag_91\n      jumpi\n        /* \"#utility.yul\":3004:3022   */\n      tag_91\n      tag_62\n      jump\t// in\n    tag_91:\n      pop\n        /* \"#utility.yul\":3051:3052   */\n      0x01\n        /* \"#utility.yul\":3040:3053   */\n      add\n      swap1\n        /* \"#utility.yul\":2924:3059   */\n      jump\t// out\n        /* \"#utility.yul\":3064:3191   */\n    tag_63:\n        /* \"#utility.yul\":3125:3135   */\n      0x4e487b71\n        /* \"#utility.yul\":3120:3123   */\n      0xe0\n        /* \"#utility.yul\":3116:3136   */\n      shl\n        /* \"#utility.yul\":3113:3114   */\n      0x00\n        /* \"#utility.yul\":3106:3137   */\n      mstore\n        /* \"#utility.yul\":3156:3160   */\n      0x41\n        /* \"#utility.yul\":3153:3154   */\n      0x04\n        /* \"#utility.yul\":3146:3161   */\n      mstore\n        /* \"#utility.yul\":3180:3184   */\n      0x24\n        /* \"#utility.yul\":3177:3178   */\n      0x00\n        /* \"#utility.yul\":3170:3185   */\n      revert\n        /* \"#utility.yul\":3322:3867   */\n    tag_65:\n        /* \"#utility.yul\":3424:3426   */\n      0x1f\n        /* \"#utility.yul\":3419:3422   */\n      dup3\n        /* \"#utility.yul\":3416:3427   */\n      gt\n        /* \"#utility.yul\":3413:3861   */\n      iszero\n      tag_95\n      jumpi\n        /* \"#utility.yul\":3460:3461   */\n      0x00\n        /* \"#utility.yul\":3485:3490   */\n      dup2\n        /* \"#utility.yul\":3481:3483   */\n      dup2\n        /* \"#utility.yul\":3474:3491   */\n      mstore\n        /* \"#utility.yul\":3530:3534   */\n      0x20\n        /* \"#utility.yul\":3526:3528   */\n      dup2\n        /* \"#utility.yul\":3516:3535   */\n      keccak256\n        /* \"#utility.yul\":3600:3602   */\n      0x1f\n        /* \"#utility.yul\":3588:3598   */\n      dup6\n        /* \"#utility.yul\":3584:3603   */\n      add\n        /* \"#utility.yul\":3581:3582   */\n      0x05\n        /* \"#utility.yul\":3577:3604   */\n      shr\n        /* \"#utility.yul\":3571:3575   */\n      dup2\n        /* \"#utility.yul\":3567:3605   */\n      add\n        /* \"#utility.yul\":3636:3640   */\n      0x20\n        /* \"#utility.yul\":3624:3634   */\n      dup7\n        /* \"#utility.yul\":3621:3641   */\n      lt\n        /* \"#utility.yul\":3618:3665   */\n      iszero\n      tag_96\n      jumpi\n      pop\n        /* \"#utility.yul\":3659:3663   */\n      dup1\n        /* \"#utility.yul\":3618:3665   */\n    tag_96:\n        /* \"#utility.yul\":3714:3716   */\n      0x1f\n        /* \"#utility.yul\":3709:3712   */\n      dup6\n        /* \"#utility.yul\":3705:3717   */\n      add\n        /* \"#utility.yul\":3702:3703   */\n      0x05\n        /* \"#utility.yul\":3698:3718   */\n      shr\n        /* \"#utility.yul\":3692:3696   */\n      dup3\n        /* \"#utility.yul\":3688:3719   */\n      add\n        /* \"#utility.yul\":3678:3719   */\n      swap2\n      pop\n        /* \"#utility.yul\":3769:3851   */\n    tag_97:\n        /* \"#utility.yul\":3787:3789   */\n      dup2\n        /* \"#utility.yul\":3780:3785   */\n      dup2\n        /* \"#utility.yul\":3777:3790   */\n      lt\n        /* \"#utility.yul\":3769:3851   */\n      iszero\n      tag_99\n      jumpi\n        /* \"#utility.yul\":3832:3849   */\n      dup3\n      dup2\n      sstore\n        /* \"#utility.yul\":3813:3814   */\n      0x01\n        /* \"#utility.yul\":3802:3815   */\n      add\n        /* \"#utility.yul\":3769:3851   */\n      jump(tag_97)\n    tag_99:\n        /* \"#utility.yul\":3773:3776   */\n      pop\n      pop\n      pop\n        /* \"#utility.yul\":3413:3861   */\n    tag_95:\n        /* \"#utility.yul\":3322:3867   */\n      pop\n      pop\n      pop\n      jump\t// out\n        /* \"#utility.yul\":4043:5395   */\n    tag_40:\n        /* \"#utility.yul\":4169:4172   */\n      dup2\n        /* \"#utility.yul\":4163:4173   */\n      mload\n        /* \"#utility.yul\":4196:4214   */\n      0xffffffffffffffff\n        /* \"#utility.yul\":4188:4194   */\n      dup2\n        /* \"#utility.yul\":4185:4215   */\n      gt\n        /* \"#utility.yul\":4182:4238   */\n      iszero\n      tag_103\n      jumpi\n        /* \"#utility.yul\":4218:4236   */\n      tag_103\n      tag_63\n      jump\t// in\n    tag_103:\n        /* \"#utility.yul\":4247:4344   */\n      tag_104\n        /* \"#utility.yul\":4337:4343   */\n      dup2\n        /* \"#utility.yul\":4297:4335   */\n      tag_105\n        /* \"#utility.yul\":4329:4333   */\n      dup5\n        /* \"#utility.yul\":4323:4334   */\n      sload\n        /* \"#utility.yul\":4297:4335   */\n      tag_28\n      jump\t// in\n    tag_105:\n        /* \"#utility.yul\":4291:4295   */\n      dup5\n        /* \"#utility.yul\":4247:4344   */\n      tag_65\n      jump\t// in\n    tag_104:\n        /* \"#utility.yul\":4399:4403   */\n      0x20\n      dup1\n        /* \"#utility.yul\":4463:4465   */\n      0x1f\n        /* \"#utility.yul\":4452:4466   */\n      dup4\n      gt\n        /* \"#utility.yul\":4480:4481   */\n      0x01\n        /* \"#utility.yul\":4475:5138   */\n      dup2\n      eq\n      tag_107\n      jumpi\n        /* \"#utility.yul\":5182:5183   */\n      0x00\n        /* \"#utility.yul\":5199:5205   */\n      dup5\n        /* \"#utility.yul\":5196:5285   */\n      iszero\n      tag_108\n      jumpi\n      pop\n        /* \"#utility.yul\":5251:5270   */\n      dup6\n      dup4\n      add\n        /* \"#utility.yul\":5245:5271   */\n      mload\n        /* \"#utility.yul\":5196:5285   */\n    tag_108:\n      not(0x00)\n        /* \"#utility.yul\":4000:4001   */\n      0x03\n        /* \"#utility.yul\":3996:4007   */\n      dup7\n      swap1\n      shl\n        /* \"#utility.yul\":3992:4016   */\n      shr\n        /* \"#utility.yul\":3988:4017   */\n      not\n        /* \"#utility.yul\":3978:4018   */\n      and\n        /* \"#utility.yul\":4024:4025   */\n      0x01\n        /* \"#utility.yul\":4020:4031   */\n      dup6\n      swap1\n      shl\n        /* \"#utility.yul\":3975:4032   */\n      or\n        /* \"#utility.yul\":5298:5379   */\n      dup6\n      sstore\n        /* \"#utility.yul\":4445:5389   */\n      jump(tag_99)\n        /* \"#utility.yul\":4475:5138   */\n    tag_107:\n        /* \"#utility.yul\":3269:3270   */\n      0x00\n        /* \"#utility.yul\":3262:3276   */\n      dup6\n      dup2\n      mstore\n        /* \"#utility.yul\":3306:3310   */\n      0x20\n        /* \"#utility.yul\":3293:3311   */\n      dup2\n      keccak256\n      not(0x1f)\n        /* \"#utility.yul\":4511:4531   */\n      dup7\n      and\n      swap2\n        /* \"#utility.yul\":4629:4865   */\n    tag_111:\n        /* \"#utility.yul\":4643:4650   */\n      dup3\n        /* \"#utility.yul\":4640:4641   */\n      dup2\n        /* \"#utility.yul\":4637:4651   */\n      lt\n        /* \"#utility.yul\":4629:4865   */\n      iszero\n      tag_113\n      jumpi\n        /* \"#utility.yul\":4732:4751   */\n      dup9\n      dup7\n      add\n        /* \"#utility.yul\":4726:4752   */\n      mload\n        /* \"#utility.yul\":4711:4753   */\n      dup3\n      sstore\n        /* \"#utility.yul\":4824:4851   */\n      swap5\n      dup5\n      add\n      swap5\n        /* \"#utility.yul\":4792:4793   */\n      0x01\n        /* \"#utility.yul\":4780:4794   */\n      swap1\n      swap2\n      add\n      swap1\n        /* \"#utility.yul\":4659:4678   */\n      dup5\n      add\n        /* \"#utility.yul\":4629:4865   */\n      jump(tag_111)\n    tag_113:\n        /* \"#utility.yul\":4633:4636   */\n      pop\n        /* \"#utility.yul\":4893:4899   */\n      dup6\n        /* \"#utility.yul\":4884:4891   */\n      dup3\n        /* \"#utility.yul\":4881:4900   */\n      lt\n        /* \"#utility.yul\":4878:5079   */\n      iszero\n      tag_114\n      jumpi\n        /* \"#utility.yul\":4954:4973   */\n      dup8\n      dup6\n      add\n        /* \"#utility.yul\":4948:4974   */\n      mload\n      not(0x00)\n        /* \"#utility.yul\":5037:5038   */\n      0x03\n        /* \"#utility.yul\":5033:5047   */\n      dup9\n      swap1\n      shl\n        /* \"#utility.yul\":5049:5052   */\n      0xf8\n        /* \"#utility.yul\":5029:5053   */\n      and\n        /* \"#utility.yul\":5025:5062   */\n      shr\n        /* \"#utility.yul\":5021:5063   */\n      not\n        /* \"#utility.yul\":5006:5064   */\n      and\n        /* \"#utility.yul\":4991:5065   */\n      dup2\n      sstore\n        /* \"#utility.yul\":4878:5079   */\n    tag_114:\n      pop\n      pop\n      pop\n      pop\n      pop\n        /* \"#utility.yul\":5125:5126   */\n      0x01\n        /* \"#utility.yul\":5109:5123   */\n      swap1\n      dup2\n      shl\n        /* \"#utility.yul\":5105:5127   */\n      add\n        /* \"#utility.yul\":5092:5128   */\n      swap1\n      sstore\n      pop\n        /* \"#utility.yul\":4043:5395   */\n      jump\t// out\n        /* \"#utility.yul\":5400:5790   */\n    tag_42:\n        /* \"#utility.yul\":5559:5561   */\n      0x20\n        /* \"#utility.yul\":5548:5557   */\n      dup2\n        /* \"#utility.yul\":5541:5562   */\n      mstore\n        /* \"#utility.yul\":5598:5604   */\n      dup2\n        /* \"#utility.yul\":5593:5595   */\n      0x20\n        /* \"#utility.yul\":5582:5591   */\n      dup3\n        /* \"#utility.yul\":5578:5596   */\n      add\n        /* \"#utility.yul\":5571:5605   */\n      mstore\n        /* \"#utility.yul\":5655:5661   */\n      dup2\n        /* \"#utility.yul\":5647:5653   */\n      dup4\n        /* \"#utility.yul\":5642:5644   */\n      0x40\n        /* \"#utility.yul\":5631:5640   */\n      dup4\n        /* \"#utility.yul\":5627:5645   */\n      add\n        /* \"#utility.yul\":5614:5662   */\n      calldatacopy\n        /* \"#utility.yul\":5711:5712   */\n      0x00\n        /* \"#utility.yul\":5682:5704   */\n      dup2\n      dup4\n      add\n        /* \"#utility.yul\":5706:5708   */\n      0x40\n        /* \"#utility.yul\":5678:5709   */\n      swap1\n      dup2\n      add\n        /* \"#utility.yul\":5671:5713   */\n      swap2\n      swap1\n      swap2\n      mstore\n        /* \"#utility.yul\":5774:5776   */\n      0x1f\n        /* \"#utility.yul\":5753:5768   */\n      swap1\n      swap3\n      add\n      not(0x1f)\n        /* \"#utility.yul\":5749:5778   */\n      and\n        /* \"#utility.yul\":5734:5779   */\n      add\n        /* \"#utility.yul\":5730:5784   */\n      add\n      swap2\n        /* \"#utility.yul\":5400:5790   */\n      swap1\n      pop\n      jump\t// out\n        /* \"#utility.yul\":6467:6592   */\n    tag_51:\n        /* \"#utility.yul\":6532:6541   */\n      dup1\n      dup3\n      add\n        /* \"#utility.yul\":6553:6563   */\n      dup1\n      dup3\n      gt\n        /* \"#utility.yul\":6550:6586   */\n      iszero\n      tag_120\n      jumpi\n        /* \"#utility.yul\":6566:6584   */\n      tag_120\n      tag_62\n      jump\t// in\n    tag_120:\n        /* \"#utility.yul\":6467:6592   */\n      swap3\n      swap2\n      pop\n      pop\n      jump\t// out\n\n    auxdata: 0xa2646970667358221220fbbf3650eb2102da68266ed369a0ce5e76eafc9477c339b89f3811203a7b048e64736f6c63430008140033\n}\n",
				"bytecode": {
					"linkReferences": {},
					"object": "608060405234801561000f575f80fd5b5061076d8061001d5f395ff3fe60806040526004361061003e575f3560e01c8063538a942a146100425780639a79edec1461007a578063e18341fa1461009d578063f14faf6f146100bc575b5f80fd5b34801561004d575f80fd5b5061006161005c366004610465565b6100d1565b604051610071949392919061047c565b60405180910390f35b348015610085575f80fd5b5061008f60015481565b604051908152602001610071565b3480156100a8575f80fd5b5061008f6100b73660046104e7565b61018d565b6100cf6100ca366004610465565b6102f8565b005b5f602081905290815260409020805481906100eb9061056e565b80601f01602080910402602001604051908101604052809291908181526020018280546101179061056e565b80156101625780601f1061013957610100808354040283529160200191610162565b820191905f5260205f20905b81548152906001019060200180831161014557829003601f168201915b505050506001830154600284015460039094015492936001600160a01b039091169290915060ff1684565b5f6001600160a01b0382166101db5760405162461bcd60e51b815260206004820152600f60248201526e6261642062656e656669636961727960881b60448201526064015b60405180910390fd5b60018054905f6101ea836105ba565b909155506040805160a06020601f880181900402820181019092526080810186815292935091829187908790819085018382808284375f9201829052509385525050506001600160a01b0385166020808401919091526040808401839052600160609094019390935284825281905220815181906102689082610634565b5060208201516001820180546001600160a01b0319166001600160a01b0392831617905560408084015160028401556060909301516003909201805460ff19169215159290921790915590519083169082907f5330bd6baa641d1d44ad80ff2641f1be3e281b434bf703d5042b55ffc1bc9f98906102e990889088906106f0565b60405180910390a39392505050565b5f818152602081905260409020600381015460ff166103445760405162461bcd60e51b81526020600482015260086024820152676e6f20636175736560c01b60448201526064016101d2565b5f341161037e5760405162461bcd60e51b81526020600482015260086024820152676e6f2076616c756560c01b60448201526064016101d2565b34816002015f828254610391919061071e565b909155505060018101546040515f916001600160a01b03169034908381818185875af1925050503d805f81146103e2576040519150601f19603f3d011682016040523d82523d5f602084013e6103e7565b606091505b50509050806104295760405162461bcd60e51b815260206004820152600e60248201526d199bdc9dd85c990819985a5b195960921b60448201526064016101d2565b604051348152339084907f1b606d34afacd55873aba0fd274841a10c63e18455f2dffebad2fc60a36b2c839060200160405180910390a3505050565b5f60208284031215610475575f80fd5b5035919050565b608081525f85518060808401525f5b818110156104a857602081890181015160a086840101520161048b565b505f60a08285018101919091526001600160a01b039690961660208401526040830194909452509015156060820152601f909101601f19160101919050565b5f805f604084860312156104f9575f80fd5b833567ffffffffffffffff80821115610510575f80fd5b818601915086601f830112610523575f80fd5b813581811115610531575f80fd5b876020828501011115610542575f80fd5b602092830195509350508401356001600160a01b0381168114610563575f80fd5b809150509250925092565b600181811c9082168061058257607f821691505b6020821081036105a057634e487b7160e01b5f52602260045260245ffd5b50919050565b634e487b7160e01b5f52601160045260245ffd5b5f600182016105cb576105cb6105a6565b5060010190565b634e487b7160e01b5f52604160045260245ffd5b601f82111561062f575f81815260208120601f850160051c8101602086101561060c5750805b601f850160051c820191505b8181101561062b57828155600101610618565b5050505b505050565b815167ffffffffffffffff81111561064e5761064e6105d2565b6106628161065c845461056e565b846105e6565b602080601f831160018114610695575f841561067e5750858301515b5f19600386901b1c1916600185901b17855561062b565b5f85815260208120601f198616915b828110156106c3578886015182559484019460019091019084016106a4565b50858210156106e057878501515f19600388901b60f8161c191681555b5050505050600190811b01905550565b60208152816020820152818360408301375f818301604090810191909152601f909201601f19160101919050565b80820180821115610731576107316105a6565b9291505056fea2646970667358221220fbbf3650eb2102da68266ed369a0ce5e76eafc9477c339b89f3811203a7b048e64736f6c63430008140033",
					"opcodes": "PUSH1 0x80 PUSH1 0x40 MSTORE CALLVALUE DUP1 ISZERO PUSH2 0xF JUMPI PUSH0 DUP1 REVERT JUMPDEST POP PUSH2 0x76D DUP1 PUSH2 0x1D PUSH0 CODECOPY PUSH0 RETURN INVALID PUSH1 0x80 PUSH1 0x40 MSTORE PUSH1 0x4 CALLDATASIZE LT PUSH2 0x3E JUMPI PUSH0 CALLDATALOAD PUSH1 0xE0 SHR DUP1 PUSH4 0x538A942A EQ PUSH2 0x42 JUMPI DUP1 PUSH4 0x9A79EDEC EQ PUSH2 0x7A JUMPI DUP1 PUSH4 0xE18341FA EQ PUSH2 0x9D JUMPI DUP1 PUSH4 0xF14FAF6F EQ PUSH2 0xBC JUMPI JUMPDEST PUSH0 DUP1 REVERT JUMPDEST CALLVALUE DUP1 ISZERO PUSH2 0x4D JUMPI PUSH0 DUP1 REVERT JUMPDEST POP PUSH2 0x61 PUSH2 0x5C CALLDATASIZE PUSH1 0x4 PUSH2 0x465 JUMP JUMPDEST PUSH2 0xD1 JUMP JUMPDEST PUSH1 0x40 MLOAD PUSH2 0x71 SWAP5 SWAP4 SWAP3 SWAP2 SWAP1 PUSH2 0x47C JUMP JUMPDEST PUSH1 0x40 MLOAD DUP1 SWAP2 SUB SWAP1 RETURN JUMPDEST CALLVALUE DUP1 ISZERO PUSH2 0x85 JUMPI PUSH0 DUP1 REVERT JUMPDEST POP PUSH2 0x8F PUSH1 0x1 SLOAD DUP2 JUMP JUMPDEST PUSH1 0x40 MLOAD SWAP1 DUP2 MSTORE PUSH1 0x20 ADD PUSH2 0x71 JUMP JUMPDEST CALLVALUE DUP1 ISZERO PUSH2 0xA8 JUMPI PUSH0 DUP1 REVERT JUMPDEST POP PUSH2 0x8F PUSH2 0xB7 CALLDATASIZE PUSH1 0x4 PUSH2 0x4E7 JUMP JUMPDEST PUSH2 0x18D JUMP JUMPDEST PUSH2 0xCF PUSH2 0xCA CALLDATASIZE PUSH1 0x4 PUSH2 0x465 JUMP JUMPDEST PUSH2 0x2F8 JUMP JUMPDEST STOP JUMPDEST PUSH0 PUSH1 0x20 DUP2 SWAP1 MSTORE SWAP1 DUP2 MSTORE PUSH1 0x40 SWAP1 KECCAK256 DUP1 SLOAD DUP2 SWAP1 PUSH2 0xEB SWAP1 PUSH2 0x56E JUMP JUMPDEST DUP1 PUSH1 0x1F ADD PUSH1 0x20 DUP1 SWAP2 DIV MUL PUSH1 0x20 ADD PUSH1 0x40 MLOAD SWAP1 DUP2 ADD PUSH1 0x40 MSTORE DUP1 SWAP3 SWAP2 SWAP1 DUP2 DUP2 MSTORE PUSH1 0x20 ADD DUP3 DUP1 SLOAD PUSH2 0x117 SWAP1 PUSH2 0x56E JUMP JUMPDEST DUP1 ISZERO PUSH2 0x162 JUMPI DUP1 PUSH1 0x1F LT PUSH2 0x139 JUMPI PUSH2 0x100 DUP1 DUP4 SLOAD DIV MUL DUP4 MSTORE SWAP2 PUSH1 0x20 ADD SWAP2 PUSH2 0x162 JUMP JUMPDEST DUP3 ADD SWAP2 SWAP1 PUSH0 MSTORE PUSH1 0x20 PUSH0 KECCAK256 SWAP1 JUMPDEST DUP2 SLOAD DUP2 MSTORE SWAP1 PUSH1 0x1 ADD SWAP1 PUSH1 0x20 ADD DUP1 DUP4 GT PUSH2 0x145 JUMPI DUP3 SWAP1 SUB PUSH1 0x1F AND DUP3 ADD SWAP2 JUMPDEST POP POP POP POP PUSH1 0x1 DUP4 ADD SLOAD PUSH1 0x2 DUP5 ADD SLOAD PUSH1 0x3 SWAP1 SWAP5 ADD SLOAD SWAP3 SWAP4 PUSH1 0x1 PUSH1 0x1 PUSH1 0xA0 SHL SUB SWAP1 SWAP2 AND SWAP3 SWAP1 SWAP2 POP PUSH1 0xFF AND DUP5 JUMP JUMPDEST PUSH0 PUSH1 0x1 PUSH1 0x1 PUSH1 0xA0 SHL SUB DUP3 AND PUSH2 0x1DB JUMPI PUSH1 0x40 MLOAD PUSH3 0x461BCD PUSH1 0xE5 SHL DUP2 MSTORE PUSH1 0x20 PUSH1 0x4 DUP3 ADD MSTORE PUSH1 0xF PUSH1 0x24 DUP3 ADD MSTORE PUSH15 0x6261642062656E6566696369617279 PUSH1 0x88 SHL PUSH1 0x44 DUP3 ADD MSTORE PUSH1 0x64 ADD JUMPDEST PUSH1 0x40 MLOAD DUP1 SWAP2 SUB SWAP1 REVERT JUMPDEST PUSH1 0x1 DUP1 SLOAD SWAP1 PUSH0 PUSH2 0x1EA DUP4 PUSH2 0x5BA JUMP JUMPDEST SWAP1 SWAP2 SSTORE POP PUSH1 0x40 DUP1 MLOAD PUSH1 0xA0 PUSH1 0x20 PUSH1 0x1F DUP9 ADD DUP2 SWAP1 DIV MUL DUP3 ADD DUP2 ADD SWAP1 SWAP3 MSTORE PUSH1 0x80 DUP2 ADD DUP7 DUP2 MSTORE SWAP3 SWAP4 POP SWAP2 DUP3 SWAP2 DUP8 SWAP1 DUP8 SWAP1 DUP2 SWAP1 DUP6 ADD DUP4 DUP3 DUP1 DUP3 DUP5 CALLDATACOPY PUSH0 SWAP3 ADD DUP3 SWAP1 MSTORE POP SWAP4 DUP6 MSTORE POP POP POP PUSH1 0x1 PUSH1 0x1 PUSH1 0xA0 SHL SUB DUP6 AND PUSH1 0x20 DUP1 DUP5 ADD SWAP2 SWAP1 SWAP2 MSTORE PUSH1 0x40 DUP1 DUP5 ADD DUP4 SWAP1 MSTORE PUSH1 0x1 PUSH1 0x60 SWAP1 SWAP5 ADD SWAP4 SWAP1 SWAP4 MSTORE DUP5 DUP3 MSTORE DUP2 SWAP1 MSTORE KECCAK256 DUP2 MLOAD DUP2 SWAP1 PUSH2 0x268 SWAP1 DUP3 PUSH2 0x634 JUMP JUMPDEST POP PUSH1 0x20 DUP3 ADD MLOAD PUSH1 0x1 DUP3 ADD DUP1 SLOAD PUSH1 0x1 PUSH1 0x1 PUSH1 0xA0 SHL SUB NOT AND PUSH1 0x1 PUSH1 0x1 PUSH1 0xA0 SHL SUB SWAP3 DUP4 AND OR SWAP1 SSTORE PUSH1 0x40 DUP1 DUP5 ADD MLOAD PUSH1 0x2 DUP5 ADD SSTORE PUSH1 0x60 SWAP1 SWAP4 ADD MLOAD PUSH1 0x3 SWAP1 SWAP3 ADD DUP1 SLOAD PUSH1 0xFF NOT AND SWAP3 ISZERO ISZERO SWAP3 SWAP1 SWAP3 OR SWAP1 SWAP2 SSTORE SWAP1 MLOAD SWAP1 DUP4 AND SWAP1 DUP3 SWAP1 PUSH32 0x5330BD6BAA641D1D44AD80FF2641F1BE3E281B434BF703D5042B55FFC1BC9F98 SWAP1 PUSH2 0x2E9 SWAP1 DUP9 SWAP1 DUP9 SWAP1 PUSH2 0x6F0 JUMP JUMPDEST PUSH1 0x40 MLOAD DUP1 SWAP2 SUB SWAP1 LOG3 SWAP4 SWAP3 POP POP POP JUMP JUMPDEST PUSH0 DUP2 DUP2 MSTORE PUSH1 0x20 DUP2 SWAP1 MSTORE PUSH1 0x40 SWAP1 KECCAK256 PUSH1 0x3 DUP2 ADD SLOAD PUSH1 0xFF AND PUSH2 0x344 JUMPI PUSH1 0x40 MLOAD PUSH3 0x461BCD PUSH1 0xE5 SHL DUP2 MSTORE PUSH1 0x20 PUSH1 0x4 DUP3 ADD MSTORE PUSH1 0x8 PUSH1 0x24 DUP3 ADD MSTORE PUSH8 0x6E6F206361757365 PUSH1 0xC0 SHL PUSH1 0x44 DUP3 ADD MSTORE PUSH1 0x64 ADD PUSH2 0x1D2 JUMP JUMPDEST PUSH0 CALLVALUE GT PUSH2 0x37E JUMPI PUSH1 0x40 MLOAD PUSH3 0x461BCD PUSH1 0xE5 SHL DUP2 MSTORE PUSH1 0x20 PUSH1 0x4 DUP3 ADD MSTORE PUSH1 0x8 PUSH1 0x24 DUP3 ADD MSTORE PUSH8 0x6E6F2076616C7565 PUSH1 0xC0 SHL PUSH1 0x44 DUP3 ADD MSTORE PUSH1 0x64 ADD PUSH2 0x1D2 JUMP JUMPDEST CALLVALUE DUP2 PUSH1 0x2 ADD PUSH0 DUP3 DUP3 SLOAD PUSH2 0x391 SWAP2 SWAP1 PUSH2 0x71E JUMP JUMPDEST SWAP1 SWAP2 SSTORE POP POP PUSH1 0x1 DUP2 ADD SLOAD PUSH1 0x40 MLOAD PUSH0 SWAP2 PUSH1 0x1 PUSH1 0x1 PUSH1 0xA0 SHL SUB AND SWAP1 CALLVALUE SWAP1 DUP4 DUP2 DUP2 DUP2 DUP6 DUP8 GAS CALL SWAP3 POP POP POP RETURNDATASIZE DUP1 PUSH0 DUP2 EQ PUSH2 0x3E2 JUMPI PUSH1 0x40 MLOAD SWAP2 POP PUSH1 0x1F NOT PUSH1 0x3F RETURNDATASIZE ADD AND DUP3 ADD PUSH1 0x40 MSTORE RETURNDATASIZE DUP3 MSTORE RETURNDATASIZE PUSH0 PUSH1 0x20 DUP5 ADD RETURNDATACOPY PUSH2 0x3E7 JUMP JUMPDEST PUSH1 0x60 SWAP2 POP JUMPDEST POP POP SWAP1 POP DUP1 PUSH2 0x429 JUMPI PUSH1 0x40 MLOAD PUSH3 0x461BCD PUSH1 0xE5 SHL DUP2 MSTORE PUSH1 0x20 PUSH1 0x4 DUP3 ADD MSTORE PUSH1 0xE PUSH1 0x24 DUP3 ADD MSTORE PUSH14 0x199BDC9DD85C990819985A5B1959 PUSH1 0x92 SHL PUSH1 0x44 DUP3 ADD MSTORE PUSH1 0x64 ADD PUSH2 0x1D2 JUMP JUMPDEST PUSH1 0x40 MLOAD CALLVALUE DUP2 MSTORE CALLER SWAP1 DUP5 SWAP1 PUSH32 0x1B606D34AFACD55873ABA0FD274841A10C63E18455F2DFFEBAD2FC60A36B2C83 SWAP1 PUSH1 0x20 ADD PUSH1 0x40 MLOAD DUP1 SWAP2 SUB SWAP1 LOG3 POP POP POP JUMP JUMPDEST PUSH0 PUSH1 0x20 DUP3 DUP5 SUB SLT ISZERO PUSH2 0x475 JUMPI PUSH0 DUP1 REVERT JUMPDEST POP CALLDATALOAD SWAP2 SWAP1 POP JUMP JUMPDEST PUSH1 0x80 DUP2 MSTORE PUSH0 DUP6 MLOAD DUP1 PUSH1 0x80 DUP5 ADD MSTORE PUSH0 JUMPDEST DUP2 DUP2 LT ISZERO PUSH2 0x4A8 JUMPI PUSH1 0x20 DUP2 DUP10 ADD DUP2 ADD MLOAD PUSH1 0xA0 DUP7 DUP5 ADD ADD MSTORE ADD PUSH2 0x48B JUMP JUMPDEST POP PUSH0 PUSH1 0xA0 DUP3 DUP6 ADD DUP2 ADD SWAP2 SWAP1 SWAP2 MSTORE PUSH1 0x1 PUSH1 0x1 PUSH1 0xA0 SHL SUB SWAP7 SWAP1 SWAP7 AND PUSH1 0x20 DUP5 ADD MSTORE PUSH1 0x40 DUP4 ADD SWAP5 SWAP1 SWAP5 MSTORE POP SWAP1 ISZERO ISZERO PUSH1 0x60 DUP3 ADD MSTORE PUSH1 0x1F SWAP1 SWAP2 ADD PUSH1 0x1F NOT AND ADD ADD SWAP2 SWAP1 POP JUMP JUMPDEST PUSH0 DUP1 PUSH0 PUSH1 0x40 DUP5 DUP7 SUB SLT ISZERO PUSH2 0x4F9 JUMPI PUSH0 DUP1 REVERT JUMPDEST DUP4 CALLDATALOAD PUSH8 0xFFFFFFFFFFFFFFFF DUP1 DUP3 GT ISZERO PUSH2 0x510 JUMPI PUSH0 DUP1 REVERT JUMPDEST DUP2 DUP7 ADD SWAP2 POP DUP7 PUSH1 0x1F DUP4 ADD SLT PUSH2 0x523 JUMPI PUSH0 DUP1 REVERT JUMPDEST DUP2 CALLDATALOAD DUP2 DUP2 GT ISZERO PUSH2 0x531 JUMPI PUSH0 DUP1 REVERT JUMPDEST DUP8 PUSH1 0x20 DUP3 DUP6 ADD ADD GT ISZERO PUSH2 0x542 JUMPI PUSH0 DUP1 REVERT JUMPDEST PUSH1 0x20 SWAP3 DUP4 ADD SWAP6 POP SWAP4 POP POP DUP5 ADD CALLDATALOAD PUSH1 0x1 PUSH1 0x1 PUSH1 0xA0 SHL SUB DUP2 AND DUP2 EQ PUSH2 0x563 JUMPI PUSH0 DUP1 REVERT JUMPDEST DUP1 SWAP2 POP POP SWAP3 POP SWAP3 POP SWAP3 JUMP JUMPDEST PUSH1 0x1 DUP2 DUP2 SHR SWAP1 DUP3 AND DUP1 PUSH2 0x582 JUMPI PUSH1 0x7F DUP3 AND SWAP2 POP JUMPDEST PUSH1 0x20 DUP3 LT DUP2 SUB PUSH2 0x5A0 JUMPI PUSH4 0x4E487B71 PUSH1 0xE0 SHL PUSH0 MSTORE PUSH1 0x22 PUSH1 0x4 MSTORE PUSH1 0x24 PUSH0 REVERT JUMPDEST POP SWAP2 SWAP1 POP JUMP JUMPDEST PUSH4 0x4E487B71 PUSH1 0xE0 SHL PUSH0 MSTORE PUSH1 0x11 PUSH1 0x4 MSTORE PUSH1 0x24 PUSH0 REVERT JUMPDEST PUSH0 PUSH1 0x1 DUP3 ADD PUSH2 0x5CB JUMPI PUSH2 0x5CB PUSH2 0x5A6 JUMP JUMPDEST POP PUSH1 0x1 ADD SWAP1 JUMP JUMPDEST PUSH4 0x4E487B71 PUSH1 0xE0 SHL PUSH0 MSTORE PUSH1 0x41 PUSH1 0x4 MSTORE PUSH1 0x24 PUSH0 REVERT JUMPDEST PUSH1 0x1F DUP3 GT ISZERO PUSH2 0x62F JUMPI PUSH0 DUP2 DUP2 MSTORE PUSH1 0x20 DUP2 KECCAK256 PUSH1 0x1F DUP6 ADD PUSH1 0x5 SHR DUP2 ADD PUSH1 0x20 DUP7 LT ISZERO PUSH2 0x60C JUMPI POP DUP1 JUMPDEST PUSH1 0x1F DUP6 ADD PUSH1 0x5 SHR DUP3 ADD SWAP2 POP JUMPDEST DUP2 DUP2 LT ISZERO PUSH2 0x62B JUMPI DUP3 DUP2 SSTORE PUSH1 0x1 ADD PUSH2 0x618 JUMP JUMPDEST POP POP POP JUMPDEST POP POP POP JUMP JUMPDEST DUP2 MLOAD PUSH8 0xFFFFFFFFFFFFFFFF DUP2 GT ISZERO PUSH2 0x64E JUMPI PUSH2 0x64E PUSH2 0x5D2 JUMP JUMPDEST PUSH2 0x662 DUP2 PUSH2 0x65C DUP5 SLOAD PUSH2 0x56E JUMP JUMPDEST DUP5 PUSH2 0x5E6 JUMP JUMPDEST PUSH1 0x20 DUP1 PUSH1 0x1F DUP4 GT PUSH1 0x1 DUP2 EQ PUSH2 0x695 JUMPI PUSH0 DUP5 ISZERO PUSH2 0x67E JUMPI POP DUP6 DUP4 ADD MLOAD JUMPDEST PUSH0 NOT PUSH1 0x3 DUP7 SWAP1 SHL SHR NOT AND PUSH1 0x1 DUP6 SWAP1 SHL OR DUP6 SSTORE PUSH2 0x62B JUMP JUMPDEST PUSH0 DUP6 DUP2 MSTORE PUSH1 0x20 DUP2 KECCAK256 PUSH1 0x1F NOT DUP7 AND SWAP2 JUMPDEST DUP3 DUP2 LT ISZERO PUSH2 0x6C3 JUMPI DUP9 DUP7 ADD MLOAD DUP3 SSTORE SWAP5 DUP5 ADD SWAP5 PUSH1 0x1 SWAP1 SWAP2 ADD SWAP1 DUP5 ADD PUSH2 0x6A4 JUMP JUMPDEST POP DUP6 DUP3 LT ISZERO PUSH2 0x6E0 JUMPI DUP8 DUP6 ADD MLOAD PUSH0 NOT PUSH1 0x3 DUP9 SWAP1 SHL PUSH1 0xF8 AND SHR NOT AND DUP2 SSTORE JUMPDEST POP POP POP POP POP PUSH1 0x1 SWAP1 DUP2 SHL ADD SWAP1 SSTORE POP JUMP JUMPDEST PUSH1 0x20 DUP2 MSTORE DUP2 PUSH1 0x20 DUP3 ADD MSTORE DUP2 DUP4 PUSH1 0x40 DUP4 ADD CALLDATACOPY PUSH0 DUP2 DUP4 ADD PUSH1 0x40 SWAP1 DUP2 ADD SWAP2 SWAP1 SWAP2 MSTORE PUSH1 0x1F SWAP1 SWAP3 ADD PUSH1 0x1F NOT AND ADD ADD SWAP2 SWAP1 POP JUMP JUMPDEST DUP1 DUP3 ADD DUP1 DUP3 GT ISZERO PUSH2 0x731 JUMPI PUSH2 0x731 PUSH2 0x5A6 JUMP JUMPDEST SWAP3 SWAP2 POP POP JUMP INVALID LOG2 PUSH5 0x6970667358 0x22 SLT KECCAK256 0xFB 0xBF CALLDATASIZE POP 0xEB 0x21 MUL 0xDA PUSH9 0x266ED369A0CE5E76EA 0xFC SWAP5 PUSH24 0xC339B89F3811203A7B048E64736F6C634300081400330000 "
				},
				"gasEstimates": {
					"creation": {
						"codeDepositCost": "380200",
						"executionCost": "416",
						"totalCost": "380616"
					},
					"external": {
						"causeCount()": "2294",
						"causes(uint256)": "infinite",
						"donate(uint256)": "infinite",
						"registerCause(string,address)": "infinite"
					}
				},
				"methodIdentifiers": {
					"causeCount()": "9a79edec",
					"causes(uint256)": "538a942a",
					"donate(uint256)": "f14faf6f",
					"registerCause(string,address)": "e18341fa"
				}
			},
			"storageLayout": {
				"storage": [
					{
						"astId": 31,
						"contract": "DonationTracker.sol:DonationTracker",
						"label": "causes",
						"offset": 0,
						"slot": "0",
						"type": "t_mapping(t_uint256,t_struct(Cause)26_storage)"
					},
					{
						"astId": 33,
						"contract": "DonationTracker.sol:DonationTracker",
						"label": "causeCount",
						"offset": 0,
						"slot": "1",
						"type": "t_uint256"
					}
				],
				"types": {
					"t_address_payable": {
						"encoding": "inplace",
						"label": "address payable",
						"numberOfBytes": "20"
					},
					"t_bool": {
						"encoding": "inplace",
						"label": "bool",
						"numberOfBytes": "1"
					},
					"t_mapping(t_uint256,t_struct(Cause)26_storage)": {
						"encoding": "mapping",
						"key": "t_uint256",
						"label": "mapping(uint256 => struct DonationTracker.Cause)",
						"numberOfBytes": "32",
						"value": "t_struct(Cause)26_storage"
					},
					"t_string_storage": {
						"encoding": "bytes",
						"label": "string",
						"numberOfBytes": "32"
					},
					"t_struct(Cause)26_storage": {
						"encoding": "inplace",
						"label": "struct DonationTracker.Cause",
						"members": [
							{
								"astId": 19,
								"contract": "DonationTracker.sol:DonationTracker",
								"label": "name",
								"offset": 0,
								"slot": "0",
								"type": "t_string_storage"
							},
							{
								"astId": 21,
								"contract": "DonationTracker.sol:DonationTracker",
								"label": "beneficiary",
								"offset": 0,
								"slot": "1",
								"type": "t_address_payable"
							},
							{
								"astId": 23,
								"contract": "DonationTracker.sol:DonationTracker",
								"label": "totalReceived",
								"offset": 0,
								"slot": "2",
								"type": "t_uint256"
							},
							{
								"astId": 25,
								"contract": "DonationTracker.sol:DonationTracker",
								"label": "exists",
								"offset": 0,
								"slot": "3",
								"type": "t_bool"
							}
						],
						"numberOfBytes": "128"
					},
					"t_uint256": {
						"encoding": "inplace",
						"label": "uint256",
						"numberOfBytes": "32"
					}
				}
			},
			"userdoc": {
				"kind": "user",
				"methods": {},
				"version": 1
			}
		}
	}
}