{
	"Airdropper_flattened.sol": {
		"Airdropper": {
			"abi": [
				{
					"anonymous": false,
					"inputs": [
						{
							"indexed": true,
							"internalType": "address",
							"name": "token",
							"type": "address"
						},
						{
							"indexed": false,
							"internalType": "uint256",
							"name": "recipients",
							"type": "uint256"
						},
						{
							"indexed": false,
							"internalType": "uint256",
							"name": "totalAmount",
							"type": "uint256"
						}
					],
					"name": "Airdropped",
					"type": "event"
				},
				{
					"inputs": [
						{
							"internalType": "address",
							"name": "token",
							"type": "address"
						},
						{
							"internalType": "address[]",
							"name": "recipients",
							"type": "address[]"
						},
						{
							"internalType": "uint256[]",
							"name": "amounts",
							"type": "uint256[]"
						}
					],
					"name": "airdropAmounts",
					"outputs": [],
					"stateMutability": "nonpayable",
					"type": "function"
				},
				{
					"inputs": [
						{
							"internalType": "address",
							"name": "token",
							"type": "address"
						},
						{
							"internalType": "address[]",
							"name": "recipients",
							"type": "address[]"
						},
						{
							"internalType": "uint256",
							"name": "amountEach",
							"type": "uint256"
						}
					],
					"name": "airdropEqual",
					"outputs": [],
					"stateMutability": "nonpayable",
					"type": "function"
				}
			],
			"devdoc": {
				"kind": "dev",
				"methods": {},
				"version": 1
			},
			"evm": {
				"assembly": "    /* \"Airdropper_flattened.sol\":2893:4053  contract Airdropper {... */\n  mstore(0x40, 0x80)\n  callvalue\n  dup1\n  iszero\n  tag_1\n  jumpi\n  0x00\n  dup1\n  revert\ntag_1:\n  pop\n  dataSize(sub_0)\n  dup1\n  dataOffset(sub_0)\n  0x00\n  codecopy\n  0x00\n  return\nstop\n\nsub_0: assembly {\n        /* \"Airdropper_flattened.sol\":2893:4053  contract Airdropper {... */\n      mstore(0x40, 0x80)\n      callvalue\n      dup1\n      iszero\n      tag_1\n      jumpi\n      0x00\n      dup1\n      revert\n    tag_1:\n      pop\n      jumpi(tag_2, lt(calldatasize, 0x04))\n      shr(0xe0, calldataload(0x00))\n      dup1\n      0x62ed4815\n      eq\n      tag_3\n      jumpi\n      dup1\n      0xac09bed2\n      eq\n      tag_4\n      jumpi\n    tag_2:\n      0x00\n      dup1\n      revert\n        /* \"Airdropper_flattened.sol\":3079:3546  function airdropEqual(address token, address[] calldata recipients, uint256 amountEach) external {... */\n    tag_3:\n      tag_5\n      tag_6\n      calldatasize\n      0x04\n      tag_7\n      jump\t// in\n    tag_6:\n      tag_8\n      jump\t// in\n    tag_5:\n      stop\n        /* \"Airdropper_flattened.sol\":3552:4051  function airdropAmounts(address token, address[] calldata recipients, uint256[] calldata amounts) external {... */\n    tag_4:\n      tag_5\n      tag_10\n      calldatasize\n      0x04\n      tag_11\n      jump\t// in\n    tag_10:\n      tag_12\n      jump\t// in\n        /* \"Airdropper_flattened.sol\":3079:3546  function airdropEqual(address token, address[] calldata recipients, uint256 amountEach) external {... */\n    tag_8:\n        /* \"Airdropper_flattened.sol\":3207:3208  0 */\n      0x00\n        /* \"Airdropper_flattened.sol\":3194:3204  amountEach */\n      dup2\n        /* \"Airdropper_flattened.sol\":3194:3208  amountEach > 0 */\n      gt\n        /* \"Airdropper_flattened.sol\":3194:3233  amountEach > 0 && recipients.length > 0 */\n      dup1\n      iszero\n      tag_14\n      jumpi\n      pop\n        /* \"Airdropper_flattened.sol\":3212:3233  recipients.length > 0 */\n      dup2\n      iszero\n      iszero\n        /* \"Airdropper_flattened.sol\":3194:3233  amountEach > 0 && recipients.length > 0 */\n    tag_14:\n        /* \"Airdropper_flattened.sol\":3186:3252  require(amountEach > 0 && recipients.length > 0, \"Invalid params\") */\n      tag_15\n      jumpi\n      mload(0x40)\n      shl(0xe5, 0x461bcd)\n      dup2\n      mstore\n        /* \"#utility.yul\":2202:2204   */\n      0x20\n        /* \"Airdropper_flattened.sol\":3186:3252  require(amountEach > 0 && recipients.length > 0, \"Invalid params\") */\n      0x04\n      dup3\n      add\n        /* \"#utility.yul\":2184:2205   */\n      mstore\n        /* \"#utility.yul\":2241:2243   */\n      0x0e\n        /* \"#utility.yul\":2221:2239   */\n      0x24\n      dup3\n      add\n        /* \"#utility.yul\":2214:2244   */\n      mstore\n      shl(0x90, 0x496e76616c696420706172616d73)\n        /* \"#utility.yul\":2260:2278   */\n      0x44\n      dup3\n      add\n        /* \"#utility.yul\":2253:2297   */\n      mstore\n        /* \"#utility.yul\":2314:2332   */\n      0x64\n      add\n        /* \"Airdropper_flattened.sol\":3186:3252  require(amountEach > 0 && recipients.length > 0, \"Invalid params\") */\n    tag_16:\n      mload(0x40)\n      dup1\n      swap2\n      sub\n      swap1\n      revert\n    tag_15:\n        /* \"Airdropper_flattened.sol\":3262:3275  uint256 total */\n      0x00\n        /* \"Airdropper_flattened.sol\":3278:3308  amountEach * recipients.length */\n      tag_18\n        /* \"Airdropper_flattened.sol\":3291:3301  recipients */\n      dup4\n        /* \"Airdropper_flattened.sol\":3278:3288  amountEach */\n      dup4\n        /* \"Airdropper_flattened.sol\":3278:3308  amountEach * recipients.length */\n      tag_19\n      jump\t// in\n    tag_18:\n        /* \"Airdropper_flattened.sol\":3262:3308  uint256 total = amountEach * recipients.length */\n      swap1\n      pop\n        /* \"Airdropper_flattened.sol\":3323:3332  uint256 i */\n      0x00\n        /* \"Airdropper_flattened.sol\":3318:3482  for (uint256 i = 0; i < recipients.length; i++) {... */\n    tag_20:\n        /* \"Airdropper_flattened.sol\":3338:3359  i < recipients.length */\n      dup4\n      dup2\n      lt\n        /* \"Airdropper_flattened.sol\":3318:3482  for (uint256 i = 0; i < recipients.length; i++) {... */\n      iszero\n      tag_21\n      jumpi\n        /* \"Airdropper_flattened.sol\":3395:3400  token */\n      dup6\n      sub(shl(0xa0, 0x01), 0x01)\n        /* \"Airdropper_flattened.sol\":3388:3414  IERC20(token).transferFrom */\n      and\n      0x23b872dd\n        /* \"Airdropper_flattened.sol\":3415:3425  msg.sender */\n      caller\n        /* \"Airdropper_flattened.sol\":3427:3437  recipients */\n      dup8\n      dup8\n        /* \"Airdropper_flattened.sol\":3438:3439  i */\n      dup6\n        /* \"Airdropper_flattened.sol\":3427:3440  recipients[i] */\n      dup2\n      dup2\n      lt\n      tag_24\n      jumpi\n      tag_24\n      tag_25\n      jump\t// in\n    tag_24:\n      swap1\n      pop\n      0x20\n      mul\n      add\n      0x20\n      dup2\n      add\n      swap1\n      tag_26\n      swap2\n      swap1\n      tag_27\n      jump\t// in\n    tag_26:\n        /* \"Airdropper_flattened.sol\":3388:3453  IERC20(token).transferFrom(msg.sender, recipients[i], amountEach) */\n      mload(0x40)\n      not(sub(shl(0xe0, 0x01), 0x01))\n      0xe0\n      dup6\n      swap1\n      shl\n      and\n      dup2\n      mstore\n      sub(shl(0xa0, 0x01), 0x01)\n        /* \"#utility.yul\":3229:3244   */\n      swap3\n      dup4\n      and\n        /* \"Airdropper_flattened.sol\":3388:3453  IERC20(token).transferFrom(msg.sender, recipients[i], amountEach) */\n      0x04\n      dup3\n      add\n        /* \"#utility.yul\":3211:3245   */\n      mstore\n        /* \"#utility.yul\":3281:3296   */\n      swap2\n      and\n        /* \"#utility.yul\":3261:3279   */\n      0x24\n      dup3\n      add\n        /* \"#utility.yul\":3254:3297   */\n      mstore\n        /* \"#utility.yul\":3313:3331   */\n      0x44\n      dup2\n      add\n        /* \"#utility.yul\":3306:3340   */\n      dup7\n      swap1\n      mstore\n        /* \"#utility.yul\":3146:3164   */\n      0x64\n      add\n        /* \"Airdropper_flattened.sol\":3388:3453  IERC20(token).transferFrom(msg.sender, recipients[i], amountEach) */\n      0x20\n      mload(0x40)\n      dup1\n      dup4\n      sub\n      dup2\n      0x00\n      dup8\n      gas\n      call\n      iszero\n      dup1\n      iszero\n      tag_31\n      jumpi\n      returndatasize\n      0x00\n      dup1\n      returndatacopy\n      revert(0x00, returndatasize)\n    tag_31:\n      pop\n      pop\n      pop\n      pop\n      mload(0x40)\n      returndatasize\n      not(0x1f)\n      0x1f\n      dup3\n      add\n      and\n      dup3\n      add\n      dup1\n      0x40\n      mstore\n      pop\n      dup2\n      add\n      swap1\n      tag_32\n      swap2\n      swap1\n      tag_33\n      jump\t// in\n    tag_32:\n        /* \"Airdropper_flattened.sol\":3380:3471  require(IERC20(token).transferFrom(msg.sender, recipients[i], amountEach), \"transfer fail\") */\n      tag_34\n      jumpi\n      mload(0x40)\n      shl(0xe5, 0x461bcd)\n      dup2\n      mstore\n        /* \"#utility.yul\":3835:3837   */\n      0x20\n        /* \"Airdropper_flattened.sol\":3380:3471  require(IERC20(token).transferFrom(msg.sender, recipients[i], amountEach), \"transfer fail\") */\n      0x04\n      dup3\n      add\n        /* \"#utility.yul\":3817:3838   */\n      mstore\n        /* \"#utility.yul\":3874:3876   */\n      0x0d\n        /* \"#utility.yul\":3854:3872   */\n      0x24\n      dup3\n      add\n        /* \"#utility.yul\":3847:3877   */\n      mstore\n      shl(0x9a, 0x1d1c985b9cd9995c8819985a5b)\n        /* \"#utility.yul\":3893:3911   */\n      0x44\n      dup3\n      add\n        /* \"#utility.yul\":3886:3929   */\n      mstore\n        /* \"#utility.yul\":3946:3964   */\n      0x64\n      add\n        /* \"Airdropper_flattened.sol\":3380:3471  require(IERC20(token).transferFrom(msg.sender, recipients[i], amountEach), \"transfer fail\") */\n      tag_16\n        /* \"#utility.yul\":3633:3970   */\n      jump\n        /* \"Airdropper_flattened.sol\":3380:3471  require(IERC20(token).transferFrom(msg.sender, recipients[i], amountEach), \"transfer fail\") */\n    tag_34:\n        /* \"Airdropper_flattened.sol\":3361:3364  i++ */\n      dup1\n      tag_37\n      dup2\n      tag_38\n      jump\t// in\n    tag_37:\n      swap2\n      pop\n      pop\n        /* \"Airdropper_flattened.sol\":3318:3482  for (uint256 i = 0; i < recipients.length; i++) {... */\n      jump(tag_20)\n    tag_21:\n      pop\n        /* \"Airdropper_flattened.sol\":3496:3539  Airdropped(token, recipients.length, total) */\n      0x40\n      dup1\n      mload\n        /* \"#utility.yul\":4289:4314   */\n      dup5\n      dup2\n      mstore\n        /* \"#utility.yul\":4345:4347   */\n      0x20\n        /* \"#utility.yul\":4330:4348   */\n      dup2\n      add\n        /* \"#utility.yul\":4323:4357   */\n      dup4\n      swap1\n      mstore\n      sub(shl(0xa0, 0x01), 0x01)\n        /* \"Airdropper_flattened.sol\":3496:3539  Airdropped(token, recipients.length, total) */\n      dup8\n      and\n      swap2\n      0x7a688d4878cbd39da9b81cf43a08dadd22473d543d60975431287ab6d22e220c\n      swap2\n        /* \"#utility.yul\":4262:4280   */\n      add\n        /* \"Airdropper_flattened.sol\":3496:3539  Airdropped(token, recipients.length, total) */\n      mload(0x40)\n      dup1\n      swap2\n      sub\n      swap1\n      log2\n        /* \"Airdropper_flattened.sol\":3176:3546  {... */\n      pop\n        /* \"Airdropper_flattened.sol\":3079:3546  function airdropEqual(address token, address[] calldata recipients, uint256 amountEach) external {... */\n      pop\n      pop\n      pop\n      pop\n      jump\t// out\n        /* \"Airdropper_flattened.sol\":3552:4051  function airdropAmounts(address token, address[] calldata recipients, uint256[] calldata amounts) external {... */\n    tag_12:\n        /* \"Airdropper_flattened.sol\":3677:3712  recipients.length == amounts.length */\n      dup3\n      dup2\n      eq\n        /* \"Airdropper_flattened.sol\":3677:3737  recipients.length == amounts.length && recipients.length > 0 */\n      dup1\n      iszero\n      tag_42\n      jumpi\n      pop\n        /* \"Airdropper_flattened.sol\":3716:3737  recipients.length > 0 */\n      dup3\n      iszero\n      iszero\n        /* \"Airdropper_flattened.sol\":3677:3737  recipients.length == amounts.length && recipients.length > 0 */\n    tag_42:\n        /* \"Airdropper_flattened.sol\":3669:3757  require(recipients.length == amounts.length && recipients.length > 0, \"Length mismatch\") */\n      tag_43\n      jumpi\n      mload(0x40)\n      shl(0xe5, 0x461bcd)\n      dup2\n      mstore\n        /* \"#utility.yul\":4570:4572   */\n      0x20\n        /* \"Airdropper_flattened.sol\":3669:3757  require(recipients.length == amounts.length && recipients.length > 0, \"Length mismatch\") */\n      0x04\n      dup3\n      add\n        /* \"#utility.yul\":4552:4573   */\n      mstore\n        /* \"#utility.yul\":4609:4611   */\n      0x0f\n        /* \"#utility.yul\":4589:4607   */\n      0x24\n      dup3\n      add\n        /* \"#utility.yul\":4582:4612   */\n      mstore\n      shl(0x8b, 0x098cadccee8d040dad2e6dac2e8c6d)\n        /* \"#utility.yul\":4628:4646   */\n      0x44\n      dup3\n      add\n        /* \"#utility.yul\":4621:4666   */\n      mstore\n        /* \"#utility.yul\":4683:4701   */\n      0x64\n      add\n        /* \"Airdropper_flattened.sol\":3669:3757  require(recipients.length == amounts.length && recipients.length > 0, \"Length mismatch\") */\n      tag_16\n        /* \"#utility.yul\":4368:4707   */\n      jump\n        /* \"Airdropper_flattened.sol\":3669:3757  require(recipients.length == amounts.length && recipients.length > 0, \"Length mismatch\") */\n    tag_43:\n        /* \"Airdropper_flattened.sol\":3767:3780  uint256 total */\n      0x00\n      dup1\n        /* \"Airdropper_flattened.sol\":3790:3987  for (uint256 i = 0; i < recipients.length; i++) {... */\n    tag_46:\n        /* \"Airdropper_flattened.sol\":3810:3831  i < recipients.length */\n      dup5\n      dup2\n      lt\n        /* \"Airdropper_flattened.sol\":3790:3987  for (uint256 i = 0; i < recipients.length; i++) {... */\n      iszero\n      tag_47\n      jumpi\n        /* \"Airdropper_flattened.sol\":3861:3868  amounts */\n      dup4\n      dup4\n        /* \"Airdropper_flattened.sol\":3869:3870  i */\n      dup3\n        /* \"Airdropper_flattened.sol\":3861:3871  amounts[i] */\n      dup2\n      dup2\n      lt\n      tag_50\n      jumpi\n      tag_50\n      tag_25\n      jump\t// in\n    tag_50:\n      swap1\n      pop\n      0x20\n      mul\n      add\n      calldataload\n        /* \"Airdropper_flattened.sol\":3852:3871  total += amounts[i] */\n      dup3\n      tag_51\n      swap2\n      swap1\n      tag_52\n      jump\t// in\n    tag_51:\n      swap2\n      pop\n        /* \"Airdropper_flattened.sol\":3900:3905  token */\n      dup7\n      sub(shl(0xa0, 0x01), 0x01)\n        /* \"Airdropper_flattened.sol\":3893:3919  IERC20(token).transferFrom */\n      and\n      0x23b872dd\n        /* \"Airdropper_flattened.sol\":3920:3930  msg.sender */\n      caller\n        /* \"Airdropper_flattened.sol\":3932:3942  recipients */\n      dup9\n      dup9\n        /* \"Airdropper_flattened.sol\":3943:3944  i */\n      dup6\n        /* \"Airdropper_flattened.sol\":3932:3945  recipients[i] */\n      dup2\n      dup2\n      lt\n      tag_54\n      jumpi\n      tag_54\n      tag_25\n      jump\t// in\n    tag_54:\n      swap1\n      pop\n      0x20\n      mul\n      add\n      0x20\n      dup2\n      add\n      swap1\n      tag_55\n      swap2\n      swap1\n      tag_27\n      jump\t// in\n    tag_55:\n        /* \"Airdropper_flattened.sol\":3947:3954  amounts */\n      dup8\n      dup8\n        /* \"Airdropper_flattened.sol\":3955:3956  i */\n      dup7\n        /* \"Airdropper_flattened.sol\":3947:3957  amounts[i] */\n      dup2\n      dup2\n      lt\n      tag_57\n      jumpi\n      tag_57\n      tag_25\n      jump\t// in\n    tag_57:\n        /* \"Airdropper_flattened.sol\":3893:3958  IERC20(token).transferFrom(msg.sender, recipients[i], amounts[i]) */\n      mload(0x40)\n      not(sub(shl(0xe0, 0x01), 0x01))\n      0xe0\n      dup9\n      swap1\n      shl\n      and\n      dup2\n      mstore\n      sub(shl(0xa0, 0x01), 0x01)\n        /* \"#utility.yul\":3229:3244   */\n      swap6\n      dup7\n      and\n        /* \"Airdropper_flattened.sol\":3893:3958  IERC20(token).transferFrom(msg.sender, recipients[i], amounts[i]) */\n      0x04\n      dup3\n      add\n        /* \"#utility.yul\":3211:3245   */\n      mstore\n        /* \"#utility.yul\":3281:3296   */\n      swap5\n      swap1\n      swap4\n      and\n        /* \"#utility.yul\":3261:3279   */\n      0x24\n      dup6\n      add\n        /* \"#utility.yul\":3254:3297   */\n      mstore\n      pop\n        /* \"Airdropper_flattened.sol\":3947:3957  amounts[i] */\n      0x20\n      swap1\n      swap2\n      mul\n      add\n      calldataload\n        /* \"#utility.yul\":3313:3331   */\n      0x44\n      dup3\n      add\n        /* \"#utility.yul\":3306:3340   */\n      mstore\n        /* \"#utility.yul\":3146:3164   */\n      0x64\n      add\n        /* \"Airdropper_flattened.sol\":3893:3958  IERC20(token).transferFrom(msg.sender, recipients[i], amounts[i]) */\n      0x20\n      mload(0x40)\n      dup1\n      dup4\n      sub\n      dup2\n      0x00\n      dup8\n      gas\n      call\n      iszero\n      dup1\n      iszero\n      tag_60\n      jumpi\n      returndatasize\n      0x00\n      dup1\n      returndatacopy\n      revert(0x00, returndatasize)\n    tag_60:\n      pop\n      pop\n      pop\n      pop\n      mload(0x40)\n      returndatasize\n      not(0x1f)\n      0x1f\n      dup3\n      add\n      and\n      dup3\n      add\n      dup1\n      0x40\n      mstore\n      pop\n      dup2\n      add\n      swap1\n      tag_61\n      swap2\n      swap1\n      tag_33\n      jump\t// in\n    tag_61:\n        /* \"Airdropper_flattened.sol\":3885:3976  require(IERC20(token).transferFrom(msg.sender, recipients[i], amounts[i]), \"transfer fail\") */\n      tag_62\n      jumpi\n      mload(0x40)\n      shl(0xe5, 0x461bcd)\n      dup2\n      mstore\n        /* \"#utility.yul\":3835:3837   */\n      0x20\n        /* \"Airdropper_flattened.sol\":3885:3976  require(IERC20(token).transferFrom(msg.sender, recipients[i], amounts[i]), \"transfer fail\") */\n      0x04\n      dup3\n      add\n        /* \"#utility.yul\":3817:3838   */\n      mstore\n        /* \"#utility.yul\":3874:3876   */\n      0x0d\n        /* \"#utility.yul\":3854:3872   */\n      0x24\n      dup3\n      add\n        /* \"#utility.yul\":3847:3877   */\n      mstore\n      shl(0x9a, 0x1d1c985b9cd9995c8819985a5b)\n        /* \"#utility.yul\":3893:3911   */\n      0x44\n      dup3\n      add\n        /* \"#utility.yul\":3886:3929   */\n      mstore\n        /* \"#utility.yul\":3946:3964   */\n      0x64\n      add\n        /* \"Airdropper_flattened.sol\":3885:3976  require(IERC20(token).transferFrom(msg.sender, recipients[i], amounts[i]), \"transfer fail\") */\n      tag_16\n        /* \"#utility.yul\":3633:3970   */\n      jump\n        /* \"Airdropper_flattened.sol\":3885:3976  require(IERC20(token).transferFrom(msg.sender, recipients[i], amounts[i]), \"transfer fail\") */\n    tag_62:\n        /* \"Airdropper_flattened.sol\":3833:3836  i++ */\n      dup1\n      tag_64\n      dup2\n      tag_38\n      jump\t// in\n    tag_64:\n      swap2\n      pop\n      pop\n        /* \"Airdropper_flattened.sol\":3790:3987  for (uint256 i = 0; i < recipients.length; i++) {... */\n      jump(tag_46)\n    tag_47:\n      pop\n        /* \"Airdropper_flattened.sol\":4001:4044  Airdropped(token, recipients.length, total) */\n      0x40\n      dup1\n      mload\n        /* \"#utility.yul\":4289:4314   */\n      dup6\n      dup2\n      mstore\n        /* \"#utility.yul\":4345:4347   */\n      0x20\n        /* \"#utility.yul\":4330:4348   */\n      dup2\n      add\n        /* \"#utility.yul\":4323:4357   */\n      dup4\n      swap1\n      mstore\n      sub(shl(0xa0, 0x01), 0x01)\n        /* \"Airdropper_flattened.sol\":4001:4044  Airdropped(token, recipients.length, total) */\n      dup9\n      and\n      swap2\n      0x7a688d4878cbd39da9b81cf43a08dadd22473d543d60975431287ab6d22e220c\n      swap2\n        /* \"#utility.yul\":4262:4280   */\n      add\n        /* \"Airdropper_flattened.sol\":4001:4044  Airdropped(token, recipients.length, total) */\n      mload(0x40)\n      dup1\n      swap2\n      sub\n      swap1\n      log2\n        /* \"Airdropper_flattened.sol\":3659:4051  {... */\n      pop\n        /* \"Airdropper_flattened.sol\":3552:4051  function airdropAmounts(address token, address[] calldata recipients, uint256[] calldata amounts) external {... */\n      pop\n      pop\n      pop\n      pop\n      pop\n      jump\t// out\n        /* \"#utility.yul\":14:187   */\n    tag_66:\n        /* \"#utility.yul\":82:102   */\n      dup1\n      calldataload\n      sub(shl(0xa0, 0x01), 0x01)\n        /* \"#utility.yul\":131:162   */\n      dup2\n      and\n        /* \"#utility.yul\":121:163   */\n      dup2\n      eq\n        /* \"#utility.yul\":111:181   */\n      tag_71\n      jumpi\n        /* \"#utility.yul\":177:178   */\n      0x00\n        /* \"#utility.yul\":174:175   */\n      dup1\n        /* \"#utility.yul\":167:179   */\n      revert\n        /* \"#utility.yul\":111:181   */\n    tag_71:\n        /* \"#utility.yul\":14:187   */\n      swap2\n      swap1\n      pop\n      jump\t// out\n        /* \"#utility.yul\":192:559   */\n    tag_67:\n        /* \"#utility.yul\":255:263   */\n      0x00\n        /* \"#utility.yul\":265:271   */\n      dup1\n        /* \"#utility.yul\":319:322   */\n      dup4\n        /* \"#utility.yul\":312:316   */\n      0x1f\n        /* \"#utility.yul\":304:310   */\n      dup5\n        /* \"#utility.yul\":300:317   */\n      add\n        /* \"#utility.yul\":296:323   */\n      slt\n        /* \"#utility.yul\":286:341   */\n      tag_73\n      jumpi\n        /* \"#utility.yul\":337:338   */\n      0x00\n        /* \"#utility.yul\":334:335   */\n      dup1\n        /* \"#utility.yul\":327:339   */\n      revert\n        /* \"#utility.yul\":286:341   */\n    tag_73:\n      pop\n        /* \"#utility.yul\":360:380   */\n      dup2\n      calldataload\n        /* \"#utility.yul\":403:421   */\n      0xffffffffffffffff\n        /* \"#utility.yul\":392:422   */\n      dup2\n      gt\n        /* \"#utility.yul\":389:439   */\n      iszero\n      tag_74\n      jumpi\n        /* \"#utility.yul\":435:436   */\n      0x00\n        /* \"#utility.yul\":432:433   */\n      dup1\n        /* \"#utility.yul\":425:437   */\n      revert\n        /* \"#utility.yul\":389:439   */\n    tag_74:\n        /* \"#utility.yul\":472:476   */\n      0x20\n        /* \"#utility.yul\":464:470   */\n      dup4\n        /* \"#utility.yul\":460:477   */\n      add\n        /* \"#utility.yul\":448:477   */\n      swap2\n      pop\n        /* \"#utility.yul\":532:535   */\n      dup4\n        /* \"#utility.yul\":525:529   */\n      0x20\n        /* \"#utility.yul\":515:521   */\n      dup3\n        /* \"#utility.yul\":512:513   */\n      0x05\n        /* \"#utility.yul\":508:522   */\n      shl\n        /* \"#utility.yul\":500:506   */\n      dup6\n        /* \"#utility.yul\":496:523   */\n      add\n        /* \"#utility.yul\":492:530   */\n      add\n        /* \"#utility.yul\":489:536   */\n      gt\n        /* \"#utility.yul\":486:553   */\n      iszero\n      tag_75\n      jumpi\n        /* \"#utility.yul\":549:550   */\n      0x00\n        /* \"#utility.yul\":546:547   */\n      dup1\n        /* \"#utility.yul\":539:551   */\n      revert\n        /* \"#utility.yul\":486:553   */\n    tag_75:\n        /* \"#utility.yul\":192:559   */\n      swap3\n      pop\n      swap3\n      swap1\n      pop\n      jump\t// out\n        /* \"#utility.yul\":564:1143   */\n    tag_7:\n        /* \"#utility.yul\":668:674   */\n      0x00\n        /* \"#utility.yul\":676:682   */\n      dup1\n        /* \"#utility.yul\":684:690   */\n      0x00\n        /* \"#utility.yul\":692:698   */\n      dup1\n        /* \"#utility.yul\":745:747   */\n      0x60\n        /* \"#utility.yul\":733:742   */\n      dup6\n        /* \"#utility.yul\":724:731   */\n      dup8\n        /* \"#utility.yul\":720:743   */\n      sub\n        /* \"#utility.yul\":716:748   */\n      slt\n        /* \"#utility.yul\":713:765   */\n      iszero\n      tag_77\n      jumpi\n        /* \"#utility.yul\":761:762   */\n      0x00\n        /* \"#utility.yul\":758:759   */\n      dup1\n        /* \"#utility.yul\":751:763   */\n      revert\n        /* \"#utility.yul\":713:765   */\n    tag_77:\n        /* \"#utility.yul\":784:813   */\n      tag_78\n        /* \"#utility.yul\":803:812   */\n      dup6\n        /* \"#utility.yul\":784:813   */\n      tag_66\n      jump\t// in\n    tag_78:\n        /* \"#utility.yul\":774:813   */\n      swap4\n      pop\n        /* \"#utility.yul\":864:866   */\n      0x20\n        /* \"#utility.yul\":853:862   */\n      dup6\n        /* \"#utility.yul\":849:867   */\n      add\n        /* \"#utility.yul\":836:868   */\n      calldataload\n        /* \"#utility.yul\":891:909   */\n      0xffffffffffffffff\n        /* \"#utility.yul\":883:889   */\n      dup2\n        /* \"#utility.yul\":880:910   */\n      gt\n        /* \"#utility.yul\":877:927   */\n      iszero\n      tag_79\n      jumpi\n        /* \"#utility.yul\":923:924   */\n      0x00\n        /* \"#utility.yul\":920:921   */\n      dup1\n        /* \"#utility.yul\":913:925   */\n      revert\n        /* \"#utility.yul\":877:927   */\n    tag_79:\n        /* \"#utility.yul\":962:1032   */\n      tag_80\n        /* \"#utility.yul\":1024:1031   */\n      dup8\n        /* \"#utility.yul\":1015:1021   */\n      dup3\n        /* \"#utility.yul\":1004:1013   */\n      dup9\n        /* \"#utility.yul\":1000:1022   */\n      add\n        /* \"#utility.yul\":962:1032   */\n      tag_67\n      jump\t// in\n    tag_80:\n        /* \"#utility.yul\":564:1143   */\n      swap6\n      swap9\n        /* \"#utility.yul\":1051:1059   */\n      swap1\n      swap8\n      pop\n        /* \"#utility.yul\":936:1032   */\n      swap5\n      swap6\n        /* \"#utility.yul\":1133:1135   */\n      0x40\n        /* \"#utility.yul\":1118:1136   */\n      add\n        /* \"#utility.yul\":1105:1137   */\n      calldataload\n      swap5\n        /* \"#utility.yul\":564:1143   */\n      swap4\n      pop\n      pop\n      pop\n      pop\n      jump\t// out\n        /* \"#utility.yul\":1148:1995   */\n    tag_11:\n        /* \"#utility.yul\":1279:1285   */\n      0x00\n        /* \"#utility.yul\":1287:1293   */\n      dup1\n        /* \"#utility.yul\":1295:1301   */\n      0x00\n        /* \"#utility.yul\":1303:1309   */\n      dup1\n        /* \"#utility.yul\":1311:1317   */\n      0x00\n        /* \"#utility.yul\":1364:1366   */\n      0x60\n        /* \"#utility.yul\":1352:1361   */\n      dup7\n        /* \"#utility.yul\":1343:1350   */\n      dup9\n        /* \"#utility.yul\":1339:1362   */\n      sub\n        /* \"#utility.yul\":1335:1367   */\n      slt\n        /* \"#utility.yul\":1332:1384   */\n      iszero\n      tag_82\n      jumpi\n        /* \"#utility.yul\":1380:1381   */\n      0x00\n        /* \"#utility.yul\":1377:1378   */\n      dup1\n        /* \"#utility.yul\":1370:1382   */\n      revert\n        /* \"#utility.yul\":1332:1384   */\n    tag_82:\n        /* \"#utility.yul\":1403:1432   */\n      tag_83\n        /* \"#utility.yul\":1422:1431   */\n      dup7\n        /* \"#utility.yul\":1403:1432   */\n      tag_66\n      jump\t// in\n    tag_83:\n        /* \"#utility.yul\":1393:1432   */\n      swap5\n      pop\n        /* \"#utility.yul\":1483:1485   */\n      0x20\n        /* \"#utility.yul\":1472:1481   */\n      dup7\n        /* \"#utility.yul\":1468:1486   */\n      add\n        /* \"#utility.yul\":1455:1487   */\n      calldataload\n        /* \"#utility.yul\":1506:1524   */\n      0xffffffffffffffff\n        /* \"#utility.yul\":1547:1549   */\n      dup1\n        /* \"#utility.yul\":1539:1545   */\n      dup3\n        /* \"#utility.yul\":1536:1550   */\n      gt\n        /* \"#utility.yul\":1533:1567   */\n      iszero\n      tag_84\n      jumpi\n        /* \"#utility.yul\":1563:1564   */\n      0x00\n        /* \"#utility.yul\":1560:1561   */\n      dup1\n        /* \"#utility.yul\":1553:1565   */\n      revert\n        /* \"#utility.yul\":1533:1567   */\n    tag_84:\n        /* \"#utility.yul\":1602:1672   */\n      tag_85\n        /* \"#utility.yul\":1664:1671   */\n      dup10\n        /* \"#utility.yul\":1655:1661   */\n      dup4\n        /* \"#utility.yul\":1644:1653   */\n      dup11\n        /* \"#utility.yul\":1640:1662   */\n      add\n        /* \"#utility.yul\":1602:1672   */\n      tag_67\n      jump\t// in\n    tag_85:\n        /* \"#utility.yul\":1691:1699   */\n      swap1\n      swap7\n      pop\n        /* \"#utility.yul\":1576:1672   */\n      swap5\n      pop\n        /* \"#utility.yul\":1779:1781   */\n      0x40\n        /* \"#utility.yul\":1764:1782   */\n      dup9\n      add\n        /* \"#utility.yul\":1751:1783   */\n      calldataload\n      swap2\n      pop\n        /* \"#utility.yul\":1795:1811   */\n      dup1\n      dup3\n      gt\n        /* \"#utility.yul\":1792:1828   */\n      iszero\n      tag_86\n      jumpi\n        /* \"#utility.yul\":1824:1825   */\n      0x00\n        /* \"#utility.yul\":1821:1822   */\n      dup1\n        /* \"#utility.yul\":1814:1826   */\n      revert\n        /* \"#utility.yul\":1792:1828   */\n    tag_86:\n      pop\n        /* \"#utility.yul\":1863:1935   */\n      tag_87\n        /* \"#utility.yul\":1927:1934   */\n      dup9\n        /* \"#utility.yul\":1916:1924   */\n      dup3\n        /* \"#utility.yul\":1905:1914   */\n      dup10\n        /* \"#utility.yul\":1901:1925   */\n      add\n        /* \"#utility.yul\":1863:1935   */\n      tag_67\n      jump\t// in\n    tag_87:\n        /* \"#utility.yul\":1148:1995   */\n      swap7\n      swap10\n      swap6\n      swap9\n      pop\n      swap4\n      swap7\n      pop\n        /* \"#utility.yul\":1954:1962   */\n      swap3\n      swap5\n        /* \"#utility.yul\":1837:1935   */\n      swap4\n        /* \"#utility.yul\":1148:1995   */\n      swap3\n      pop\n      pop\n      pop\n      jump\t// out\n        /* \"#utility.yul\":2343:2470   */\n    tag_68:\n        /* \"#utility.yul\":2404:2414   */\n      0x4e487b71\n        /* \"#utility.yul\":2399:2402   */\n      0xe0\n        /* \"#utility.yul\":2395:2415   */\n      shl\n        /* \"#utility.yul\":2392:2393   */\n      0x00\n        /* \"#utility.yul\":2385:2416   */\n      mstore\n        /* \"#utility.yul\":2435:2439   */\n      0x11\n        /* \"#utility.yul\":2432:2433   */\n      0x04\n        /* \"#utility.yul\":2425:2440   */\n      mstore\n        /* \"#utility.yul\":2459:2463   */\n      0x24\n        /* \"#utility.yul\":2456:2457   */\n      0x00\n        /* \"#utility.yul\":2449:2464   */\n      revert\n        /* \"#utility.yul\":2475:2643   */\n    tag_19:\n        /* \"#utility.yul\":2548:2557   */\n      dup1\n      dup3\n      mul\n        /* \"#utility.yul\":2579:2588   */\n      dup2\n      iszero\n        /* \"#utility.yul\":2596:2611   */\n      dup3\n      dup3\n      div\n        /* \"#utility.yul\":2590:2612   */\n      dup5\n      eq\n        /* \"#utility.yul\":2576:2613   */\n      or\n        /* \"#utility.yul\":2566:2637   */\n      tag_92\n      jumpi\n        /* \"#utility.yul\":2617:2635   */\n      tag_92\n      tag_68\n      jump\t// in\n    tag_92:\n        /* \"#utility.yul\":2475:2643   */\n      swap3\n      swap2\n      pop\n      pop\n      jump\t// out\n        /* \"#utility.yul\":2648:2775   */\n    tag_25:\n        /* \"#utility.yul\":2709:2719   */\n      0x4e487b71\n        /* \"#utility.yul\":2704:2707   */\n      0xe0\n        /* \"#utility.yul\":2700:2720   */\n      shl\n        /* \"#utility.yul\":2697:2698   */\n      0x00\n        /* \"#utility.yul\":2690:2721   */\n      mstore\n        /* \"#utility.yul\":2740:2744   */\n      0x32\n        /* \"#utility.yul\":2737:2738   */\n      0x04\n        /* \"#utility.yul\":2730:2745   */\n      mstore\n        /* \"#utility.yul\":2764:2768   */\n      0x24\n        /* \"#utility.yul\":2761:2762   */\n      0x00\n        /* \"#utility.yul\":2754:2769   */\n      revert\n        /* \"#utility.yul\":2780:2966   */\n    tag_27:\n        /* \"#utility.yul\":2839:2845   */\n      0x00\n        /* \"#utility.yul\":2892:2894   */\n      0x20\n        /* \"#utility.yul\":2880:2889   */\n      dup3\n        /* \"#utility.yul\":2871:2878   */\n      dup5\n        /* \"#utility.yul\":2867:2890   */\n      sub\n        /* \"#utility.yul\":2863:2895   */\n      slt\n        /* \"#utility.yul\":2860:2912   */\n      iszero\n      tag_95\n      jumpi\n        /* \"#utility.yul\":2908:2909   */\n      0x00\n        /* \"#utility.yul\":2905:2906   */\n      dup1\n        /* \"#utility.yul\":2898:2910   */\n      revert\n        /* \"#utility.yul\":2860:2912   */\n    tag_95:\n        /* \"#utility.yul\":2931:2960   */\n      tag_96\n        /* \"#utility.yul\":2950:2959   */\n      dup3\n        /* \"#utility.yul\":2931:2960   */\n      tag_66\n      jump\t// in\n    tag_96:\n        /* \"#utility.yul\":2921:2960   */\n      swap4\n        /* \"#utility.yul\":2780:2966   */\n      swap3\n      pop\n      pop\n      pop\n      jump\t// out\n        /* \"#utility.yul\":3351:3628   */\n    tag_33:\n        /* \"#utility.yul\":3418:3424   */\n      0x00\n        /* \"#utility.yul\":3471:3473   */\n      0x20\n        /* \"#utility.yul\":3459:3468   */\n      dup3\n        /* \"#utility.yul\":3450:3457   */\n      dup5\n        /* \"#utility.yul\":3446:3469   */\n      sub\n        /* \"#utility.yul\":3442:3474   */\n      slt\n        /* \"#utility.yul\":3439:3491   */\n      iszero\n      tag_99\n      jumpi\n        /* \"#utility.yul\":3487:3488   */\n      0x00\n        /* \"#utility.yul\":3484:3485   */\n      dup1\n        /* \"#utility.yul\":3477:3489   */\n      revert\n        /* \"#utility.yul\":3439:3491   */\n    tag_99:\n        /* \"#utility.yul\":3519:3528   */\n      dup2\n        /* \"#utility.yul\":3513:3529   */\n      mload\n        /* \"#utility.yul\":3572:3577   */\n      dup1\n        /* \"#utility.yul\":3565:3578   */\n      iszero\n        /* \"#utility.yul\":3558:3579   */\n      iszero\n        /* \"#utility.yul\":3551:3556   */\n      dup2\n        /* \"#utility.yul\":3548:3580   */\n      eq\n        /* \"#utility.yul\":3538:3598   */\n      tag_96\n      jumpi\n        /* \"#utility.yul\":3594:3595   */\n      0x00\n        /* \"#utility.yul\":3591:3592   */\n      dup1\n        /* \"#utility.yul\":3584:3596   */\n      revert\n        /* \"#utility.yul\":3975:4110   */\n    tag_38:\n        /* \"#utility.yul\":4014:4017   */\n      0x00\n        /* \"#utility.yul\":4035:4052   */\n      0x01\n      dup3\n      add\n        /* \"#utility.yul\":4032:4075   */\n      tag_104\n      jumpi\n        /* \"#utility.yul\":4055:4073   */\n      tag_104\n      tag_68\n      jump\t// in\n    tag_104:\n      pop\n        /* \"#utility.yul\":4102:4103   */\n      0x01\n        /* \"#utility.yul\":4091:4104   */\n      add\n      swap1\n        /* \"#utility.yul\":3975:4110   */\n      jump\t// out\n        /* \"#utility.yul\":4712:4837   */\n    tag_52:\n        /* \"#utility.yul\":4777:4786   */\n      dup1\n      dup3\n      add\n        /* \"#utility.yul\":4798:4808   */\n      dup1\n      dup3\n      gt\n        /* \"#utility.yul\":4795:4831   */\n      iszero\n      tag_92\n      jumpi\n        /* \"#utility.yul\":4811:4829   */\n      tag_92\n      tag_68\n      jump\t// in\n\n    auxdata: 0xa26469706673582212204b87a8e5cc36422d9cafbbb40366cba7ca55626a6d545dba367b44708a60dad264736f6c63430008140033\n}\n",
				"bytecode": {
					"linkReferences": {},
					"object": "608060405234801561000f575f80fd5b506106048061001d5f395ff3fe608060405234801561000f575f80fd5b5060043610610034575f3560e01c806362ed481514610038578063ac09bed21461004d575b5f80fd5b61004b61004636600461044e565b610060565b005b61004b61005b3660046104a4565b61020d565b5f8111801561006e57508115155b6100b05760405162461bcd60e51b815260206004820152600e60248201526d496e76616c696420706172616d7360901b60448201526064015b60405180910390fd5b5f6100bb8383610533565b90505f5b838110156101c157856001600160a01b03166323b872dd338787858181106100e9576100e9610550565b90506020020160208101906100fe9190610564565b6040516001600160e01b031960e085901b1681526001600160a01b03928316600482015291166024820152604481018690526064016020604051808303815f875af115801561014f573d5f803e3d5ffd5b505050506040513d601f19601f820116820180604052508101906101739190610584565b6101af5760405162461bcd60e51b815260206004820152600d60248201526c1d1c985b9cd9995c8819985a5b609a1b60448201526064016100a7565b806101b9816105a3565b9150506100bf565b5060408051848152602081018390526001600160a01b038716917f7a688d4878cbd39da9b81cf43a08dadd22473d543d60975431287ab6d22e220c910160405180910390a25050505050565b828114801561021b57508215155b6102595760405162461bcd60e51b815260206004820152600f60248201526e098cadccee8d040dad2e6dac2e8c6d608b1b60448201526064016100a7565b5f805b8481101561039e5783838281811061027657610276610550565b905060200201358261028891906105bb565b9150866001600160a01b03166323b872dd338888858181106102ac576102ac610550565b90506020020160208101906102c19190610564565b8787868181106102d3576102d3610550565b6040516001600160e01b031960e088901b1681526001600160a01b039586166004820152949093166024850152506020909102013560448201526064016020604051808303815f875af115801561032c573d5f803e3d5ffd5b505050506040513d601f19601f820116820180604052508101906103509190610584565b61038c5760405162461bcd60e51b815260206004820152600d60248201526c1d1c985b9cd9995c8819985a5b609a1b60448201526064016100a7565b80610396816105a3565b91505061025c565b5060408051858152602081018390526001600160a01b038816917f7a688d4878cbd39da9b81cf43a08dadd22473d543d60975431287ab6d22e220c910160405180910390a2505050505050565b80356001600160a01b0381168114610401575f80fd5b919050565b5f8083601f840112610416575f80fd5b50813567ffffffffffffffff81111561042d575f80fd5b6020830191508360208260051b8501011115610447575f80fd5b9250929050565b5f805f8060608587031215610461575f80fd5b61046a856103eb565b9350602085013567ffffffffffffffff811115610485575f80fd5b61049187828801610406565b9598909750949560400135949350505050565b5f805f805f606086880312156104b8575f80fd5b6104c1866103eb565b9450602086013567ffffffffffffffff808211156104dd575f80fd5b6104e989838a01610406565b90965094506040880135915080821115610501575f80fd5b5061050e88828901610406565b969995985093965092949392505050565b634e487b7160e01b5f52601160045260245ffd5b808202811582820484141761054a5761054a61051f565b92915050565b634e487b7160e01b5f52603260045260245ffd5b5f60208284031215610574575f80fd5b61057d826103eb565b9392505050565b5f60208284031215610594575f80fd5b8151801515811461057d575f80fd5b5f600182016105b4576105b461051f565b5060010190565b8082018082111561054a5761054a61051f56fea26469706673582212204b87a8e5cc36422d9cafbbb40366cba7ca55626a6d545dba367b44708a60dad264736f6c63430008140033",
					"opcodes": "PUSH1 0x80 PUSH1 0x40 MSTORE CALLVALUE DUP1 ISZERO PUSH2 0xF JUMPI PUSH0 DUP1 REVERT JUMPDEST POP PUSH2 0x604 DUP1 PUSH2 0x1D PUSH0 CODECOPY PUSH0 RETURN INVALID PUSH1 0x80 PUSH1 0x40 MSTORE CALLVALUE DUP1 ISZERO PUSH2 0xF JUMPI PUSH0 DUP1 REVERT JUMPDEST POP PUSH1 0x4 CALLDATASIZE LT PUSH2 0x34 JUMPI PUSH0 CALLDATALOAD PUSH1 0xE0 SHR DUP1 PUSH4 0x62ED4815 EQ PUSH2 0x38 JUMPI DUP1 PUSH4 0xAC09BED2 EQ PUSH2 0x4D JUMPI JUMPDEST PUSH0 DUP1 REVERT JUMPDEST PUSH2 0x4B PUSH2 0x46 CALLDATASIZE PUSH1 0x4 PUSH2 0x44E JUMP JUMPDEST PUSH2 0x60 JUMP JUMPDEST STOP JUMPDEST PUSH2 0x4B PUSH2 0x5B CALLDATASIZE PUSH1 0x4 PUSH2 0x4A4 JUMP JUMPDEST PUSH2 0x20D JUMP JUMPDEST PUSH0 DUP2 GT DUP1 ISZERO PUSH2 0x6E JUMPI POP DUP2 ISZERO ISZERO JUMPDEST PUSH2 0xB0 JUMPI PUSH1 0x40 MLOAD PUSH3 0x461BCD PUSH1 0xE5 SHL DUP2 MSTORE PUSH1 0x20 PUSH1 0x4 DUP3 ADD MSTORE PUSH1 0xE PUSH1 0x24 DUP3 ADD MSTORE PUSH14 0x496E76616C696420706172616D73 PUSH1 0x90 SHL PUSH1 0x44 DUP3 ADD MSTORE PUSH1 0x64 ADD JUMPDEST PUSH1 0x40 MLOAD DUP1 SWAP2 SUB SWAP1 REVERT JUMPDEST PUSH0 PUSH2 0xBB DUP4 DUP4 PUSH2 0x533 JUMP JUMPDEST SWAP1 POP PUSH0 JUMPDEST DUP4 DUP2 LT ISZERO PUSH2 0x1C1 JUMPI DUP6 PUSH1 0x1 PUSH1 0x1 PUSH1 0xA0 SHL SUB AND PUSH4 0x23B872DD CALLER DUP8 DUP8 DUP6 DUP2 DUP2 LT PUSH2 0xE9 JUMPI PUSH2 0xE9 PUSH2 0x550 JUMP JUMPDEST SWAP1 POP PUSH1 0x20 MUL ADD PUSH1 0x20 DUP2 ADD SWAP1 PUSH2 0xFE SWAP2 SWAP1 PUSH2 0x564 JUMP JUMPDEST PUSH1 0x40 MLOAD PUSH1 0x1 PUSH1 0x1 PUSH1 0xE0 SHL SUB NOT PUSH1 0xE0 DUP6 SWAP1 SHL AND DUP2 MSTORE PUSH1 0x1 PUSH1 0x1 PUSH1 0xA0 SHL SUB SWAP3 DUP4 AND PUSH1 0x4 DUP3 ADD MSTORE SWAP2 AND PUSH1 0x24 DUP3 ADD MSTORE PUSH1 0x44 DUP2 ADD DUP7 SWAP1 MSTORE PUSH1 0x64 ADD PUSH1 0x20 PUSH1 0x40 MLOAD DUP1 DUP4 SUB DUP2 PUSH0 DUP8 GAS CALL ISZERO DUP1 ISZERO PUSH2 0x14F JUMPI RETURNDATASIZE PUSH0 DUP1 RETURNDATACOPY RETURNDATASIZE PUSH0 REVERT JUMPDEST POP POP POP POP PUSH1 0x40 MLOAD RETURNDATASIZE PUSH1 0x1F NOT PUSH1 0x1F DUP3 ADD AND DUP3 ADD DUP1 PUSH1 0x40 MSTORE POP DUP2 ADD SWAP1 PUSH2 0x173 SWAP2 SWAP1 PUSH2 0x584 JUMP JUMPDEST PUSH2 0x1AF JUMPI PUSH1 0x40 MLOAD PUSH3 0x461BCD PUSH1 0xE5 SHL DUP2 MSTORE PUSH1 0x20 PUSH1 0x4 DUP3 ADD MSTORE PUSH1 0xD PUSH1 0x24 DUP3 ADD MSTORE PUSH13 0x1D1C985B9CD9995C8819985A5B PUSH1 0x9A SHL PUSH1 0x44 DUP3 ADD MSTORE PUSH1 0x64 ADD PUSH2 0xA7 JUMP JUMPDEST DUP1 PUSH2 0x1B9 DUP2 PUSH2 0x5A3 JUMP JUMPDEST SWAP2 POP POP PUSH2 0xBF JUMP JUMPDEST POP PUSH1 0x40 DUP1 MLOAD DUP5 DUP2 MSTORE PUSH1 0x20 DUP2 ADD DUP4 SWAP1 MSTORE PUSH1 0x1 PUSH1 0x1 PUSH1 0xA0 SHL SUB DUP8 AND SWAP2 PUSH32 0x7A688D4878CBD39DA9B81CF43A08DADD22473D543D60975431287AB6D22E220C SWAP2 ADD PUSH1 0x40 MLOAD DUP1 SWAP2 SUB SWAP1 LOG2 POP POP POP POP POP JUMP JUMPDEST DUP3 DUP2 EQ DUP1 ISZERO PUSH2 0x21B JUMPI POP DUP3 ISZERO ISZERO JUMPDEST PUSH2 0x259 JUMPI PUSH1 0x40 MLOAD PUSH3 0x461BCD PUSH1 0xE5 SHL DUP2 MSTORE PUSH1 0x20 PUSH1 0x4 DUP3 ADD MSTORE PUSH1 0xF PUSH1 0x24 DUP3 ADD MSTORE PUSH15 0x98CADCCEE8D040DAD2E6DAC2E8C6D PUSH1 0x8B SHL PUSH1 0x44 DUP3 ADD MSTORE PUSH1 0x64 ADD PUSH2 0xA7 JUMP JUMPDEST PUSH0 DUP1 JUMPDEST DUP5 DUP2 LT ISZERO PUSH2 0x39E JUMPI DUP4 DUP4 DUP3 DUP2 DUP2 LT PUSH2 0x276 JUMPI PUSH2 0x276 PUSH2 0x550 JUMP JUMPDEST SWAP1 POP PUSH1 0x20 MUL ADD CALLDATALOAD DUP3 PUSH2 0x288 SWAP2 SWAP1 PUSH2 0x5BB JUMP JUMPDEST SWAP2 POP DUP7 PUSH1 0x1 PUSH1 0x1 PUSH1 0xA0 SHL SUB AND PUSH4 0x23B872DD CALLER DUP9 DUP9 DUP6 DUP2 DUP2 LT PUSH2 0x2AC JUMPI PUSH2 0x2AC PUSH2 0x550 JUMP JUMPDEST SWAP1 POP PUSH1 0x20 MUL ADD PUSH1 0x20 DUP2 ADD SWAP1 PUSH2 0x2C1 SWAP2 SWAP1 PUSH2 0x564 JUMP JUMPDEST DUP8 DUP8 DUP7 DUP2 DUP2 LT PUSH2 0x2D3 JUMPI PUSH2 0x2D3 PUSH2 0x550 JUMP JUMPDEST PUSH1 0x40 MLOAD PUSH1 0x1 PUSH1 0x1 PUSH1 0xE0 SHL SUB NOT PUSH1 0xE0 DUP9 SWAP1 SHL AND DUP2 MSTORE PUSH1 0x1 PUSH1 0x1 PUSH1 0xA0 SHL SUB SWAP6 DUP7 AND PUSH1 0x4 DUP3 ADD MSTORE SWAP5 SWAP1 SWAP4 AND PUSH1 0x24 DUP6 ADD MSTORE POP PUSH1 0x20 SWAP1 SWAP2 MUL ADD CALLDATALOAD PUSH1 0x44 DUP3 ADD MSTORE PUSH1 0x64 ADD PUSH1 0x20 PUSH1 0x40 MLOAD DUP1 DUP4 SUB DUP2 PUSH0 DUP8 GAS CALL ISZERO DUP1 ISZERO PUSH2 0x32C JUMPI RETURNDATASIZE PUSH0 DUP1 RETURNDATACOPY RETURNDATASIZE PUSH0 REVERT JUMPDEST POP POP POP POP PUSH1 0x40 MLOAD RETURNDATASIZE PUSH1 0x1F NOT PUSH1 0x1F DUP3 ADD AND DUP3 ADD DUP1 PUSH1 0x40 MSTORE POP DUP2 ADD SWAP1 PUSH2 0x350 SWAP2 SWAP1 PUSH2 0x584 JUMP JUMPDEST PUSH2 0x38C JUMPI PUSH1 0x40 MLOAD PUSH3 0x461BCD PUSH1 0xE5 SHL DUP2 MSTORE PUSH1 0x20 PUSH1 0x4 DUP3 ADD MSTORE PUSH1 0xD PUSH1 0x24 DUP3 ADD MSTORE PUSH13 0x1D1C985B9CD9995C8819985A5B PUSH1 0x9A SHL PUSH1 0x44 DUP3 ADD MSTORE PUSH1 0x64 ADD PUSH2 0xA7 JUMP JUMPDEST DUP1 PUSH2 0x396 DUP2 PUSH2 0x5A3 JUMP JUMPDEST SWAP2 POP POP PUSH2 0x25C JUMP JUMPDEST POP PUSH1 0x40 DUP1 MLOAD DUP6 DUP2 MSTORE PUSH1 0x20 DUP2 ADD DUP4 SWAP1 MSTORE PUSH1 0x1 PUSH1 0x1 PUSH1 0xA0 SHL SUB DUP9 AND SWAP2 PUSH32 0x7A688D4878CBD39DA9B81CF43A08DADD22473D543D60975431287AB6D22E220C SWAP2 ADD PUSH1 0x40 MLOAD DUP1 SWAP2 SUB SWAP1 LOG2 POP POP POP POP POP POP JUMP JUMPDEST DUP1 CALLDATALOAD PUSH1 0x1 PUSH1 0x1 PUSH1 0xA0 SHL SUB DUP2 AND DUP2 EQ PUSH2 0x401 JUMPI PUSH0 DUP1 REVERT JUMPDEST SWAP2 SWAP1 POP JUMP JUMPDEST PUSH0 DUP1 DUP4 PUSH1 0x1F DUP5 ADD SLT PUSH2 0x416 JUMPI PUSH0 DUP1 REVERT JUMPDEST POP DUP2 CALLDATALOAD PUSH8 0xFFFFFFFFFFFFFFFF DUP2 GT ISZERO PUSH2 0x42D JUMPI PUSH0 DUP1 REVERT JUMPDEST PUSH1 0x20 DUP4 ADD SWAP2 POP DUP4 PUSH1 0x20 DUP3 PUSH1 0x5 SHL DUP6 ADD ADD GT ISZERO PUSH2 0x447 JUMPI PUSH0 DUP1 REVERT JUMPDEST SWAP3 POP SWAP3 SWAP1 POP JUMP JUMPDEST PUSH0 DUP1 PUSH0 DUP1 PUSH1 0x60 DUP6 DUP8 SUB SLT ISZERO PUSH2 0x461 JUMPI PUSH0 DUP1 REVERT JUMPDEST PUSH2 0x46A DUP6 PUSH2 0x3EB JUMP JUMPDEST SWAP4 POP PUSH1 0x20 DUP6 ADD CALLDATALOAD PUSH8 0xFFFFFFFFFFFFFFFF DUP2 GT ISZERO PUSH2 0x485 JUMPI PUSH0 DUP1 REVERT JUMPDEST PUSH2 0x491 DUP8 DUP3 DUP9 ADD PUSH2 0x406 JUMP JUMPDEST SWAP6 SWAP9 SWAP1 SWAP8 POP SWAP5 SWAP6 PUSH1 0x40 ADD CALLDATALOAD SWAP5 SWAP4 POP POP POP POP JUMP JUMPDEST PUSH0 DUP1 PUSH0 DUP1 PUSH0 PUSH1 0x60 DUP7 DUP9 SUB SLT ISZERO PUSH2 0x4B8 JUMPI PUSH0 DUP1 REVERT JUMPDEST PUSH2 0x4C1 DUP7 PUSH2 0x3EB JUMP JUMPDEST SWAP5 POP PUSH1 0x20 DUP7 ADD CALLDATALOAD PUSH8 0xFFFFFFFFFFFFFFFF DUP1 DUP3 GT ISZERO PUSH2 0x4DD JUMPI PUSH0 DUP1 REVERT JUMPDEST PUSH2 0x4E9 DUP10 DUP4 DUP11 ADD PUSH2 0x406 JUMP JUMPDEST SWAP1 SWAP7 POP SWAP5 POP PUSH1 0x40 DUP9 ADD CALLDATALOAD SWAP2 POP DUP1 DUP3 GT ISZERO PUSH2 0x501 JUMPI PUSH0 DUP1 REVERT JUMPDEST POP PUSH2 0x50E DUP9 DUP3 DUP10 ADD PUSH2 0x406 JUMP JUMPDEST SWAP7 SWAP10 SWAP6 SWAP9 POP SWAP4 SWAP7 POP SWAP3 SWAP5 SWAP4 SWAP3 POP POP POP JUMP JUMPDEST PUSH4 0x4E487B71 PUSH1 0xE0 SHL PUSH0 MSTORE PUSH1 0x11 PUSH1 0x4 MSTORE PUSH1 0x24 PUSH0 REVERT JUMPDEST DUP1 DUP3 MUL DUP2 ISZERO DUP3 DUP3 DIV DUP5 EQ OR PUSH2 0x54A JUMPI PUSH2 0x54A PUSH2 0x51F JUMP JUMPDEST SWAP3 SWAP2 POP POP JUMP JUMPDEST PUSH4 0x4E487B71 PUSH1 0xE0 SHL PUSH0 MSTORE PUSH1 0x32 PUSH1 0x4 MSTORE PUSH1 0x24 PUSH0 REVERT JUMPDEST PUSH0 PUSH1 0x20 DUP3 DUP5 SUB SLT ISZERO PUSH2 0x574 JUMPI PUSH0 DUP1 REVERT JUMPDEST PUSH2 0x57D DUP3 PUSH2 0x3EB JUMP JUMPDEST SWAP4 SWAP3 POP POP POP JUMP JUMPDEST PUSH0 PUSH1 0x20 DUP3 DUP5 SUB SLT ISZERO PUSH2 0x594 JUMPI PUSH0 DUP1 REVERT JUMPDEST DUP2 MLOAD DUP1 ISZERO ISZERO DUP2 EQ PUSH2 0x57D JUMPI PUSH0 DUP1 REVERT JUMPDEST PUSH0 PUSH1 0x1 DUP3 ADD PUSH2 0x5B4 JUMPI PUSH2 0x5B4 PUSH2 0x51F JUMP JUMPDEST POP PUSH1 0x1 ADD SWAP1 JUMP JUMPDEST DUP1 DUP3 ADD DUP1 DUP3 GT ISZERO PUSH2 0x54A JUMPI PUSH2 0x54A PUSH2 0x51F JUMP INVALID LOG2 PUSH5 0x6970667358 0x22 SLT KECCAK256 0x4B DUP8 0xA8 0xE5 0xCC CALLDATASIZE TIMESTAMP 0x2D SWAP13 0xAF 0xBB 0xB4 SUB PUSH7 0xCBA7CA55626A6D SLOAD 0x5D 0xBA CALLDATASIZE PUSH28 0x44708A60DAD264736F6C634300081400330000000000000000000000 "
				},
				"gasEstimates": {
					"creation": {
						"codeDepositCost": "308000",
						"executionCost": "347",
						"totalCost": "308347"
					},
					"external": {
						"airdropAmounts(address,address[],uint256[])": "infinite",
						"airdropEqual(address,address[],uint256)": "infinite"
					}
				},
				"methodIdentifiers": {
					"airdropAmounts(address,address[],uint256[])": "ac09bed2",
					"airdropEqual(address,address[],uint256)": "62ed4815"
				}
			},
			"storageLayout": {
				"storage": [],
				"types": null
			},
			"userdoc": {
				"kind": "user",
				"methods": {},
				"version": 1
			}
		}
	}
}