{
	"TipJar.sol": {
		"TipJar": {
			"abi": [
				{
					"anonymous": false,
					"inputs": [
						{
							"indexed": true,
							"internalType": "address",
							"name": "from",
							"type": "address"
						},
						{
							"indexed": true,
							"internalType": "address",
							"name": "to",
							"type": "address"
						},
						{
							"indexed": false,
							"internalType": "uint256",
							"name": "amount",
							"type": "uint256"
						},
						{
							"indexed": false,
							"internalType": "string",
							"name": "message",
							"type": "string"
						}
					],
					"name": "Tipped",
					"type": "event"
				},
				{
					"inputs": [
						{
							"internalType": "address payable",
							"name": "_to",
							"type": "address"
						},
						{
							"internalType": "string",
							"name": "_message",
							"type": "string"
						}
					],
					"name": "tip",
					"outputs": [],
					"stateMutability": "payable",
					"type": "function"
				}
			],
			"devdoc": {
				"kind": "dev",
				"methods": {},
				"version": 1
			},
			"evm": {
				"assembly": "    /* \"TipJar.sol\":61:411  contract TipJar {... */\n  mstore(0x40, 0x80)\n  callvalue\n  dup1\n  iszero\n  tag_1\n  jumpi\n  0x00\n  dup1\n  revert\ntag_1:\n  pop\n  dataSize(sub_0)\n  dup1\n  dataOffset(sub_0)\n  0x00\n  codecopy\n  0x00\n  return\nstop\n\nsub_0: assembly {\n        /* \"TipJar.sol\":61:411  contract TipJar {... */\n      mstore(0x40, 0x80)\n      jumpi(tag_1, lt(calldatasize, 0x04))\n      shr(0xe0, calldataload(0x00))\n      dup1\n      0xb1519611\n      eq\n      tag_2\n      jumpi\n    tag_1:\n      0x00\n      dup1\n      revert\n        /* \"TipJar.sol\":179:408  function tip(address payable _to, string calldata _message) external payable {... */\n    tag_2:\n      tag_3\n      tag_4\n      calldatasize\n      0x04\n      tag_5\n      jump\t// in\n    tag_4:\n      tag_6\n      jump\t// in\n    tag_3:\n      stop\n    tag_6:\n        /* \"TipJar.sol\":287:288  0 */\n      0x00\n        /* \"TipJar.sol\":275:284  msg.value */\n      callvalue\n        /* \"TipJar.sol\":275:288  msg.value > 0 */\n      gt\n        /* \"TipJar.sol\":267:306  require(msg.value > 0, \"Must send ETH\") */\n      tag_8\n      jumpi\n      mload(0x40)\n      shl(0xe5, 0x461bcd)\n      dup2\n      mstore\n        /* \"#utility.yul\":995:997   */\n      0x20\n        /* \"TipJar.sol\":267:306  require(msg.value > 0, \"Must send ETH\") */\n      0x04\n      dup3\n      add\n        /* \"#utility.yul\":977:998   */\n      mstore\n        /* \"#utility.yul\":1034:1036   */\n      0x0d\n        /* \"#utility.yul\":1014:1032   */\n      0x24\n      dup3\n      add\n        /* \"#utility.yul\":1007:1037   */\n      mstore\n      shl(0x9b, 0x09aeae6e840e6cadcc8408aa89)\n        /* \"#utility.yul\":1053:1071   */\n      0x44\n      dup3\n      add\n        /* \"#utility.yul\":1046:1089   */\n      mstore\n        /* \"#utility.yul\":1106:1124   */\n      0x64\n      add\n        /* \"TipJar.sol\":267:306  require(msg.value > 0, \"Must send ETH\") */\n      mload(0x40)\n      dup1\n      swap2\n      sub\n      swap1\n      revert\n    tag_8:\n        /* \"TipJar.sol\":317:340  _to.transfer(msg.value) */\n      mload(0x40)\n      sub(shl(0xa0, 0x01), 0x01)\n        /* \"TipJar.sol\":317:329  _to.transfer */\n      dup5\n      and\n      swap1\n        /* \"TipJar.sol\":330:339  msg.value */\n      callvalue\n        /* \"TipJar.sol\":317:340  _to.transfer(msg.value) */\n      dup1\n      iszero\n      0x08fc\n      mul\n      swap2\n      0x00\n      dup2\n      dup2\n      dup2\n        /* \"TipJar.sol\":330:339  msg.value */\n      dup6\n        /* \"TipJar.sol\":317:329  _to.transfer */\n      dup9\n        /* \"TipJar.sol\":317:340  _to.transfer(msg.value) */\n      dup9\n      call\n      swap4\n      pop\n      pop\n      pop\n      pop\n      iszero\n      dup1\n      iszero\n      tag_12\n      jumpi\n      returndatasize\n      0x00\n      dup1\n      returndatacopy\n      revert(0x00, returndatasize)\n    tag_12:\n      pop\n        /* \"TipJar.sol\":375:378  _to */\n      dup3\n      sub(shl(0xa0, 0x01), 0x01)\n        /* \"TipJar.sol\":356:400  Tipped(msg.sender, _to, msg.value, _message) */\n      and\n        /* \"TipJar.sol\":363:373  msg.sender */\n      caller\n      sub(shl(0xa0, 0x01), 0x01)\n        /* \"TipJar.sol\":356:400  Tipped(msg.sender, _to, msg.value, _message) */\n      and\n      0xa374111400afcb6aa53953dbd1fcea44c820a4aa80aafd21c08479fb25a84698\n        /* \"TipJar.sol\":380:389  msg.value */\n      callvalue\n        /* \"TipJar.sol\":391:399  _message */\n      dup6\n      dup6\n        /* \"TipJar.sol\":356:400  Tipped(msg.sender, _to, msg.value, _message) */\n      mload(0x40)\n      tag_13\n      swap4\n      swap3\n      swap2\n      swap1\n      tag_14\n      jump\t// in\n    tag_13:\n      mload(0x40)\n      dup1\n      swap2\n      sub\n      swap1\n      log3\n        /* \"TipJar.sol\":179:408  function tip(address payable _to, string calldata _message) external payable {... */\n      pop\n      pop\n      pop\n      jump\t// out\n        /* \"#utility.yul\":14:788   */\n    tag_5:\n        /* \"#utility.yul\":102:108   */\n      0x00\n        /* \"#utility.yul\":110:116   */\n      dup1\n        /* \"#utility.yul\":118:124   */\n      0x00\n        /* \"#utility.yul\":171:173   */\n      0x40\n        /* \"#utility.yul\":159:168   */\n      dup5\n        /* \"#utility.yul\":150:157   */\n      dup7\n        /* \"#utility.yul\":146:169   */\n      sub\n        /* \"#utility.yul\":142:174   */\n      slt\n        /* \"#utility.yul\":139:191   */\n      iszero\n      tag_17\n      jumpi\n        /* \"#utility.yul\":187:188   */\n      0x00\n        /* \"#utility.yul\":184:185   */\n      dup1\n        /* \"#utility.yul\":177:189   */\n      revert\n        /* \"#utility.yul\":139:191   */\n    tag_17:\n        /* \"#utility.yul\":213:236   */\n      dup4\n      calldataload\n      sub(shl(0xa0, 0x01), 0x01)\n        /* \"#utility.yul\":265:296   */\n      dup2\n      and\n        /* \"#utility.yul\":255:297   */\n      dup2\n      eq\n        /* \"#utility.yul\":245:315   */\n      tag_18\n      jumpi\n        /* \"#utility.yul\":311:312   */\n      0x00\n        /* \"#utility.yul\":308:309   */\n      dup1\n        /* \"#utility.yul\":301:313   */\n      revert\n        /* \"#utility.yul\":245:315   */\n    tag_18:\n        /* \"#utility.yul\":334:339   */\n      swap3\n      pop\n        /* \"#utility.yul\":390:392   */\n      0x20\n        /* \"#utility.yul\":375:393   */\n      dup5\n      add\n        /* \"#utility.yul\":362:394   */\n      calldataload\n        /* \"#utility.yul\":413:431   */\n      0xffffffffffffffff\n        /* \"#utility.yul\":443:457   */\n      dup1\n      dup3\n      gt\n        /* \"#utility.yul\":440:474   */\n      iszero\n      tag_19\n      jumpi\n        /* \"#utility.yul\":470:471   */\n      0x00\n        /* \"#utility.yul\":467:468   */\n      dup1\n        /* \"#utility.yul\":460:472   */\n      revert\n        /* \"#utility.yul\":440:474   */\n    tag_19:\n        /* \"#utility.yul\":508:514   */\n      dup2\n        /* \"#utility.yul\":497:506   */\n      dup7\n        /* \"#utility.yul\":493:515   */\n      add\n        /* \"#utility.yul\":483:515   */\n      swap2\n      pop\n        /* \"#utility.yul\":553:560   */\n      dup7\n        /* \"#utility.yul\":546:550   */\n      0x1f\n        /* \"#utility.yul\":542:544   */\n      dup4\n        /* \"#utility.yul\":538:551   */\n      add\n        /* \"#utility.yul\":534:561   */\n      slt\n        /* \"#utility.yul\":524:579   */\n      tag_20\n      jumpi\n        /* \"#utility.yul\":575:576   */\n      0x00\n        /* \"#utility.yul\":572:573   */\n      dup1\n        /* \"#utility.yul\":565:577   */\n      revert\n        /* \"#utility.yul\":524:579   */\n    tag_20:\n        /* \"#utility.yul\":615:617   */\n      dup2\n        /* \"#utility.yul\":602:618   */\n      calldataload\n        /* \"#utility.yul\":641:643   */\n      dup2\n        /* \"#utility.yul\":633:639   */\n      dup2\n        /* \"#utility.yul\":630:644   */\n      gt\n        /* \"#utility.yul\":627:661   */\n      iszero\n      tag_21\n      jumpi\n        /* \"#utility.yul\":657:658   */\n      0x00\n        /* \"#utility.yul\":654:655   */\n      dup1\n        /* \"#utility.yul\":647:659   */\n      revert\n        /* \"#utility.yul\":627:661   */\n    tag_21:\n        /* \"#utility.yul\":702:709   */\n      dup8\n        /* \"#utility.yul\":697:699   */\n      0x20\n        /* \"#utility.yul\":688:694   */\n      dup3\n        /* \"#utility.yul\":684:686   */\n      dup6\n        /* \"#utility.yul\":680:695   */\n      add\n        /* \"#utility.yul\":676:700   */\n      add\n        /* \"#utility.yul\":673:710   */\n      gt\n        /* \"#utility.yul\":670:727   */\n      iszero\n      tag_22\n      jumpi\n        /* \"#utility.yul\":723:724   */\n      0x00\n        /* \"#utility.yul\":720:721   */\n      dup1\n        /* \"#utility.yul\":713:725   */\n      revert\n        /* \"#utility.yul\":670:727   */\n    tag_22:\n        /* \"#utility.yul\":754:756   */\n      0x20\n        /* \"#utility.yul\":750:752   */\n      dup4\n        /* \"#utility.yul\":746:757   */\n      add\n        /* \"#utility.yul\":736:757   */\n      swap5\n      pop\n        /* \"#utility.yul\":776:782   */\n      dup1\n        /* \"#utility.yul\":766:782   */\n      swap4\n      pop\n      pop\n      pop\n      pop\n        /* \"#utility.yul\":14:788   */\n      swap3\n      pop\n      swap3\n      pop\n      swap3\n      jump\t// out\n        /* \"#utility.yul\":1135:1596   */\n    tag_14:\n        /* \"#utility.yul\":1322:1328   */\n      dup4\n        /* \"#utility.yul\":1311:1320   */\n      dup2\n        /* \"#utility.yul\":1304:1329   */\n      mstore\n        /* \"#utility.yul\":1365:1367   */\n      0x40\n        /* \"#utility.yul\":1360:1362   */\n      0x20\n        /* \"#utility.yul\":1349:1358   */\n      dup3\n        /* \"#utility.yul\":1345:1363   */\n      add\n        /* \"#utility.yul\":1338:1368   */\n      mstore\n        /* \"#utility.yul\":1404:1410   */\n      dup2\n        /* \"#utility.yul\":1399:1401   */\n      0x40\n        /* \"#utility.yul\":1388:1397   */\n      dup3\n        /* \"#utility.yul\":1384:1402   */\n      add\n        /* \"#utility.yul\":1377:1411   */\n      mstore\n        /* \"#utility.yul\":1461:1467   */\n      dup2\n        /* \"#utility.yul\":1453:1459   */\n      dup4\n        /* \"#utility.yul\":1448:1450   */\n      0x60\n        /* \"#utility.yul\":1437:1446   */\n      dup4\n        /* \"#utility.yul\":1433:1451   */\n      add\n        /* \"#utility.yul\":1420:1468   */\n      calldatacopy\n        /* \"#utility.yul\":1517:1518   */\n      0x00\n        /* \"#utility.yul\":1488:1510   */\n      dup2\n      dup4\n      add\n        /* \"#utility.yul\":1512:1514   */\n      0x60\n        /* \"#utility.yul\":1484:1515   */\n      swap1\n      dup2\n      add\n        /* \"#utility.yul\":1477:1519   */\n      swap2\n      swap1\n      swap2\n      mstore\n        /* \"#utility.yul\":1580:1582   */\n      0x1f\n        /* \"#utility.yul\":1559:1574   */\n      swap1\n      swap3\n      add\n      not(0x1f)\n        /* \"#utility.yul\":1555:1584   */\n      and\n        /* \"#utility.yul\":1540:1585   */\n      add\n        /* \"#utility.yul\":1536:1590   */\n      add\n      swap3\n        /* \"#utility.yul\":1135:1596   */\n      swap2\n      pop\n      pop\n      jump\t// out\n\n    auxdata: 0xa2646970667358221220fb3516269bc55a69c9b41ab083cb6e8e2277dbe31f9901745bf6be41c4a3ea8064736f6c63430008140033\n}\n",
				"bytecode": {
					"linkReferences": {},
					"object": "608060405234801561000f575f80fd5b506101f48061001d5f395ff3fe60806040526004361061001d575f3560e01c8063b151961114610021575b5f80fd5b61003461002f366004610100565b610036565b005b5f34116100795760405162461bcd60e51b815260206004820152600d60248201526c09aeae6e840e6cadcc8408aa89609b1b604482015260640160405180910390fd5b6040516001600160a01b038416903480156108fc02915f818181858888f193505050501580156100ab573d5f803e3d5ffd5b50826001600160a01b0316336001600160a01b03167fa374111400afcb6aa53953dbd1fcea44c820a4aa80aafd21c08479fb25a846983485856040516100f393929190610189565b60405180910390a3505050565b5f805f60408486031215610112575f80fd5b83356001600160a01b0381168114610128575f80fd5b9250602084013567ffffffffffffffff80821115610144575f80fd5b818601915086601f830112610157575f80fd5b813581811115610165575f80fd5b876020828501011115610176575f80fd5b6020830194508093505050509250925092565b83815260406020820152816040820152818360608301375f818301606090810191909152601f909201601f191601019291505056fea2646970667358221220fb3516269bc55a69c9b41ab083cb6e8e2277dbe31f9901745bf6be41c4a3ea8064736f6c63430008140033",
					"opcodes": "PUSH1 0x80 PUSH1 0x40 MSTORE CALLVALUE DUP1 ISZERO PUSH2 0xF JUMPI PUSH0 DUP1 REVERT JUMPDEST POP PUSH2 0x1F4 DUP1 PUSH2 0x1D PUSH0 CODECOPY PUSH0 RETURN INVALID PUSH1 0x80 PUSH1 0x40 MSTORE PUSH1 0x4 CALLDATASIZE LT PUSH2 0x1D JUMPI PUSH0 CALLDATALOAD PUSH1 0xE0 SHR DUP1 PUSH4 0xB1519611 EQ PUSH2 0x21 JUMPI JUMPDEST PUSH0 DUP1 REVERT JUMPDEST PUSH2 0x34 PUSH2 0x2F CALLDATASIZE PUSH1 0x4 PUSH2 0x100 JUMP JUMPDEST PUSH2 0x36 JUMP JUMPDEST STOP JUMPDEST PUSH0 CALLVALUE GT PUSH2 0x79 JUMPI PUSH1 0x40 MLOAD PUSH3 0x461BCD PUSH1 0xE5 SHL DUP2 MSTORE PUSH1 0x20 PUSH1 0x4 DUP3 ADD MSTORE PUSH1 0xD PUSH1 0x24 DUP3 ADD MSTORE PUSH13 0x9AEAE6E840E6CADCC8408AA89 PUSH1 0x9B SHL PUSH1 0x44 DUP3 ADD MSTORE PUSH1 0x64 ADD PUSH1 0x40 MLOAD DUP1 SWAP2 SUB SWAP1 REVERT JUMPDEST PUSH1 0x40 MLOAD PUSH1 0x1 PUSH1 0x1 PUSH1 0xA0 SHL SUB DUP5 AND SWAP1 CALLVALUE DUP1 ISZERO PUSH2 0x8FC MUL SWAP2 PUSH0 DUP2 DUP2 DUP2 DUP6 DUP9 DUP9 CALL SWAP4 POP POP POP POP ISZERO DUP1 ISZERO PUSH2 0xAB JUMPI RETURNDATASIZE PUSH0 DUP1 RETURNDATACOPY RETURNDATASIZE PUSH0 REVERT JUMPDEST POP DUP3 PUSH1 0x1 PUSH1 0x1 PUSH1 0xA0 SHL SUB AND CALLER PUSH1 0x1 PUSH1 0x1 PUSH1 0xA0 SHL SUB AND PUSH32 0xA374111400AFCB6AA53953DBD1FCEA44C820A4AA80AAFD21C08479FB25A84698 CALLVALUE DUP6 DUP6 PUSH1 0x40 MLOAD PUSH2 0xF3 SWAP4 SWAP3 SWAP2 SWAP1 PUSH2 0x189 JUMP JUMPDEST PUSH1 0x40 MLOAD DUP1 SWAP2 SUB SWAP1 LOG3 POP POP POP JUMP JUMPDEST PUSH0 DUP1 PUSH0 PUSH1 0x40 DUP5 DUP7 SUB SLT ISZERO PUSH2 0x112 JUMPI PUSH0 DUP1 REVERT JUMPDEST DUP4 CALLDATALOAD PUSH1 0x1 PUSH1 0x1 PUSH1 0xA0 SHL SUB DUP2 AND DUP2 EQ PUSH2 0x128 JUMPI PUSH0 DUP1 REVERT JUMPDEST SWAP3 POP PUSH1 0x20 DUP5 ADD CALLDATALOAD PUSH8 0xFFFFFFFFFFFFFFFF DUP1 DUP3 GT ISZERO PUSH2 0x144 JUMPI PUSH0 DUP1 REVERT JUMPDEST DUP2 DUP7 ADD SWAP2 POP DUP7 PUSH1 0x1F DUP4 ADD SLT PUSH2 0x157 JUMPI PUSH0 DUP1 REVERT JUMPDEST DUP2 CALLDATALOAD DUP2 DUP2 GT ISZERO PUSH2 0x165 JUMPI PUSH0 DUP1 REVERT JUMPDEST DUP8 PUSH1 0x20 DUP3 DUP6 ADD ADD GT ISZERO PUSH2 0x176 JUMPI PUSH0 DUP1 REVERT JUMPDEST PUSH1 0x20 DUP4 ADD SWAP5 POP DUP1 SWAP4 POP POP POP POP SWAP3 POP SWAP3 POP SWAP3 JUMP JUMPDEST DUP4 DUP2 MSTORE PUSH1 0x40 PUSH1 0x20 DUP3 ADD MSTORE DUP2 PUSH1 0x40 DUP3 ADD MSTORE DUP2 DUP4 PUSH1 0x60 DUP4 ADD CALLDATACOPY PUSH0 DUP2 DUP4 ADD PUSH1 0x60 SWAP1 DUP2 ADD SWAP2 SWAP1 SWAP2 MSTORE PUSH1 0x1F SWAP1 SWAP3 ADD PUSH1 0x1F NOT AND ADD ADD SWAP3 SWAP2 POP POP JUMP INVALID LOG2 PUSH5 0x6970667358 0x22 SLT KECCAK256 0xFB CALLDATALOAD AND 0x26 SWAP12 0xC5 GAS PUSH10 0xC9B41AB083CB6E8E2277 0xDB 0xE3 0x1F SWAP10 ADD PUSH21 0x5BF6BE41C4A3EA8064736F6C634300081400330000 "
				},
				"gasEstimates": {
					"creation": {
						"codeDepositCost": "100000",
						"executionCost": "145",
						"totalCost": "100145"
					},
					"external": {
						"tip(address,string)": "infinite"
					}
				},
				"methodIdentifiers": {
					"tip(address,string)": "b1519611"
				}
			},
			"storageLayout": {
				"storage": [],
				"types": null
			},
			"userdoc": {
				"kind": "user",
				"methods": {},
				"version": 1
			}
		}
	}
}