{
	"data": {
		"bytecode": {
			"linkReferences": {},
			"object": "608060405261a8c0600255348015610015575f80fd5b506102a9806100235f395ff3fe608060405234801561000f575f80fd5b5060043610610055575f3560e01c8063183ff0851461005957806327cfe856146100635780636a2a65181461007f578063cee1a6651461009e578063ef6fdb1c146100a7575b5f80fd5b6100616100c6565b005b61006d6201518081565b60405190815260200160405180910390f35b61006d61008d366004610221565b60016020525f908152604090205481565b61006d60025481565b61006d6100b5366004610221565b5f6020819052908152604090205481565b335f90815260208190526040812054908190036100f457335f908152600160208190526040909120556101ca565b600254610104620151808361024e565b61010e919061024e565b42111580156101295750610125620151808261024e565b4210155b1561015a57335f908152600160208190526040822080549192909161014f90849061024e565b909155506101ca9050565b60025461016a620151808361024e565b610174919061024e565b42111561019257335f908152600160208190526040909120556101ca565b60405162461bcd60e51b8152602060048201526009602482015268546f6f206561726c7960b81b604482015260640160405180910390fd5b335f8181526020818152604080832042908190556001835292819020548151908152918201929092527f621d62c6c0c4a0c35e883c6b27ad50ecc3093f08bfaf8aa5f58127d351feeb21910160405180910390a250565b5f60208284031215610231575f80fd5b81356001600160a01b0381168114610247575f80fd5b9392505050565b8082018082111561026d57634e487b7160e01b5f52601160045260245ffd5b9291505056fea264697066735822122091abef33f5af97581bf63ac85780aca104b5ce15211cafb907e197c302c2c31c64736f6c63430008140033",
			"opcodes": "PUSH1 0x80 PUSH1 0x40 MSTORE PUSH2 0xA8C0 PUSH1 0x2 SSTORE CALLVALUE DUP1 ISZERO PUSH2 0x15 JUMPI PUSH0 DUP1 REVERT JUMPDEST POP PUSH2 0x2A9 DUP1 PUSH2 0x23 PUSH0 CODECOPY PUSH0 RETURN INVALID PUSH1 0x80 PUSH1 0x40 MSTORE CALLVALUE DUP1 ISZERO PUSH2 0xF JUMPI PUSH0 DUP1 REVERT JUMPDEST POP PUSH1 0x4 CALLDATASIZE LT PUSH2 0x55 JUMPI PUSH0 CALLDATALOAD PUSH1 0xE0 SHR DUP1 PUSH4 0x183FF085 EQ PUSH2 0x59 JUMPI DUP1 PUSH4 0x27CFE856 EQ PUSH2 0x63 JUMPI DUP1 PUSH4 0x6A2A6518 EQ PUSH2 0x7F JUMPI DUP1 PUSH4 0xCEE1A665 EQ PUSH2 0x9E JUMPI DUP1 PUSH4 0xEF6FDB1C EQ PUSH2 0xA7 JUMPI JUMPDEST PUSH0 DUP1 REVERT JUMPDEST PUSH2 0x61 PUSH2 0xC6 JUMP JUMPDEST STOP JUMPDEST PUSH2 0x6D PUSH3 0x15180 DUP2 JUMP JUMPDEST PUSH1 0x40 MLOAD SWAP1 DUP2 MSTORE PUSH1 0x20 ADD PUSH1 0x40 MLOAD DUP1 SWAP2 SUB SWAP1 RETURN JUMPDEST PUSH2 0x6D PUSH2 0x8D CALLDATASIZE PUSH1 0x4 PUSH2 0x221 JUMP JUMPDEST PUSH1 0x1 PUSH1 0x20 MSTORE PUSH0 SWAP1 DUP2 MSTORE PUSH1 0x40 SWAP1 KECCAK256 SLOAD DUP2 JUMP JUMPDEST PUSH2 0x6D PUSH1 0x2 SLOAD DUP2 JUMP JUMPDEST PUSH2 0x6D PUSH2 0xB5 CALLDATASIZE PUSH1 0x4 PUSH2 0x221 JUMP JUMPDEST PUSH0 PUSH1 0x20 DUP2 SWAP1 MSTORE SWAP1 DUP2 MSTORE PUSH1 0x40 SWAP1 KECCAK256 SLOAD DUP2 JUMP JUMPDEST CALLER PUSH0 SWAP1 DUP2 MSTORE PUSH1 0x20 DUP2 SWAP1 MSTORE PUSH1 0x40 DUP2 KECCAK256 SLOAD SWAP1 DUP2 SWAP1 SUB PUSH2 0xF4 JUMPI CALLER PUSH0 SWAP1 DUP2 MSTORE PUSH1 0x1 PUSH1 0x20 DUP2 SWAP1 MSTORE PUSH1 0x40 SWAP1 SWAP2 KECCAK256 SSTORE PUSH2 0x1CA JUMP JUMPDEST PUSH1 0x2 SLOAD PUSH2 0x104 PUSH3 0x15180 DUP4 PUSH2 0x24E JUMP JUMPDEST PUSH2 0x10E SWAP2 SWAP1 PUSH2 0x24E JUMP JUMPDEST TIMESTAMP GT ISZERO DUP1 ISZERO PUSH2 0x129 JUMPI POP PUSH2 0x125 PUSH3 0x15180 DUP3 PUSH2 0x24E JUMP JUMPDEST TIMESTAMP LT ISZERO JUMPDEST ISZERO PUSH2 0x15A JUMPI CALLER PUSH0 SWAP1 DUP2 MSTORE PUSH1 0x1 PUSH1 0x20 DUP2 SWAP1 MSTORE PUSH1 0x40 DUP3 KECCAK256 DUP1 SLOAD SWAP2 SWAP3 SWAP1 SWAP2 PUSH2 0x14F SWAP1 DUP5 SWAP1 PUSH2 0x24E JUMP JUMPDEST SWAP1 SWAP2 SSTORE POP PUSH2 0x1CA SWAP1 POP JUMP JUMPDEST PUSH1 0x2 SLOAD PUSH2 0x16A PUSH3 0x15180 DUP4 PUSH2 0x24E JUMP JUMPDEST PUSH2 0x174 SWAP2 SWAP1 PUSH2 0x24E JUMP JUMPDEST TIMESTAMP GT ISZERO PUSH2 0x192 JUMPI CALLER PUSH0 SWAP1 DUP2 MSTORE PUSH1 0x1 PUSH1 0x20 DUP2 SWAP1 MSTORE PUSH1 0x40 SWAP1 SWAP2 KECCAK256 SSTORE PUSH2 0x1CA JUMP JUMPDEST PUSH1 0x40 MLOAD PUSH3 0x461BCD PUSH1 0xE5 SHL DUP2 MSTORE PUSH1 0x20 PUSH1 0x4 DUP3 ADD MSTORE PUSH1 0x9 PUSH1 0x24 DUP3 ADD MSTORE PUSH9 0x546F6F206561726C79 PUSH1 0xB8 SHL PUSH1 0x44 DUP3 ADD MSTORE PUSH1 0x64 ADD PUSH1 0x40 MLOAD DUP1 SWAP2 SUB SWAP1 REVERT JUMPDEST CALLER PUSH0 DUP2 DUP2 MSTORE PUSH1 0x20 DUP2 DUP2 MSTORE PUSH1 0x40 DUP1 DUP4 KECCAK256 TIMESTAMP SWAP1 DUP2 SWAP1 SSTORE PUSH1 0x1 DUP4 MSTORE SWAP3 DUP2 SWAP1 KECCAK256 SLOAD DUP2 MLOAD SWAP1 DUP2 MSTORE SWAP2 DUP3 ADD SWAP3 SWAP1 SWAP3 MSTORE PUSH32 0x621D62C6C0C4A0C35E883C6B27AD50ECC3093F08BFAF8AA5F58127D351FEEB21 SWAP2 ADD PUSH1 0x40 MLOAD DUP1 SWAP2 SUB SWAP1 LOG2 POP JUMP JUMPDEST PUSH0 PUSH1 0x20 DUP3 DUP5 SUB SLT ISZERO PUSH2 0x231 JUMPI PUSH0 DUP1 REVERT JUMPDEST DUP2 CALLDATALOAD PUSH1 0x1 PUSH1 0x1 PUSH1 0xA0 SHL SUB DUP2 AND DUP2 EQ PUSH2 0x247 JUMPI PUSH0 DUP1 REVERT JUMPDEST SWAP4 SWAP3 POP POP POP JUMP JUMPDEST DUP1 DUP3 ADD DUP1 DUP3 GT ISZERO PUSH2 0x26D JUMPI PUSH4 0x4E487B71 PUSH1 0xE0 SHL PUSH0 MSTORE PUSH1 0x11 PUSH1 0x4 MSTORE PUSH1 0x24 PUSH0 REVERT JUMPDEST SWAP3 SWAP2 POP POP JUMP INVALID LOG2 PUSH5 0x6970667358 0x22 SLT KECCAK256 SWAP2 0xAB 0xEF CALLER CREATE2 0xAF SWAP8 PC SHL 0xF6 GASPRICE 0xC8 JUMPI DUP1 0xAC LOG1 DIV 0xB5 0xCE ISZERO 0x21 SHR 0xAF 0xB9 SMOD 0xE1 SWAP8 0xC3 MUL 0xC2 0xC3 SHR PUSH5 0x736F6C6343 STOP ADDMOD EQ STOP CALLER "
		},
		"gasEstimates": {
			"creation": {
				"codeDepositCost": "136200",
				"executionCost": "22287",
				"totalCost": "158487"
			},
			"external": {
				"DAY()": "182",
				"checkIn()": "infinite",
				"graceWindow()": "2326",
				"lastCheckIn(address)": "2538",
				"streak(address)": "2491"
			}
		},
		"methodIdentifiers": {
			"DAY()": "27cfe856",
			"checkIn()": "183ff085",
			"graceWindow()": "cee1a665",
			"lastCheckIn(address)": "ef6fdb1c",
			"streak(address)": "6a2a6518"
		}
	},
	"abi": [
		{
			"anonymous": false,
			"inputs": [
				{
					"indexed": true,
					"internalType": "address",
					"name": "user",
					"type": "address"
				},
				{
					"indexed": false,
					"internalType": "uint256",
					"name": "streak",
					"type": "uint256"
				},
				{
					"indexed": false,
					"internalType": "uint256",
					"name": "timestamp",
					"type": "uint256"
				}
			],
			"name": "CheckedIn",
			"type": "event"
		},
		{
			"inputs": [],
			"name": "DAY",
			"outputs": [
				{
					"internalType": "uint256",
					"name": "",
					"type": "uint256"
				}
			],
			"stateMutability": "view",
			"type": "function"
		},
		{
			"inputs": [],
			"name": "checkIn",
			"outputs": [],
			"stateMutability": "nonpayable",
			"type": "function"
		},
		{
			"inputs": [],
			"name": "graceWindow",
			"outputs": [
				{
					"internalType": "uint256",
					"name": "",
					"type": "uint256"
				}
			],
			"stateMutability": "view",
			"type": "function"
		},
		{
			"inputs": [
				{
					"internalType": "address",
					"name": "",
					"type": "address"
				}
			],
			"name": "lastCheckIn",
			"outputs": [
				{
					"internalType": "uint256",
					"name": "",
					"type": "uint256"
				}
			],
			"stateMutability": "view",
			"type": "function"
		},
		{
			"inputs": [
				{
					"internalType": "address",
					"name": "",
					"type": "address"
				}
			],
			"name": "streak",
			"outputs": [
				{
					"internalType": "uint256",
					"name": "",
					"type": "uint256"
				}
			],
			"stateMutability": "view",
			"type": "function"
		}
	]
}